:020000040000fa
:080000000001040000000000f3
:020000040000fa
:100200002f8020000eff20000e018800000000005b
:100210000c000700805c2000010020001100070096
:10022000000020000000e000020032000000020098
:1002300000000000cc030200000000000040da00d3
:100240000000fe004440a900000020000000e00083
:100250000300320000002000a00188004440a800f4
:100260000000060091018800800078000000eb008b
:1002700015003700e280400032a0b4009101ba00be
:10028000e280400032a0b4009102ba00e280400057
:1002900032a0b4000002eb00472bde00f507b200ed
:1002a000602ce10004003a000059eb008301e900f2
:1002b000fdff3e00040037006128e100010032002c
:1002c0000082eb00040007001101ba000200e00008
:1002d000e8ff3a00000006003159ba008301e90046
:1002e0000c0032002159ba008301e90008003200f5
:1002f0000400e00003003a00e280400032a0b400b5
:10030000f5ff370011d9ba008301e900faff3a007e
:100310008100e800e180400032a0b4000000060047
:080320000040da000000fe00bd
:020000040000fa
:1000080090010000900100009001000090010000a4
:100018009001000090010000900100009001000094
:10002800900100009001000090010000740300009e
:100038009001000090010000900100009001000074
:100048009001000090010000900100009001000064
:100058009001000090010000900100009001000054
:100068009001000090010000900100009001000044
:100078009001000090010000900100009001000034
:100088009001000090010000900100009001000024
:100098009001000090010000900100009001000014
:1000a8009001000090010000900100009001000004
:1000b80090010000900100009001000090010000f4
:1000c80090010000900100009001000090010000e4
:1000d80090010000900100009001000090010000d4
:1000e80090010000900100009001000090010000c4
:0800f8009001000090010000de
:020000040000fa
:1001080090010000900100009001000090010000a3
:100118009001000090010000900100009001000093
:10012800900100009001000090010000740300009d
:100138009001000090010000900100009001000073
:100148009001000090010000900100009001000063
:100158009001000090010000900100009001000053
:100168009001000090010000900100009001000043
:100178009001000090010000900100009001000033
:100188009001000090010000900100009001000023
:100198009001000090010000900100009001000013
:1001a8009001000090010000900100009001000003
:1001b80090010000900100009001000090010000f3
:1001c80090010000900100009001000090010000e3
:1001d80090010000900100009001000090010000d3
:1001e80090010000900100009001000090010000c3
:0801f8009001000090010000dd
:020000040000fa
:100328000000fa00c602a900c622a900c642a90018
:10033800d202a800d222a800d242a800d262a80005
:100348000080fa00000006000200fa00d202a800ad
:10035800d222a800d242a800d262a800c602a900f0
:10036800c622a800c642a800ca02a900ca22a8003c
:10037800ca42a800ea010700d4c2bf006140600079
:100388000004e00003003a000000eb00000f7800d2
:100398005a003700d4c2bf00624060000004e00089
:1003a80003003a0030002000000f780053003700a7
:1003b800d4c2bf00644060000004e00003003a00bb
:1003c80060002000000f78004c003700d4c2bf0046
:1003d800684060000004e00003003a00900020003c
:1003e800000f780045003700c602a800c622a90001
:1003f800c642a800ca02a800ca22a900ca42a80088
:10040800c7010700d4c2bf00614060000004e000db
:1004180003003a0010002000000f78003700370072
:10042800d4c2bf00624060000004e00003003a004c
:1004380040002000000f780030003700d4c2bf0011
:10044800644060000004e00003003a0070002000ef
:10045800000f780029003700d4c2bf006840600050
:100468000004e00003003a00a0002000000f78001c
:1004780022003700c602a800c622a800c642a9006a
:10048800ca02a800ca22a800ca42a900a4010700fb
:10049800d4c2bf00614060000004e00003003a00dd
:1004a80020002000000f780014003700d4c2bf00dd
:1004b800624060000004e00003003a0050002000a1
:1004c800000f78000d003700d4c2bf006440600000
:1004d8000004e00003003a0080002000000f7800cc
:1004e80006003700d4c2bf00684060000004e00086
:1004f8009aff3a00b0002000000f78001e00780034
:100508000080fa00000006000200fa00d202a800eb
:10051800d222a800d242a800d262a800c602a9002e
:10052800c622a800c642a800ca02a900ca22a8007a
:10053800ca42a8007a010700d4c2bf006140600027
:100548000004e00003003a000000eb00000f780010
:1005580060003700d4c2bf00624060000004e000c1
:1005680003003a0030002000000f780059003700df
:10057800d4c2bf00644060000004e00003003a00f9
:1005880060002000000f780052003700d4c2bf007e
:10059800684060000004e00003003a00900020007a
:1005a800000f78004b003700c602a800c622a90039
:1005b800c642a800ca02a800ca22a900ca42a800c6
:1005c80057010700d4c2bf00614060000004e0008a
:1005d80003003a0010002000000f78003d003700ab
:1005e800d4c2bf00624060000004e00003003a008b
:1005f80040002000000f780036003700d4c2bf004a
:10060800644060000004e00003003a00700020002d
:10061800000f78002f003700d4c2bf006840600088
:100628000004e00003003a00a0002000000f78005a
:1006380028003700c602a800c622a800c642a900a2
:10064800ca02a800ca22a800ca42a90034010700a9
:10065800d4c2bf00614060000004e00003003a001b
:1006680020002000000f78001a003700d4c2bf0015
:10067800624060000004e00003003a0050002000df
:10068800000f780013003700d4c2bf006440600038
:100698000004e00003003a0080002000000f78000a
:1006a8000c003700d4c2bf00684060000004e000be
:1006b80003003a00b0002000000f78000500370062
:1006c800c602a800c622a800c642a8000080eb0007
:1006d800000f78001e0078000080fa000000060075
:1006e8003600f800809fbe00829fbe00849fbe0037
:1006f800869fbe003400f80000002000a00188009a
:100708000200fa0000c8bf000004e0000c0032003c
:100718000040eb0000e8b7000040eb00004f780015
:10072800030037001e407800a20007001e4fe800b3
:1007380050c0b3009e4f1000faff36000b00370080
:1007480010c0b30000e8b7000040eb00004f78008d
:10075800030037001e4078006e0007001e4fe800b7
:1007680050c0b3009e4f1000faff36008460a90005
:100778000080fa003400f9004f03be004f02be00ab
:100788004f01be004f00be003600f90000400600d1
:100798000400fa0056000700e1fe070031c0b3006c
:1007a80000102e00ab000700c8000700e6fe070097
:1007b800104798001e4090000080fb00100798002a
:1007c8001e009000e40f50002d0032001e00900023
:1007d800e40f500011003c001e009000e10f500093
:1007e8001f0032001e009000e10f500004003c0082
:1007f8001e0090000000e0001500320033003700b2
:100808001e009000e20f5000170032001e009000fa
:10081800e30f5000160032002c0037001e00900035
:10082800e60f50001e0032001e009000e60f500038
:10083800170035001e009000e70f50001c00320022
:100848001e009000e80f50001d0032001f00370006
:1008580031c0b30000102e00a60007001b003700af
:100868009a000700190037009c000700170037009e
:1008780031c0b30000c221009e00070013003700fa
:1008880031c0b300008423009a0007000f0037002e
:1008980031c0b30000082700960007000b0037009e
:1008a80031c0b3000009200092000700070037009c
:1008b80031c0b300004820008e0007000300370055
:1008c80031c0b300006821008a0007000040eb0037
:1008d800004f7800020037009d0007001e4fe80017
:1008e800b0c3b3009e4f1000fbff3600afff3700c8
:1008f8000000fa00d802a900d822a900d842a9000d
:10090800d862a900d882a900d8a2a9000080fa005c
:10091800000006000400fa00004f78001e80fb006b
:10092800100798001e009000e20f500018003200d7
:100938001e009000e20f500007003c001e009000cf
:100948000000e0000e0032001e009000e10f500091
:100958000d003200150037001e009000e40f500013
:100968000f0032001e009000e40f50000a0035000e
:100978001e009000e50f50000b0032000b003700fe
:10098800dc02a80009003700dc22a80007003700b5
:10099800dc42a80005003700dc62a800030037002d
:1009a800dc82a80001003700dca2a8000080fa0061
:1009b800000006000400fa00004f78001e80fb00cb
:1009c800100798001e009000e20f50001800320037
:1009d8001e009000e20f500007003c001e0090002f
:1009e8000000e0000e0032001e009000e10f5000f1
:1009f8000d003200150037001e009000e40f500073
:100a08000f0032001e009000e40f50000a0035006d
:100a18001e009000e50f50000b0032000b0037005d
:100a2800dc02a90009003700dc22a9000700370012
:100a3800dc42a90005003700dc62a900030037008a
:100a4800dc82a90001003700dca2a9000080fa00be
:100a5800000006000400fa00000f78002147980003
:100a68000000eb00200888000000eb000008880068
:100a78001e007800100888002e4090006340600037
:100a8800634060004401dd0041102000914078007f
:100a9800f0ccb30000c060000240700004e1b70071
:100aa8008c60a8008460a90051092000914078005a
:100ab800f0c8b30000c0600001c4b300014070007a
:100ac80095e0b7000080fa00000006000000fa0078
:100ad80005e1a8000080fa00000006000000fa0006
:100ae80005e1a9000000eb00000888000080fa007a
:100af800000006000400fa00000f78002147980063
:100b0800f6ff0700ae4090001e007800d1ff0700f6
:100b1800eeff07000080fa00000006000000060053
:100b2800310620008100e900feff3a0000000600bf
:100b3800610c20008100e900feff3a000000060079
:100b4800215c20008100e900feff3a000000060059
:100b580001002c008100e900feff3a0000000600b9
:100b680001002c008100e900feff3a0001002c0082
:100b78008100e900feff3a0001002c008100e90035
:080b8800feff3a000000060028
:020000040000fa
:100b90000008000002000000020000000000000049
:040ba0000000000051
:00000001FF
