:020000040000fa
:080000000001040000000000f3
:020000040000fa
:100200006fa420000eff20000e01880000000000f7
:100210000c000700008d21000100200011000700e4
:10022000000020000000e000020032000000020098
:10023000000000006e1b0200000000000040da0019
:100240000000fe004440a900e00020000000e000a3
:100250000300320000002000a00188004440a800f4
:100260000000060091018800800078000000eb008b
:1002700015003700e280400032a0b4009101ba00be
:10028000e280400032a0b4009102ba00e280400057
:1002900032a0b4000002eb00472bde00f507b200ed
:1002a000602ce10004003a000059eb008301e900f2
:1002b000fdff3e00040037006128e100010032002c
:1002c0000082eb00040007001101ba000200e00008
:1002d000e8ff3a00000006003159ba008301e90046
:1002e0000c0032002159ba008301e90008003200f5
:1002f0000400e00003003a00e280400032a0b400b5
:10030000f5ff370011d9ba008301e900faff3a007e
:100310008100e800e180400032a0b4000000060047
:100320000040da000000fe000a00fa0080017800b8
:10033000e20f500028003e0020528000e10f5000e4
:1003400008003200e02120000000e000050032003b
:100350006421200085212000a62120008001780052
:1003600004003700c4202000e520200006212000e2
:1003700043212000144090000004e00004003500f8
:100380008009eb00144090000074a0001042980017
:10039000154090000028a30003003a00154090008b
:1003a0000024a000904298008001eb000700370075
:1003b000154090000008a300fdff320063c07800e4
:1003c0000000fb00000b78008301e800828f5100e1
:1003d000f7ff3a000800370030002000b0bf9f0050
:1003e000c3bf9f00d1bf9f00e2bf9f006a8057003c
:1003f00000c0da006fb99700020078000080fa00b0
:10040000000006002800fa00889fbe008a9fbe00f8
:100410008c9fbe0003866b00170307000028a30013
:1004200064003a000128a30067003a000008a30016
:1004300062003a000108a30065003a001e00900027
:10044000be08900081064000ed3fb100f4805700e7
:10045000ee019000111ab8008e099000311bb8000f
:100460009e099000311cb800511db800f48557005a
:1004700046000700fe0190003a0007008b85e80067
:100480003e0007008e09900040000700ee0190003a
:10049000340007008b85e800380007008e099000c3
:1004a000400007009e0990001b18b8008904400016
:1004b0000a854800fe019000340007008b85e800a3
:1004c00038000700ee019000300007008e09900010
:1004d0001b18b800890440000a8548000a98a30048
:1004e00008003a000402420085824a0006034b00dd
:1004f00087834b0008044c0089844c000a054d009a
:100500008d06e90084827200850273004c3add009a
:10051000850272000100320015002000443ade001e
:100520001400b2004538de00cb45dd000b00700042
:10053000c540de00cb4ddd008b8070004549de00fc
:10054000cb55dd000b017100c551de000d037800b5
:10055000e202070003f0a1000cf0a70003f0a000e6
:10056000d90237001b18b8008502400006834800f6
:10057000e0834b0060044c00070037001b18b800f4
:100580000603400087834800faff37001b18b800b5
:100590008703400008844800e0844c0060054d005b
:1005a000000006001b18b8000804400089844800b9
:1005b000faff37000108a300c0023a005800be004d
:1005c0005801be00e3ff37000008a300bb023a0059
:1005d00009047800f9ff370081037800eb02070077
:1005e0000001be006000b8000478a30013003a00c8
:1005f0006220e10015003e000d0039008301d100aa
:100600000281d3008180d3008301d1000281d30015
:100610008180d3008301d1000281d3008180d30087
:100620000538b000c42add00f300b20083817200f7
:1006300007f0a70003f0a00000000600f3ff27006a
:10064000f2ff2f006110b900fbff370003ff270006
:10065000f7ff37008f1fd100e10207008f87e90005
:100660000000e00000000600801feb00dc02070035
:100670008f87e9000000e000000006001400fa0087
:10068000889fbe008a9fbe008c9fbe000005be00f2
:100690000206be00680047000c90be000a90be0033
:1006a000f80207006400e1001a00320016003e0064
:1006b0006100e1001a0032006e049000fe04900018
:1006c0000e0b90009e0b90006011b8009e059000ec
:1006d0000b38b100d50120008281710061016400f6
:1006e0008703d1000683d3008984d3000884d30014
:1006f0008502e900f8ff3a00090307000df0a700a2
:1007000001f0a00070023700f1ff2700f0ff2f007a
:100710006d02370001f8270000002000f7ff3700c6
:100720006000b800f5ff37002303070005097800d3
:1007300000000600809feb00a90207008f87e900f8
:100740000000e000000006002800fa00889fbe00bc
:100750008a9fbe008c9fbe000706780087866900ce
:100760000c003b00030478008704780008f0a10027
:1007700009f0a100840f5000858f5800860f5900a2
:10078000890f5c00030033000cf0a20001003a0066
:100790000cf0a100380207006400e1005f003200a5
:1007a000780147006408e100610032006c014700f5
:1007b000748557003200be001201be003a04be002c
:1007c0001a05be001e039000be0a90008503530068
:1007d00006003d000004fd008104fd000205fd004f
:1007e0008305fd008703ea00050378000df8a300e8
:1007f0000400320060041400e0841c0060051d0049
:10080000e0851d006022b8007d0320000d38e10066
:100810008006eb000b0039004433dd00f300b2002a
:100820008301730039003700848272000d02780062
:10083000e10664008b85d1000a85d3008984d3004a
:100840000884d3008703e900f7ff3b00080040005d
:10085000898048000a0149008b81490004003b005f
:1008600060001000e080180060011900e0811900ac
:100870000358a300090032008d8272008482720046
:10088000610260008301d1000281d3008180d30026
:100890000080d3000603e8001b0037000348a300d4
:1008a00017003a000600e000170034000603e900d4
:1008b0000d00a300000048008180480002014900ab
:1008c000838149000348a3000f003a000600e000be
:1008d000090034000603e900000040008180480060
:1008e000020149008381490001003a000003eb0046
:1008f0000348a300f5ff32006022b8000200370071
:100900008482720061826600f401070003f0a10096
:100910000cf0a70003f0a000eb01370064014700d2
:100920006408e10002003a000df8a300e3013a0078
:100930003200be001201be00e30137001400fa00cd
:10094000889fbe008a9fbe008c9fbe000004be0030
:100950000205be00680047000a90be000890be0075
:10096000480207000070a7000bf0a1000bf8a300dd
:1009700020003a009e0990000e099000fe009000b1
:100980006e0090009e02900034432000848252004a
:10099000cd0132000a003c00b4fc2f000428e10025
:1009a000140034008301d1000281d3008180d30080
:1009b0000080d3008502e800faff3a00c201370048
:1009c000b40020000428e10007003c0000004000c3
:1009d0008180480002014900838149008502e900c5
:1009e000faff3a00b8013700030028000200200097
:1009f000010037006011b8006000b800b201370094
:100a00002800fa00889fbe008a9fbe008c9fbe000f
:100a100003866b00980107006400e1004400320087
:100a20006408e1004a0032006100e1004600320043
:100a30006108e10049003200ec0647006000b800a0
:100a40003d02be003d03be00f48657006011b800b1
:100a50003d04be003d05be007d0320000b003700b5
:100a60000000a0008d06e9001300320004024200dd
:100a700085824a0006034b0087834b00000040003c
:100a80008180480002014900838149000802520028
:100a900089825a000a035b008b835b00f0ff3b00f6
:100aa0000802420089824a000a034b008b834b00f4
:100ab0008d06e900edff3a008482720086827200a2
:100ac000f707b20087827200010032001500200093
:100ad0001e0490003e0b900006035400e63fb00059
:100ae0000368a300070032000000a7000500a00073
:100af0008301d1000281d3008180d3000080d30024
:100b00000603e8008301d1000281d3008180d30075
:100b10000080d3000002eb000482d2006f010700c6
:100b200003f0a1000cf0a70003f0a000660137005d
:100b3000640247006408e100600132003400be0036
:100b40003401be00f6ff37006108e1005b013200ae
:100b50006011b8006000b800f1ff370003ff270004
:100b600002002000fbff3700889fbe00830478004e
:100b70000300e0002c00350003003c000082700000
:100b8000040271002600320036432000c500200018
:100b90008383cf000a0039000541b1008283cf0072
:100ba000070039000541b1008183cf0004003900fe
:100bb0000541b1008083cf00010039000541b1003b
:100bc00085c353006022b800120032000a003b00c7
:100bd00084827200610260008301d1000281d3002f
:100be0008180d3000080d3000603e8008743e8003b
:100bf000f7ff3a00070037000000400081804800fe
:100c000002014900838149000603e9008743e900a6
:100c1000f9ff3a003101070009f0a70003f0a00036
:100c20004f04be000000060060001000e0801800c5
:100c300060011900e0811900d3ff3b00033e2c0046
:100c4000f7ff370007f0a200bffe3700881f7800cb
:100c5000000478005001be004000be0004004000c7
:100c6000858048000601490087814900009cbe003c
:100c70000294be000400e1000588e1000690e10056
:100c80000798e10002003100680044001008e80005
:100c90004f04780000000600f4874700889fbe00dc
:100ca0008a9fbe008c9fbe008e1f78000205be008a
:100cb0000004be00d4b79f00e5b79f00f6b79f00c1
:100cc00087bf9f000000eb00c0b79f00b0b79f0038
:100cd000a0b79f0090b79f0080b79f000d04200031
:100ce000bfb097004fb09700000140000000e00047
:100cf0000f003d004f08de0000007100c0b79f00ec
:100d00009e00070001003d0012002000a100070026
:100d100001003d0012002000a6000700b1000700fe
:100d2000b60007000f004000c8ff07002200370090
:100d30004f08de0000067100ccb79f008f0007004f
:100d400001003d00120020009200070001003d005c
:100d50001200200097000700a20007000fb29700c2
:100d60009fb297002fb39700bfb39700a900070069
:100d70000000520081805a0002015b0083815b0009
:100d800080b79f0091b79f00a2b79f00b3b79f00a5
:100d90000007eb009f0007000020e10001a8e10030
:100da00002b0e10003b8e100010031001e002000a4
:100db0000e005600c0b79f004fb297000400e0003d
:100dc0000700350010002000010020006011b8006d
:100dd00008047000898470000a0571008b85710019
:100de0008d06e900beff3a000400e00003003d006c
:100df000820007000f00400094ff07004fa89700f3
:100e00000000e00004003a000fb497009fb4970080
:100e10002fb59700bfb59700940007004f077800e3
:100e20004f06be004f05be004f04be004f01b1008b
:100e300000000600881f780018002000881f780036
:100e400095ff07008f87e9004f0478000000060037
:100e5000801feb0090ff07008f87e900000006006d
:100e6000889fbe008a9fbe008c1f78006e0007001e
:100e700007003d0073000700e00f5b00e08f5b00a0
:100e800007003d00320007000006eb0004003700b9
:100e90003400070002003d002a0007001c0020006b
:100ea00072000700e3ff07000203be000002be005d
:100eb0000c00e00001003200220007000400be0028
:100ec0000601be004f0678004f05be004f04be006d
:100ed00000000600889fbe008a9fbe008c1f78001d
:100ee0005100070005003d0056000700e00f5b00c1
:100ef000e08f5b0006003d0004003700190007008a
:100f000003003d006000b8006011b8001000070049
:100f100056000700ceff07000203be000002be001d
:100f20000c00e00001003200060007000400be00d3
:100f30000601be004f0678004f05be004f04be00fc
:100f4000000006006000b8006011b8000000370023
:100f50000402500085825800060359008783590017
:100f6000000006000006eb00e00f5200e08f5a0080
:100f7000e00f5b00e08f5b00000006000180400096
:100f800090b79f000001eb008fb097000100e000d8
:100f9000000006000200700090b79f000180400032
:100fa00080b79f000001eb00ffa897000100e00060
:100fb000000006000200700080b79f000180400022
:100fc0006faa9700cf20de0001007000f0af9f00f5
:100fd00004024200250007004f18de0000027200e4
:100fe00000000600e4af9f000804440089844c0020
:100ff0000a054d008b854d00000006003fb29700aa
:10100000cfb297005fb39700efb3970000fe2f00b9
:10101000000006003fb09700cfb097005fb1970087
:10102000efb19700000006000205be000004be00fc
:10103000e00f5000e08f5800e00f5900e08f59009a
:10104000000006006000b8006011b80008045000fd
:10105000898458000a0559008b8559001c0020001e
:10106000e00f5200e08f5a00000006000800be00aa
:101070000a01be0000000600680447000294be009a
:101080000094be00fc0447008694be008494be0019
:10109000090078007b00070008007800790007004d
:1010a00099007800814f70000b003b000800be00e3
:1010b000ce0007004f00b10003003700f3ff270008
:1010c000f2ff2f006110b9004f06be004f05be00b1
:1010d0004f04be000080fa00000006001800200047
:1010e00057002000080453000d003d0006002000ba
:1010f00097fc2f000740e1001e003400848272003c
:10110000610260008301d1000281d3008180d3009d
:101110000080d3000804e800f8ff3a0047002000f0
:101120006104600005047400040464000d003200d2
:1011300061004000e080480060014900e081490012
:1011400003b8a500070032000603e8006538e10097
:1011500004003a008301d1000281d3008180d300d2
:101160000080d300f87f20000830e1000300350044
:10117000080378006000b8006011b8004433dd0057
:10118000f300b2008301730000000600c70ade000e
:10119000f107b200f50fb20008003200e1cf4200c3
:1011a000020032000170a00024000500810f7000d1
:1011b000010032000408050044000500810f7000a2
:1011c00002003a00140005008502e900000040001a
:1011d00081c04800fcff3b000170a0002400050016
:1011e000889fbe008a9fbe008c9fbe000404be0084
:1011f0000605be00809fbe00829fbe0089000700da
:10120000040678000800be000a01be008500070041
:10121000840678004f03be004f02be008d4f76005b
:101220007fb0970013003300f0ff2f008b8f6b000f
:1012300006003b000d0666000c00a7000a00370000
:1012400007f0a600100020000a003700880f5200a7
:10125000898f5a008a0f5b008b8f5b000300390077
:101260001000200001003e000000200007f0a70051
:101270000000ea004f06be004f05be004f04be004e
:1012800000000600800078005002be005003be003f
:101290004439de00f700b200f37f20000301610053
:1012a000090032000218e10016003a0085017200c0
:1012b00083017300838173000008200015003a0049
:1012c0004000200013003700850172008301730085
:1012d0008381730005003a0004a8be0006a8be0082
:1012e000100020000b0037000201e9000402420058
:1012f00085824a0006034b0087834b000748a30002
:10130000f9ff32000740a00004a8be0006a8be00f6
:101310002000200080009800920098000000060045
:1013200081002000618055000b003d000b00200073
:1013300061fe2f000100e1001d0034008281710078
:10134000610164008904d1000884d3000000e80032
:10135000faff3a0071002000610064000300700091
:10136000020060000900320061044400e0844c0087
:101370000988a500050032008b05e8006808e10037
:1013800002003a008904d1000884d300f20f200043
:101390000258e10005003d00c75ddd00f907b2001d
:1013a0008980750008007800000006000bf827000f
:1013b0008b007800000005000003be0073ff0700eb
:1013c0006220e100020032000600be0005000500b8
:1013d000e507b100f107b20004f02300848070003b
:1013e00007f0a70001f0a00024000500e4824000ff
:1013f0001078a30007003200640240001178a300b7
:101400003400be001401be00040032000330a70007
:10141000000006003500be001501be000330a0002c
:101420000000060005ff270005826100070032006a
:101430000428e10001003200240005000600070036
:1014400001003a00440005000408050002000700fe
:10145000f9ff3a00140005006f82610081027000fc
:101460008502710085027200000006000c00fa007f
:10147000889fbe0000047800cfb09700f0ff2700df
:10148000d0bf9f008004eb0099bf9f0088bf9f00e2
:10149000a8bf9f00200c2000b0bf9f00788157009c
:1014a000708057005f0007000fb897000948780068
:1014b0000fb8970008045000080078004f04be00e1
:1014c0000080fa0000000600889fbe008a1f780096
:1014d000804078000004e00021003d008040ea00e8
:1014e000d0c6b30080cf5000090034008104fb0057
:1014f00042062000110009008204d8000001780093
:10150000010078004311dd000a8020001f00370031
:101510000100fb000380200039003700a2002000fa
:10152000110009000200d8000001780001007800d5
:101530004311dd00030141004300dd0003004000d2
:101540003002be002003be0042209000d220900056
:10155000f221900062219000aafb07002e003700c4
:10156000d0c6b30080cf5000230034008104fb00bc
:1015700042062000110009008204d8000001780012
:10158000010078004311dd000a8b20000a014100b0
:10159000a8002000110009000800d8004300dd0069
:1015a0000a00400040229000d0229000602390006a
:1015b000f02390000288900092889000b2899000f9
:1015c000228990008ffb0700801f780001027800bd
:1015d000110009008804d8000102fd004f007800c6
:1015e0000402fb004322dd000a0242005403be0055
:1015f0004402be00d8ff37000100fb00038b20002f
:10160000eacf5000c5ff3c004300dd00030040006e
:101610005001be004000be004f0578004f04be00e0
:10162000000006004f03b000889fbe008a9fbe00e6
:101630008c9fbe008e1f7800e0b79f00f1b79f001f
:1016400082bf9f000000eb00b0b79f006704370027
:101650008001eb0050c2b30080cf5000090032007f
:101660000100fb00efb097006d040700e10f4000a0
:101670005e043200bfb097008100e800b1b79f0060
:101680005a0437007fb1970092407800d0c2b3006f
:1016900080cf50000c00320007003c006d4050002d
:1016a00080cf50000d0032006b40400080cf5000d2
:1016b00019003a000e00370000c3b30080cf50007d
:1016c00015003a000f0037000330a0007fb29700ea
:1016d0000402e800f4b79f00eaff37000300a0000f
:1016e000ffb297008502e800f5b79f00e5ff3700dd
:1016f0000310a0007fb697000c06e800fcb79f001f
:10170000e0ff37000320a0007fb097000000e80052
:10171000f0b79f00dbff37000318a3000100320081
:101720000300a1000338a300010032000320a10040
:101730000100fb0002fd2f0002004000e90f5000f5
:1017400010003e008000eb00c1a79f00020278005d
:101750004fa197006a10b900ffb297001501fb0076
:101760000001410004014100c2a79f005500fb0099
:10177000f5b79f0004004000e90f50000d003e0047
:10178000f3ff37000006eb00cca79f00a0c2b30018
:1017900080cf500007003a000fb89700c0007800d3
:1017a00080bf9f00c1a79f007fb197000201e800a2
:1017b000f2b79f00e0c2b3007fb29700944f1000d1
:1017c00021003a00830678000de0a0008400e800c4
:1017d00064405000914f100004003200f1b79f00a8
:1017e0008002eb00c5b79f00100037000fbe9700c6
:1017f0004c0078008cbf9f00c0b79f00ffb09700df
:101800008180e800f1b79f00130037004fb29700c6
:101810006a20b9000000410003004000c0b79f00eb
:10182000ffb297008502e800f5b79f007fb69700ea
:101830001c01fb0003fd2f0003004100e90f5000d5
:10184000f2ff360004003700830678000dc0a000c8
:101850000000eb00c0b79f007fb19700b240780056
:10186000f2b79f0081c79f00c0c6b30080cf500071
:101870001400320009003c006940500080cf500045
:10188000650032006340400080cf500013003200fa
:101890000104e000db0332007e00370050c7b300d4
:1018a00080cf50007f0032006340400080cf500066
:1018b0000d0032006540500080cf500075003a00a6
:1018c0000c003700000028000d48a30001003a007a
:1018d0000001200080867600dfff37000d077800ca
:1018e0000ea0a000710037000d0778000e70a00058
:1018f0006e0037008fb997004300780083bf9f00c8
:10190000000478000000e00001003a0068a2200016
:101910008004eb00010037008104e80089007800b2
:10192000088044001004e000fbff3a004fb297002b
:101930000400e00003003200890f52000100310072
:10194000840478000007eb00cfa29700898f520033
:1019500001003600098752004368de00e10660009e
:1019600019003a000d06780009003700efb0970023
:1019700000022000aa030700e10f4000030032002c
:101980003fb097000000e800b0b79f000c06e800e9
:101990008e0f5600f5ff3a000087eb000a00370073
:1019a000880078003100fb0001047800efb0970058
:1019b0009b030700e10f400003003200bfb0970017
:1019c0008100e800b1b79f000900e90080047800b9
:1019d000e10f4000f2ff3a000006eb000d00e000ce
:1019e0000a003a0081033700efb0970000022000a0
:1019f0008b030700e10f4000030032003fb1970066
:101a00000201e800b2b79f000c06e8008e0f5600f6
:101a1000f5ff3a00750337008fb99700430078004f
:101a200083bf9f00cf80de00010178008201780033
:101a30000205be000004be000203be000002be009c
:101a40004822de00482edd000402760084c79f0095
:101a50000d48a3000a0032000404e0000800320030
:101a6000e14f42000600320011fc2f0001804700c8
:101a70000448780018409800290020000200370030
:101a800090c79f001900200012fc2f00028447001d
:101a9000a6ff370003fc2f00038447001900200035
:101aa000a2ff37000d0778000e0cb3000070200075
:101ab00000026700270232000ec8a30002003200b5
:101ac00064002000c4b79f000e48a3000500320048
:101ad0000fba97004401be004400be0084bf9f00bf
:101ae000040037008fba97004500be0085bf9f00f5
:101af000b9fa0700f0af9f0081b79f0092b79f002f
:101b0000a3b79f006022b8006033b8007fa8970099
:101b10008fb097001fb19700afb19700cdfa0700c3
:101b20000000e0000a003d007fa897008fb09700fa
:101b30001fb19700afb1970003f0a200f0af9f0074
:101b400081b79f0092b79f00a3b79f003e00b300ec
:101b50000000eb00a0a79f006022b8006033b8002f
:101b60007fa897008fb097001fb19700afb1970083
:101b7000bdfa07000000e000340032007fa89700a3
:101b80008fb097001fb19700afb19700bbfa070065
:101b900043fc2f0003814700e3fa07002fa09700c2
:101ba0000000e9006300b900a20020001100090054
:101bb0000200d8008000fd00a1a79f000100e00006
:101bc00002003d000100e900a0a79f002fa497009c
:101bd0000840ea003cfe07007faa97008fb29700fa
:101be0001fb39700afb3970006fa0700b0af9f008e
:101bf000c1af9f00d2af9f00e3af9f006022b8004b
:101c00000600200007ff230092fa07000000e00012
:101c100002003d000800e9000b0037006022b80018
:101c200006002000470224003fa89700cfa8970095
:101c30005fa99700efa99700befa07000000e00037
:101c4000020035000800e800a0a79f004fb29700ef
:101c5000f80f520057003c00d0c6b300804f52002e
:101c6000290036000485fb0042062000110009000f
:101c70000285d80000017800010478004311dd00de
:101c80000b8020000b0141006022b80006002000fc
:101c900007fe23000288900092889000b28990008d
:101ca00022899000d7f90700a9002000809fbe007c
:101cb000110009000984d800000478004f00be001c
:101cc0004344dd000b04440048229000d8229000d9
:101cd00068239000f8239000caf90700801f78005d
:101ce00001027800110009000985d8000102fd00f9
:101cf0004f0078004322dd000b0242005403be0077
:101d00004402be001f0037000480fb000980200051
:101d1000ea4f520014003600a20020001100090012
:101d20000280d80000017800010478004311dd0032
:101d3000090141006022b8000600200007fe2300d0
:101d400042209000d2209000f22190006221900069
:101d5000acf907004344dd00090444003802be002a
:101d60002803be00070037004300dd0009004000e3
:101d70006022b8000600200007fe23005001be00cc
:101d80004000be009ff907000002be000203be0033
:101d90007fa897008fb097001fb19700afb1970051
:101da00069fa0700f0af9f0081b79f0092b79f00cc
:101db000a3b79f002fa49700e90f540015003c0023
:101dc0006022b8006033b8007fa897008fb09700fa
:101dd0001fb19700afb1970023fa07000000e000a1
:101de000320032007fa897008fb097001fb1970094
:101df000afb19700d1fa0700e00f5000e08f580014
:101e0000e00f5900e08f590028003a00e10f54001c
:101e1000260034000400200005002e00b6e0220059
:101e2000170124003fa89700cfa897005fa997004b
:101e3000efa9970007fa07000000e00002003d004c
:101e4000730054000100370072005400a0a79f00e7
:101e50004fc097009cfd0700b0af9f00c1af9f002f
:101e6000d2af9f00e3af9f000002be000203be009e
:101e70007fa897008fb097001fb19700afb1970070
:101e8000dffa0700adfa07000205be000004be003d
:101e90006000b8006011b800d0a79f00e1a79f00c4
:101ea000f2a79f0083af9f002e0037007fa8970006
:101eb0008fb097001fb19700afb197009ffa07004e
:101ec0000205be000004be00e00f5000e08f580085
:101ed000e00f5900e08f59000200350022fb070097
:101ee0001300370010002000010020006011b8002e
:101ef00008006000898060000a0161008b81610038
:101f00008b03d1000a83d3008982d3000882d300d7
:101f100000007200818072000201730083817300ef
:101f200011fb07000002be000203be0006fa070014
:101f30000002be000203be007fa897008fb097008a
:101f40001fb19700afb197003efb0700d0a79f00dd
:101f5000e1a79f00f2a79f0083af9f000000eb0066
:101f6000a0a79f0014c0b300059620000b00370007
:101f70000400fb004300dd00050040005001be00ee
:101f80004000be000040e10001c8e10002d0e100d5
:101f900003d8e100030039000442e800f44f520086
:101fa000f3ff3a0084c79f000400fb00cfb0970006
:101fb00000804000afa09700010040004fa19700b3
:101fc00080065100cfb197000300e000010032000d
:101fd0008d06e90063006700010032008d06e9000c
:101fe0000e28a30026003200e10067000e18a300af
:101ff0000c003200d00220000100e00001003a0095
:102000000080e900efb0970005020700e10f4000f3
:10201000180032003fb297000402e800b4b79f00f6
:10202000140037000100e00012003200efb097000a
:1020300000022000fa010700e10f40000d0032000d
:10204000bfb297008502e800b5b79f0009003700ce
:10205000efb0970000032000f1010700e10f4000fe
:10206000030032003fb697000c06e800bcb79f00a3
:102070008d06e9000d00e000f5ff3c003d00370053
:102080000e38a3000a0032000b003700efb09700b3
:1020900000022000e2010700e10f400003003200cf
:1020a0003fb097000000e800b0b79f008d06e90040
:1020b0000d00e000f5ff3c00e10067000e18a300f2
:1020c0000c003200d00220000100e00001003a00c4
:1020d0000080e900efb09700d1010700e10f400058
:1020e00024003200bfb097008100e800b1b79f0024
:1020f000200037000100e0001e003200efb0970022
:1021000000022000c6010700e10f40001900320064
:102110003fb197000201e800b2b79f0015003700f9
:102120000000fb004300dd0001962000010040009c
:102130003002be002003be000800be000a01be003f
:102140003cfb0700a4002000050020006033b8001d
:102150003ffb07000003b000efb09700b00107009d
:10216000e10f400003003200bfb197008301e80097
:10217000b3b79f000fc297000440e90080c79f00db
:10218000e14f4000e6ff3a000b003700efb0970048
:1021900000032000a2010700e10f4000030032000d
:1021a000bfb297008502e800b5b79f002fa0970047
:1021b0000000e900a0a79f002fa097000000e0000a
:1021c000f2ff3c004fb6970020c1b300f20f56005b
:1021d00001003c000fe8970080c79f008fc0970068
:1021e0000100fb004fb197000000510090af9f002d
:1021f0000104e00008003200efb09700e002200088
:1022000087010700e10f400003003200bfb19700d3
:102210008301e800b3b79f000fc09700aafc070036
:102220000002be000203be005fa09700efa097006f
:102230007fa197008fa9970072f80700bff90700e8
:102240001e0037000000fb004300dd000c9620005c
:102250000c0040003002be002003be000800be009b
:102260000a01be00f3fa0700a400200005002000c8
:102270006033b800f6fa07000003b000efb0970033
:1022800067010700e10f4000030032003fb29700f2
:102290000402e800b4b79f008fc297000500fb005e
:1022a0004300dd000c0040003002be002003be00f1
:1022b0000800be000a01be00e5fa07000205be00e4
:1022c0000004be000fc697000c40e90080c79f00c5
:1022d000e14f4000dbff3a000006eb000900370049
:1022e000efb09700000320004d010700e10f400010
:1022f000030032003fb097000000e800b0b79f0035
:102300000c06e8009fa89700810f5600f4ff3a00e2
:102310000e38a300350132000d00e0003301340017
:102320000006eb00efb09700000220003c01070020
:10233000e10f4000030032003fb197000201e800c6
:10234000b2b79f000c06e8008d0f5600270132003f
:10235000f4ff37000e00e00005003d008fb9970044
:102360004305be004304be0083bf9f001100370039
:102370000e48a300080032008fba97004500be0047
:1023800085bf9f0004017800840178000205be002b
:102390000004be00070037000fbe97004c00780015
:1023a0008cbf9f0000047800090020000a00200074
:1023b0000b0020004fb097000000e00007003a003b
:1023c000e00f5400e08f5c00e00f5d00e08f5d00e7
:1023d00002003a0011002000c1b79f000e017800f2
:1023e000020cb200d2b79f0000082000800f5100fd
:1023f00014003200000c2000800f510025003a002c
:1024000014c0b300059620000b0037000400fb0049
:102410004300dd00050040005001be004000be004a
:102420000040e10001c8e10002d0e10003d8e10072
:10243000170039000442e800f44f5200f3ff3a005d
:102440001300370000012000010020006011b800d7
:1024500014c0b3000040e10001c8e10002d0e10077
:1024600003d8e1000a003900450020000000d00038
:102470008180d2000281d2008381d2008502e900ee
:10248000faff3a000442e800f04f5200f1ff3a0030
:1024900084c79f000fc697000c00fb00cfb09700c9
:1024a000810f500002003d0081c79f0004003700eb
:1024b0004fb19700800f510001003d00c0b79f0051
:1024c000cfa197000300e000040032006300670022
:1024d000020032008301e900c3a79f000ee8a300b9
:1024e0000b0032004fa29700cfb29700850f520029
:1024f00003003c000006eb00cca79f00040037005f
:102500004fa09700cfb0970001005000c0a79f00d8
:102510000fc197000200fb008001eb00b3a79f00f2
:102520004fa29700800f52000200340000005200ba
:10253000b0a79f000e28a30034003200e10067001e
:102540000e18a3000c003200d00220000100e000b1
:1025500001003a000080e900efb09700b0000700ea
:10256000e10f40000e003200bfb297008502e80084
:10257000b5b79f000a0037000100e00008003200f4
:10258000efb0970000022000a5000700e10f400017
:10259000030032003fb697000c06e800bcb79f006e
:1025a0003fa097000000e0000f0032000006eb00a3
:1025b000efb097000003200099000700e10f4000f2
:1025c00003003200bfb097008100e800b1b79f0060
:1025d0000c06e8003fa19700820f5600f4ff3a0076
:1025e0008001eb00b3a79f004fb297004320dd00ae
:1025f00081952000810640004220dd0064065000e5
:102600008002eb00a5af9f00620037003fa6970055
:102610000c00e00011003200680067000f003a0073
:1026200000067800efb09700000220007c00070051
:10263000e10f4000030032003fb097000000e800c7
:10264000b0b79f000c06e800bfa09700810f5600ae
:10265000f4ff3a000001eb00b2a79f00e100670021
:102660000e18a3000c003200d00220000100e00090
:1026700001003a000080e900efb097006800070011
:10268000e10f4000d8ff3200bfb197008301e8009e
:10269000b3b79f00d4ff37000100e000d2ff320043
:1026a000efb09700000220005d000700e10f40003e
:1026b000cdff32003fb297000402e800b4b79f009c
:1026c000c9ff370000082000dfb29700808f52005a
:1026d00010003200000c2000808f52001f003a00d2
:1026e0003d02be002d03be000800be000a01be0070
:1026f000d0f90700a4002000050020006033b800d6
:10270000d3f9070004c3b3000442400084c79f000c
:102710001200370014002000050020006033b800cc
:102720000c0078000000e900050033000402d0002e
:102730008582d2000683d2008783d200f9ff37005a
:102740000800be000a01be00baf907006f00600071
:10275000d4a220006442780084c79f008fc09700f5
:102760000100fb00efb097002d000700e10f4000d3
:10277000030032003fb197000201e800b2b79f00aa
:10278000afa997008301e800a3af9f00e886560039
:10279000640656002faa9700cfb29700850f52000b
:1027a000c8ff3a000e38a300100032003fa6970081
:1027b0000c00e0000d0034000006eb00efb09700c5
:1027c0000002200016000700e10f40000300320065
:1027d0003fb097000000e800b0b79f000c06e8008b
:1027e000bfa09700810f5600f4ff3a007fb1970019
:1027f000b2407800f2b79f0081c79f000104e0005b
:1028000093fb3a003fb097004f0778004f06be0099
:102810004f05be004f04be004f03b100000006008c
:10282000889fbe000001780001047800b10090008c
:102830000118a3003d0032000198a30003003a00f4
:10284000180090000000e00038003a000190a0005d
:102850003104980082047800f90fb200180090004b
:102860000000e00002003a0028009000000c780010
:10287000ea8f540006003a00380090000078a30068
:1028800003003a0088007800d0002000e4ff070031
:102890009800900058009000808f50000b0032008c
:1028a0000100e8001004980018007800095878002a
:1028b000000c780011c0b30020a42000014878006b
:1028c000ea8f5400060032001900370088007800b3
:1028d00009407800190007008004780014003700d0
:1028e000380090000088a300110032001801900009
:1028f000a8009000480090008bf607009800900018
:10290000810f500004003200380090000003b30033
:10291000300498008084eb000000eb001004980065
:1029200028009000000c7800010037008084eb0044
:10293000090078004f04be00000006000200fa0003
:10294000889fbe00a0ff9f0001047800b1009000a6
:10295000810478000904b200020032000000fb008c
:10296000360037000118a30005003a000103b30048
:1029700031049800190498000080eb002f00370004
:10298000580090000000e00006003a004800900067
:1029900012002000e680570063f607001904980033
:1029a00024003700280090000000e00008003a00f2
:1029b000e0a3200020049800000c780020002000f4
:1029c00050049800100498000130a00031049800d1
:1029d00018019000a80090004800900052f60700ef
:1029e00028009000000c78000080eb001004980094
:1029f00018007800aff8970001587800000c7800b4
:102a00002ff89700ea4f50000a003a003800900073
:102a10000088a3000700320018019000a800900071
:102a20004800900040f6070019049800a8009000a4
:102a3000010c7800aff897000100fb004f04be00c6
:082a40000080fa00000006000e
:020000040000fa
:1000080090010000900100009001000090010000a4
:100018009001000090010000900100009001000094
:100028009001000090010000900100009001000084
:100038009001000090010000900100009001000074
:100048009001000090010000900100009001000064
:100058009001000090010000900100009001000054
:100068009001000090010000900100009001000044
:100078009001000090010000900100009001000034
:100088009001000090010000900100009001000024
:100098009001000090010000900100009001000014
:1000a8009001000090010000900100009001000004
:1000b80090010000900100009001000090010000f4
:1000c80090010000900100009001000090010000e4
:1000d80090010000900100009001000090010000d4
:1000e80090010000900100009001000090010000c4
:0800f8009001000090010000de
:020000040000fa
:1001080090010000900100009001000090010000a3
:100118009001000090010000900100009001000093
:100128009001000090010000900100009001000083
:100138009001000090010000900100009001000073
:100148009001000090010000900100009001000063
:100158009001000090010000900100009001000053
:100168009001000090010000900100009001000043
:100178009001000090010000900100009001000033
:100188009001000090010000900100009001000023
:100198009001000090010000900100009001000013
:1001a8009001000090010000900100009001000003
:1001b80090010000900100009001000090010000f3
:1001c80090010000900100009001000090010000e3
:1001d80090010000900100009001000090010000d3
:1001e80090010000900100009001000090010000c3
:0801f8009001000090010000dd
:020000040000fa
:102a4800300000003100000032000000252e000098
:0c2a580032660000204500007500000000
:020000040000fa
:102a64000000fa00c6c2a900cde2a900d902a9005b
:102a74007303070000c3b300060107006c030700db
:102a840000c3b300030107006503070000c3b300dc
:102a9400000107006500070000c2b300fd00070045
:102aa4006200070080c2b3007f0007005f000700d8
:102ab40080c0b3007c0007005c00070010c0b300b6
:102ac400790007005900070060c0b30076000700d2
:102ad4005600070055000700e0c0b300720007006d
:102ae400520007000080fa00000006000000fa000f
:102af40010c0b3006c0007004c0007000080fa000f
:102b0400000006000000fa0020c0b30066000700c1
:102b1400460007000080fa00000006000000fa00ea
:102b240000c8b30060000700400007000080fa00fe
:102b3400000006000200fa00000f780005003700cc
:102b44003a0007001e0078001040780016010700c4
:102b54001e0fe8001e007800104078000004e0001a
:102b6400f7ff3a000080fa00000006000000fa00b7
:102b740000c1b3004c0007002c0007000080fa00dd
:102b8400000006000000fa0040c1b3004600070040
:102b9400260007000080fa00000006000000fa008a
:102ba40000ccb30040000700200007000080fa00ba
:102bb400000006000000fa0080c1b3003a000700dc
:102bc4001a0007000080fa00000006000000fa0066
:102bd400e0c1b30034000700140007000080fa00cd
:102be400000006000000fa00c0c0b3002e00070079
:102bf4000e0007000080fa00000006000000fa0042
:102c0400e0c0b30028000700080007000080fa00b5
:102c1400000006000000fa00f0c0b3002200070024
:102c2400020007000080fa00000006000200fa001b
:102c340010c0b300004f7800d262a800d242a800ae
:102c4400d222a800d202a800f1020700d1e2a90012
:102c5400dd02a800ee020700ed0207000d003700b8
:102c6400cac2a800ea020700e9020700d4c2bf00f2
:102c74000080fb004300de0061406000004f7800ec
:102c8400e3020700e2020700cac2a900e00207004b
:102c9400df0207001e04e000f1ff3a00dd02a90094
:102ca4000080fa00000006000200fa00004f7800dd
:102cb400d1e2a900dd02a900d262a900d242a90092
:102cc400d222a900d202a9009e00fb000008200025
:102cd400008060004780de00614060006140600069
:102ce4004301dd00612d20009140780070cfb300d6
:102cf40000c0600002407000d6e2b7009e00fb00f6
:102d040000042000008060004680de006140600016
:102d1400614060004201dd00612d20009140780097
:102d2400b0cfb30000c0600002407000d6e2b7002c
:102d34009e00fb0000022000008060004580de0051
:102d4400614060006140600000414000612d20004e
:102d540091407800d0cfb30000c060000240700002
:102d6400d6e2b7001e00fb00700060004480de0065
:102d74006140600061416000612d20009140780055
:102d8400e0cfb30000c0600002407000d6e2b7009c
:102d94009f020700cac2a8009d020700cac2a90078
:102da4009b020700d1e2a900dd02a9001e00fb007e
:102db400680060004380de006140600061406000a4
:102dc4004301dd00612d20009140780070cfb300f5
:102dd40000c0600002407000d6e2b7001e00fb0095
:102de400640060004280de00614060006140600079
:102df4004201dd00612d200091407800b0cfb30086
:102e040000c0600002407000d6e2b7001e00fb0064
:102e1400620060000080d100614060006140600099
:102e240000414000612d200091407800d0cfb300d4
:102e340000c0600002407000d6e2b7001e40780077
:102e44006140600061406000614060006141600079
:102e5400612d200091407800e0cfb30000c06000f5
:102e640002407000d6e2b70069020700cac2a80097
:102e740067020700cac2a90065020700d262a8005f
:102e8400d242a800d222a800d202a8000080fa00f0
:102e9400000006000200fa00004f7800d1e2a90009
:102ea400dd02a900d262a900d242a900d222a9005f
:102eb400d202a9009e00fb000008200000806000f0
:102ec4004780de0061406000614060004301dd0036
:102ed400612d20009140780070cfb30000c06000e5
:102ee40002407000d6e2b7009e00fb000004200000
:102ef400008060004680de00614060006140600048
:102f04004201dd00612d200091407800b0cfb30074
:102f140000c0600002407000d6e2b7009e00fb00d3
:102f240000022000008060004580de0061406000f7
:102f34006140600000414000612d20009140780014
:102f4400d0cfb30000c0600002407000d6e2b700ea
:102f54001e00fb00700060004480de0061406000e1
:102f640061416000612d200091407800e0cfb30002
:102f740000c0600002407000d6e2b70024020700df
:102f8400cac2a80022020700cac2a9002002070080
:102f9400d262a800d242a800d222a800d202a8007d
:102fa4000080fa00000006000200fa00004f7800da
:102fb400d1e2a800dd02a900d262a900d242a90090
:102fc400d222a900d202a9009e00fb000008200022
:102fd400008060004780de00614060006140600066
:102fe4004301dd00612d20009140780070cfb300d3
:102ff40000c0600002407000d6e2b7009e00fb00f3
:1030040000042000008060004680de006140600013
:10301400614060004201dd00612d20009140780094
:10302400b0cfb30000c0600002407000d6e2b70029
:103034009e00fb0000022000008060004580de004e
:10304400614060006140600000414000612d20004b
:1030540091407800d0cfb30000c0600002407000ff
:10306400d6e2b7001e00fb00700060004480de0062
:103074006140600061416000612d20009140780052
:10308400e0cfb30000c0600002407000d6e2b70099
:10309400df010700cac2a800dd010700cac2a900f7
:1030a400db010700d1e2a800dd02a9001e00fb003d
:1030b400680060004380de006140600061406000a1
:1030c4004301dd00612d20009140780070cfb300f2
:1030d40000c0600002407000d6e2b7001e00fb0092
:1030e400640060004280de00614060006140600076
:1030f4004201dd00612d200091407800b0cfb30083
:1031040000c0600002407000d6e2b7001e00fb0061
:10311400620060000080d100614060006140600096
:1031240000414000612d200091407800d0cfb300d1
:1031340000c0600002407000d6e2b7001e40780074
:103144006140600061406000614060006141600076
:10315400612d200091407800e0cfb30000c06000f2
:1031640002407000d6e2b700a9010700cac2a80055
:10317400a7010700cac2a900a5010700d262a800de
:10318400d242a800d222a800d202a800dd02a900df
:0c319400d1e2a9000080fa000000060053
:020000040000fa
:1031a00060090000a0000000020000000100000013
:1031b0000000000000000a00000000000000000005
:1031c000006400000000000000000000e8030000b0
:1031d00000000000000010002700000000000000b8
:1031e00000a08600010000000000000040420f0027
:1031f0000000000000008000969800000000000021
:103200000000e100f50500000000000000ca9a007f
:103210003b00000000000000e40b5400020000002e
:103220000000e80076481700000000000010a5002c
:10323000d4e8000000000000a0724e001809000051
:10324000000040007a10f3005a0000000080c60021
:10325000a47e8d000300000000c16f00f2862300f1
:10326000000000008a5d78004563010000006400f2
:10327000a7b3b600e00d000000e889000423c700f2
:103280008a000000260a000018000000020000006a
:10329000286e75006c6c2900003031003233340028
:1032a00035363700383961006263640065660000b6
:1032b00000080000600100000200000000000000a3
:1032c00000000000f03f00000000a0009999b90044
:1032d0003f0000000040e1007a843f000000000051
:1032e000e04d6200503f00000000e000e2361a00ae
:1032f0003f0000000080b500f8e43e000000000040
:10330000a0f7c600b03e00000000a000f2d77a008f
:103310003e00000000e08e0079453e000000000005
:10332000e00b2e00113e00000000e000df7cdb001f
:103330003d0000000000a1009cc73b000000000011
:10334000004c4800b439000000000000206ca100cf
:103350003700000000000000000000000000000036
:10336000000000000000000000000000000000005d
:10337000000000000000000000000000000000004d
:10338000000000000000000000000000000000003d
:10339000000000000000000000000000000000002d
:1033a0000000000000000000000000000000f0002d
:1033b0003f0000000000000000244000000000006a
:1033c00000000000594000000000000000408f0095
:1033d000400000000000000088c340000000000022
:1033e00000006a00f84000000000000080842e0009
:1033f000410000000000d000126341000000000006
:103400000084d700974100000000000065cdcd008a
:103410004100000000205f00a00242000000000008
:10342000801daf001544000000004000593e2900f7
:10343000460000000000000000f07f0000000000d7
:1034400000000000f07f0000000000000000f0001d
:103450007f0000000000000000f07f00000000007e
:1034600000000000f07f0000000000000000f000fd
:103470007f0000000000000000f07f00000000005e
:1034800000000000f07f0000000000000000f000dd
:103490007f000000000a000026000000020000007b
:1034a000020a40000a000000400a09000000000073
:1034b00002003e000a0000003e0a06000201000071
:1034c00000000000000000000000060002020000f2
:1034d000000000003e0a000006000000000000009e
:1034e000440a000002000000020000000100000089
:0434f00000000000d8
:020000040000fa
:1034f4000000fa00c602a900c622a900c642a9001b
:10350400d202a800d222a800d242a800d262a80007
:103514000080fa00000006000200fa00d202a800af
:10352400d222a800d242a800d262a800c602a900f2
:10353400c622a800c642a800ca02a900ca22a8003e
:10354400ca42a800ae000700d4c2bf0061406000b8
:103554000004e00003003a000000eb00000f7800d4
:103564005a003700d4c2bf00624060000004e0008b
:1035740003003a0030002000000f780053003700a9
:10358400d4c2bf00644060000004e00003003a00bd
:1035940060002000000f78004c003700d4c2bf0048
:1035a400684060000004e00003003a00900020003e
:1035b400000f780045003700c602a800c622a90003
:1035c400c642a800ca02a800ca22a900ca42a8008a
:1035d4008b000700d4c2bf00614060000004e0001b
:1035e40003003a0010002000000f78003700370075
:1035f400d4c2bf00624060000004e00003003a004f
:1036040040002000000f780030003700d4c2bf0013
:10361400644060000004e00003003a0070002000f1
:10362400000f780029003700d4c2bf006840600052
:103634000004e00003003a00a0002000000f78001e
:1036440022003700c602a800c622a800c642a9006c
:10365400ca02a800ca22a800ca42a900680007003a
:10366400d4c2bf00614060000004e00003003a00df
:1036740020002000000f780014003700d4c2bf00df
:10368400624060000004e00003003a0050002000a3
:10369400000f78000d003700d4c2bf006440600002
:1036a4000004e00003003a0080002000000f7800ce
:1036b40006003700d4c2bf00684060000004e00088
:1036c4009aff3a00b0002000000f78001e00780036
:1036d4000080fa00000006001a00fa00e0fc07006f
:1036e40083ff07008cff07000080fb006101b90025
:1036f400320f9800430f9800b00020000100200012
:103704003e099000ce099000800f5100818f59002e
:1037140031003e003e089000ce0890000060010099
:103724000b0037000d0037000f0037001100370081
:10373400120037001300370014003700150037005b
:10374400160037002100370023003700210037001e
:1037540040522900f7fc07001f003700605229007f
:10376400f4fc07001c00370080522900f1fc07001c
:1037740019003700e3fc070017003700fbfc0700c3
:1037840015003700fffc07001300370009fd070090
:10379400110037000dfd07000f0037000e01e8008f
:1037a400009e2e00612f2400809fbe00a05229009d
:1037b400801f7800020078002bf70700e687570087
:1037c4000e00e800dbfc070003003700f3fc0700f1
:1037d40001003700c5fc07000040eb00004f7800f3
:1037e40002003700120007001e4fe800b0c3b30008
:1037f4009e4f1000fbff3400baff370000000600a4
:10380400310620008100e900feff3a0000000600b6
:10381400610c20008100e900feff3a000000060070
:10382400215c20008100e900feff3a000000060050
:1038340001002c008100e900feff3a0000000600b0
:1038440001002c008100e900feff3a0001002c0079
:103854008100e900feff3a0001002c008100e9002c
:08386400feff3a00000006001f
:00000001FF
