:020000040000fa
:080000000001040000000000f3
:020000040000fa
:100200004f9c20000eff20000e018800000000001f
:100210000c000700803122000100200011000700bf
:10022000000020000000e000020032000000020098
:100230000000000078100200000000000040da001a
:100240000000fe004440a900a00520000000e000de
:100250000300320000002000a00188004440a800f4
:100260000000060091018800800078000000eb008b
:1002700015003700e280400032a0b4009101ba00be
:10028000e280400032a0b4009102ba00e280400057
:1002900032a0b4000002eb00472bde00f507b200ed
:1002a000602ce10004003a000059eb008301e900f2
:1002b000fdff3e00040037006128e100010032002c
:1002c0000082eb00040007001101ba000200e00008
:1002d000e8ff3a00000006003159ba008301e90046
:1002e0000c0032002159ba008301e90008003200f5
:1002f0000400e00003003a00e280400032a0b400b5
:10030000f5ff370011d9ba008301e900faff3a007e
:100310008100e800e180400032a0b4000000060047
:1003200000000000000000000000000000000000cd
:1003300000000000000000000040da000000fe00a5
:100340000a00fa0080017800e20f500028003e0009
:10035000104e8000e10f500008003200e021200024
:100360000000e0000500320064212000852120000b
:10037000a62120008001780004003700c42020005e
:10038000e520200006212000432120001440900099
:100390000004e000040035008009eb0014409000e8
:1003a0000074a00010429800154090000028a3009f
:1003b00003003a00154090000024a00090429800ed
:1003c0008001eb0007003700154090000008a300f3
:1003d000fdff320063c078000000fb00000b7800d6
:1003e0008301e800828f5100f7ff3a0008003700d0
:1003f00030002000b0bf9f00c3bf9f00d1bf9f004f
:10040000e2bf9f006a80570000c0da006fb9970012
:10041000020078000080fa0000000600881f7800c3
:10042000000478005001be004000be0004004000ff
:10043000858048000601490087814900009cbe0074
:100440000294be000400e1000588e1000690e1008e
:100450000798e10002003100680044001008e8003d
:100460004f04780000000600f4874700889fbe0014
:100470008a9fbe008c9fbe008e1f78000205be00c2
:100480000004be00d4b79f00e5b79f00f6b79f00f9
:1004900087bf9f000000eb00c0b79f00b0b79f0070
:1004a000a0b79f0090b79f0080b79f000d04200069
:1004b000bfb097004fb09700000140000000e0007f
:1004c0000f003d004f08de0000007100c0b79f0024
:1004d0009e00070001003d0012002000a10007005f
:1004e00001003d0012002000a6000700b100070037
:1004f000b60007000f004000c8ff070022003700c9
:100500004f08de0000067100ccb79f008f00070087
:1005100001003d00120020009200070001003d0094
:100520001200200097000700a20007000fb29700fa
:100530009fb297002fb39700bfb39700a9000700a1
:100540000000520081805a0002015b0083815b0041
:1005500080b79f0091b79f00a2b79f00b3b79f00dd
:100560000007eb009f0007000020e10001a8e10068
:1005700002b0e10003b8e100010031001e002000dc
:100580000e005600c0b79f004fb297000400e00075
:100590000700350010002000010020006011b800a5
:1005a00008047000898470000a0571008b85710051
:1005b0008d06e900beff3a000400e00003003d00a4
:1005c000820007000f00400094ff07004fa897002b
:1005d0000000e00004003a000fb497009fb49700b9
:1005e0002fb59700bfb59700940007004f0778001c
:1005f0004f06be004f05be004f04be004f01b100c4
:1006000000000600881f780018002000881f78006e
:1006100095ff07008f87e9004f047800000006006f
:10062000801feb0090ff07008f87e90000000600a5
:10063000889fbe008a9fbe008c1f78006e00070056
:1006400007003d0073000700e00f5b00e08f5b00d8
:1006500007003d00320007000006eb0004003700f1
:100660003400070002003d002a0007001c002000a3
:1006700072000700e3ff07000203be000002be0095
:100680000c00e00001003200220007000400be0060
:100690000601be004f0678004f05be004f04be00a5
:1006a00000000600889fbe008a9fbe008c1f780055
:1006b0005100070005003d0056000700e00f5b00f9
:1006c000e08f5b0006003d000400370019000700c2
:1006d00003003d006000b8006011b8001000070082
:1006e00056000700ceff07000203be000002be0056
:1006f0000c00e00001003200060007000400be000c
:100700000601be004f0678004f05be004f04be0034
:10071000000006006000b8006011b800000037005b
:10072000040250008582580006035900878359004f
:10073000000006000006eb00e00f5200e08f5a00b8
:10074000e00f5b00e08f5b000000060001804000ce
:1007500090b79f000001eb008fb097000100e00010
:10076000000006000200700090b79f00018040006a
:1007700080b79f000001eb00ffa897000100e00098
:10078000000006000200700080b79f00018040005a
:100790006faa9700cf20de0001007000f0af9f002d
:1007a00004024200250007004f18de00000272001c
:1007b00000000600e4af9f000804440089844c0058
:1007c0000a054d008b854d00000006003fb29700e2
:1007d000cfb297005fb39700efb3970000fe2f00f2
:1007e000000006003fb09700cfb097005fb19700c0
:1007f000efb19700000006000205be000004be0035
:10080000e00f5000e08f5800e00f5900e08f5900d2
:10081000000006006000b8006011b8000804500035
:10082000898458000a0559008b8559001c00200056
:10083000e00f5200e08f5a00000006000800be00e2
:100840000a01be00000006000cc2bf006640600046
:10085000e64f500002003a009010800000000600b1
:1008600090108000f00fb200000006000ec2bf0022
:1008700061006000000006008520a9008540a900f5
:10088000e7416000c419dd00810920009140780033
:10089000f2c8b30082c0600083c070008000fd0019
:1008a00098e0b7008000fd00800178000307b200e7
:1008b000c419de00910920009140780082cfb30076
:1008c00082c0600083c070008000fd0099e0b70026
:1008d0008000fd00680160004311de00024141001c
:1008e000d1082000914078000114a10082c070005e
:1008f0008000fd008de0b7008000fd000008b20020
:100900004700de004200dd00d10820009140780061
:100910000124a10080c07000010078008de0b700c4
:1009200000000600a2108800601088007110880086
:10093000000006000c00fa00889fbe00000478004a
:10094000cfb09700f0ff2700d0bf9f008004eb00de
:1009500099bf9f0088bf9f00a8bf9f00200c200068
:10096000b0bf9f0078815700708057008f0007004c
:100970000fb89700094878000fb897000804500096
:10098000080078004f04be000080fa000000060056
:10099000889fbe008a1f78000005780081047800d7
:1009a0000004eb00010037000804e80068407d0007
:1009b0000004e000050032008000fb000900780020
:1009c0002f0307000000e000f7ff32000800780066
:1009d0004f0578004f04be000000060000037800b9
:1009e00080027800020278008001eb0008003700e6
:1009f0000402e90063c07800805a78008301e800af
:100a00000004e00002003a008000eb00060037001e
:100a1000828f5100f6ff3a00fbff37000040eb00e9
:100a200080f07a008100e800848f5000fbff3a00dc
:100a300006007800000006008001780000017800c0
:100a400031407800005978000004e000fcff3a00d3
:100a50000300780000000600889fbe000004be006e
:100a60000000e00003003a00084e80000800e000ab
:100a7000130032000800be00090307000004440010
:100a80001804e00004003a000000eb00004e88006b
:100a9000000478000a0037000800be00bcff070011
:100aa00000004400004e88001004e0000200320004
:100ab0000058eb00010037000000eb00004e8800fa
:100ac000080078004f04be00000006008001780096
:100ad00000017800010037000201e8001204e00084
:100ae000fdff3a0031407800005978000004e00032
:100af000fcff3a0003007800000006001041780077
:100b0000b141510003003a000000e8000204e00097
:100b1000faff3a000300fb00000006000001780025
:100b200000c2b300010037000201e80092407800e3
:100b300080cf5000fcff3200e9cf5000faff3200b6
:100b4000d0c2b30080cf500003003a000201e80099
:100b500014c0b300050037000042eb00b0c2b30080
:100b600080cf500001003a000201e8008000eb0055
:100b700005fd2f00040037006a08b900008041001d
:100b8000850040000201e8009201fb000580410061
:100b9000e90f5000f8ff36000404e00001003200c5
:100ba0008100ea000100780000000600fe8747008f
:100bb000889fbe008a9fbe008c9fbe008e1f78005b
:100bc000f0b79f000107780082bf9f000000eb0094
:100bd000a0b79f009f0237008006eb0050c2b30011
:100be00080cf5000090032000100fb00ffb09700e9
:100bf000be020700e10f400096023200afb097003e
:100c00008100e800a1b79f00920237009e40780063
:100c1000d0c2b30080cf50000c00320007003c006f
:100c20006d40500080cf50000a0032006b40400001
:100c300080cf50000e003a000800370000c3b30018
:100c400080cf50000a003a00060037000d30a000a7
:100c5000050037000d00a000030037000d10a000b4
:100c6000010037000d20a0000e07e800e7ff370065
:100c70000d18a300010032000d00a1000d38a300e3
:100c8000010032000d20a1000100fb0002fd2f0039
:100c900002004000e90f50000e003e000002eb0091
:100ca000c4b79f0082017800cfb297006a28b900cc
:100cb0001e01fb000001410003014100c2b79f007b
:100cc0005e00fb0003004000e90f50000b003e00f7
:100cd000f5ff37000006eb00ccb79f00a0c2b300c1
:100ce00080cf500005003a000fb89700c000780090
:100cf00080bf9f00c1b79f000e07e8000001eb0016
:100d0000b2b79f00e0c2b3009e4f100018003a0037
:100d10000de0a0008e00e80064405000914f1000ec
:100d200002003200010778000c0037000fba97006c
:100d3000c402780084bf9f00b5b79f000e87e8000b
:100d40000b0037003fb697006a60b9000000410011
:100d500003004000b0b79f000e07e8001e01fb0033
:100d600003fd2f0003004100e90f5000f5ff36009e
:100d7000be407800e1d79f00c0c6b30080cf5000ce
:100d8000220032000f003c006940500080cf50002c
:100d90007700320004003c000104e0003102320020
:100da0006b4050000f00370040c6b30080cf5000aa
:100db000930032006540400080cf50008b003a0025
:100dc0008f00370030c7b30080cf50001a003200c8
:100dd00007003c006440500080cf500011003200fa
:100de0000040e80080cf500080003a000f0037003c
:100df00050c7b30080cf50008000320063404000f5
:100e000080cf500079003a00090037000000280028
:100e10000d48a30001003a00000120008086760002
:100e2000d3ff37000d60a000750037000d50a00003
:100e30000d70a000720037008fb897004100780055
:100e400081bf9f00000478000000e00001003a002c
:100e5000a89620008004eb00010037008104e80020
:100e600089007800088044001004e000fbff3a008d
:100e70003fb197000200e00003003200890f5100eb
:100e800001003100820478000002eb00e4af9f0013
:100e9000cfb29700898f52000200360009805200bd
:100ea000e0af9f004368de00e10660001b003a00ef
:100eb0000d06780009003700ffb0970000022000ff
:100ec0000a020700e10f4000030032002fb0970034
:100ed0000000e800a0b79f000c06e800efa897000c
:100ee000810f5600f4ff3a000081eb00e2af9f0053
:100ef0000a003700880078003100fb000104780008
:100f0000ffb09700f9010700e10f40000300320035
:100f10002fb297000402e800a4b79f000900e9007f
:100f200080047800e10f4000f2ff3a000006eb0079
:100f30000d00e0000a003a00c6013700ffb097003c
:100f400000022000e9010700e10f40000300320029
:100f5000afb297008502e800a5b79f000c06e80035
:100f60006fa89700800f5600f4ff3a00b9013700d0
:100f70008fb897004100780081bf9f00cf80de00ce
:100f800001017800820178000205be000004be0065
:100f90000203be000002be004822de00482edd0033
:100fa00004027600e4d79f000d48a3000a00320037
:100fb0000404e00008003200e14f42000600320065
:100fc00071fd2f0001804700044878001840980008
:100fd0002900200002003700f0d79f0019002000f0
:100fe00072fd2f0002844700a1ff370064fd2f002f
:100ff00004844700190020009dff37000d0cb3004a
:101000000d007800000cb20028003a000d00e0004e
:1010100005003d008fba97004505be004504be009f
:1010200085bf9f00140037000d48a3000b0032005d
:101030000fbe97004c00be008cbf9f004f89de00a2
:10104000cf91de000002be00020378008203780028
:101050000605be000404be00070037008fb89700e5
:101060004100780081bf9f0000047800cfc4de00fb
:10107000090578008a057800e00f5400e08f5c00d5
:10108000e00f5d00e08f5d001f003d003d00b300fc
:101090006000b8006011b80008045000898458004e
:1010a0000a0559008b855900170037000d00e00034
:1010b00005003d000fb997004205be004204be0086
:1010c00082bf9f00100037000d48a30007003200c8
:1010d0000fba97004400be0084bf9f006011b800a3
:1010e0000205be000004be00070037008fba97005b
:1010f0004500780085bf9f000004780009002000ab
:101100000a0020000b0020003fb697000c00e00012
:1011100007003a00e00f5400e08f5c00e00f5d0034
:10112000e08f5d0002003a0010002000b0b79f0081
:101130008d007800010cb200e1b79f000004200090
:10114000808f50003000320003003c000100e000be
:101150000800320040003700000820006fb19700ff
:10116000800f510014003200000c2000800f51004d
:1011700039003a0014c0b300a58c20000b003700e2
:101180000400fb004300dd00050040005001be00ec
:101190004000be000040e10001c8e10002d0e100d3
:1011a00003d8e1002b0039000442e800f44f52005c
:1011b000f3ff3a0027003700000120000100200063
:1011c0006011b80014c0b3000040e10001c8e100a4
:1011d00002d0e10003d8e1001e00390045002000e4
:1011e0000000d0008180d2000281d2008381d20031
:1011f0008502e900faff3a000442e800f04f52008d
:10120000f1ff3a00130037008000200001002000a9
:101210006011b80014c0b3000040e10001c8e10053
:1012200002d0e10003d8e1000a0039003c002000b0
:101230000000d0008180d2000281d2008381d200e0
:101240000c06e900faff3a000442e800f54f5200ac
:10125000f1ff3a00e4d79f00efd097000100fb00b8
:101260003fb19700820f500002003d00e2d79f007f
:10127000040037003fb29700800f520001003d008c
:10128000b0b79f00cfb297000500e0000400320025
:1012900063806600020032008502e900c5b79f0046
:1012a0000de8a3000b0032004fb697003fb0970047
:1012b000800f560003003c008000eb00c1b79f0088
:1012c000040037004fb197003fb29700040151006e
:1012d000c2b79f00efd297000500fb000006eb00ad
:1012e000dcaf9f00cfb09700808f50000200340029
:1012f00000805000d0af9f000d28a30037003200bf
:10130000e18066000d18a3000c003200d00220001e
:101310000100e00001003a000080e900ffb0970002
:10132000f2000700e10f40000e0032002fb19700dd
:101330000201e800a2b79f000a0037000100e000a8
:1013400008003200ffb0970000022000e70007000d
:10135000e10f4000030032002fb297000402e800c2
:10136000a4b79f00dfaa97000500e0000f0032003d
:101370000006eb00ffb0970000032000db00070031
:10138000e10f4000030032002fb097000000e8009a
:10139000a0b79f000c06e800dfa89700810f560059
:1013a000f4ff3a000001eb00d2af9f003fb297007c
:1013b000c320dd00208c20008080400091b79f007a
:1013c0004220dd006400500080b79f006320b90018
:1013d000f0af9f006306500084003700dfaa97003b
:1013e0000500e00011003200688066000f003a003e
:1013f00000067800ffb0970000022000bb00070045
:10140000e10f4000030032002fb097000000e80019
:10141000a0b79f000c06e800dfa89700810f5600d8
:10142000f4ff3a000001eb00d2af9f00e1806600bc
:101430000d18a3000c003200d00220000100e000d3
:1014400001003a000080e900ffb09700a700070004
:10145000e10f4000d5ff32002fb297000402e800f0
:10146000a4b79f00d1ff37000100e000cfff32009a
:10147000ffb09700000220009c000700e10f400031
:10148000caff3200afb297008502e800a5b79f00ff
:10149000c6ff370000042000efb09700808f500097
:1014a0003100320003003c000100e000080032007f
:1014b0003e003700000820006fb19700800f5100f8
:1014c00011003200000c2000800f510037003a005c
:1014d0001fb097003002be002003be000800be000f
:1014e0000a01be0047fc0700a40020000500200000
:1014f0006033b8004afc070004c3b3000442400054
:10150000e4d79f002900370015972000d5b79f002a
:101510000d58a30002003a0020982000d0b79f0089
:1015200014002000050020006033b8008fb0970041
:101530008100e900050033000402d0008582d2005a
:101540000683d2008783d200f9ff37000800be006f
:101550000a01be002bfc07006f0060005fb197001e
:1015600062407800100037001400200005002000c1
:101570006033b8000c0078000000e900050033007b
:101580000402d0008582d2000683d2008783d20075
:10159000f9ff37000800be000a01be0019fc070071
:1015a000674060000043b000e0d79f00efd0970095
:1015b0000100fb00ffb097004c000700e10f400066
:1015c000030032002fb197000201e800a2b79f008c
:1015d0001fb297006802520094b79f008fb2970025
:1015e000e482520085b79f0063065600d0ff2f00ab
:1015f0003fb197000090b9007faa97000000420019
:1016000063005000800f5600a2ff3a000d38a3007f
:1016100010003200dfaa97000500e0000d00340042
:101620000006eb00ffb09700000220002f0007002b
:10163000e10f4000030032002fb097000000e800e7
:10164000a0b79f000c06e800dfa89700810f5600a6
:10165000f4ff3a00be407800e1d79f000104e000ab
:101660005dfd3a002fb097004f0778004f06be008f
:101670004f05be004f04be00ef01b10000000600a0
:1016800010417800814f5100040032000000e80052
:101690000204e000faff3a000000eb000000060040
:1016a000889fbe008a1f78000005780081047800ba
:1016b0000004eb00010037000804e80068407d00ea
:1016c0000004e000050032008000fb000900780003
:1016d000ebff07000000e000f7ff3a000800780089
:1016e0004f0578004f04be0000000600889fbe0032
:1016f0000001780001047800b10090000118a300f7
:101700003d0032000198a30003003a001800900049
:101710000000e00038003a000190a0003104980079
:1017200082047800f90fb200180090000000e00079
:1017300002003a0028009000000c7800ea8f540064
:1017400006003a00380090000078a30003003a0039
:1017500088007800d0002000e4ff07009800900087
:1017600058009000808f50000b0032000100e8000c
:10177000100498001800780009587800000c7800d0
:1017800011c0b300e09b200001487800ea8f5400ac
:101790000600320019003700880078000940780000
:1017a000190007008004780014003700380090000a
:1017b0000088a3001100320018019000a8009000da
:1017c00048009000defa070098009000810f50005a
:1017d00004003200380090000003b3003004980089
:1017e0008084eb000000eb001004980028009000bb
:1017f000000c7800010037008084eb0009007800bd
:101800004f04be00000006000200fa00889fbe00e0
:10181000a0ff9f0001047800b100900081047800cf
:101820000904b200020032000000fb00360037005d
:101830000118a30005003a000103b3003104980029
:10184000190498000080eb002f003700580090002a
:101850000000e00006003a0048009000120020005e
:10186000e6805700b6fa07001904980024003700f4
:10187000280090000000e00008003a00a09b200033
:1018800020049800000c78002000200050049800ec
:10189000100498000130a000310498001801900055
:1018a000a800900048009000a5fa070028009000ca
:1018b000000c78000080eb001004980018007800fd
:1018c000aff8970001587800000c78002ff89700c7
:1018d000ea4f50000a003a00380090000088a30048
:1018e0000700320018019000a80090004800900006
:1018f00093fa070019049800a8009000010c7800e2
:10190000aff897000100fb004f04be000080fa0012
:0419100000000600cd
:020000040000fa
:0200000401f009
:04000000ffbf00003e
:020000040000fa
:0200000401f009
:04000400ff7f00007a
:020000040000fa
:0200000401f009
:040008007cff000079
:020000040000fa
:0200000401f009
:04001400ffff0000ea
:020000040000fa
:100008009c0100009c0100009c0100009c01000074
:100018009c0100009c0100009c0100009c01000064
:100028009c0100009c0100009c010000521000008f
:100038009c0100009c0100009c010000dc220000e3
:100048009c010000f00f00009c0100009c010000d2
:100058009c0100009c0100009c0100009c01000024
:100068009c0100009c0100009c0100009c01000014
:100078009c0100009c0100009c0100009c01000004
:100088009c0100009c0100009c0100006a0f000018
:100098009c0100009c0100009c0100009c010000e4
:1000a8009c0100009c0100009c0100009c010000d4
:1000b8009c0100009c0100009c0100009c010000c4
:1000c8009c0100009c0100009c0100009c010000b4
:1000d8009c0100009c0100009c0100009c010000a4
:1000e8009c0100009c0100009c0100009c01000094
:0800f8009c0100009c010000c6
:020000040000fa
:100108009c0100009c0100009c0100009c01000073
:100118009c0100009c0100009c0100009c01000063
:100128009c0100009c0100009c010000521000008e
:100138009c0100009c0100009c010000dc220000e2
:100148009c010000f00f00009c0100009c010000d1
:100158009c0100009c0100009c0100009c01000023
:100168009c0100009c0100009c0100009c01000013
:100178009c0100009c0100009c0100009c01000003
:100188009c0100009c0100009c0100006a0f000017
:100198009c0100009c0100009c0100009c010000e3
:1001a8009c0100009c0100009c0100009c010000d3
:1001b8009c0100009c0100009c0100009c010000c3
:1001c8009c0100009c0100009c0100009c010000b3
:1001d8009c0100009c0100009c0100009c010000a3
:1001e8009c0100009c0100009c0100009c01000093
:0801f8009c0100009c010000c5
:020000040000fa
:10191400484c0000202500007520000025750000bb
:1019240020250000750000004d6100006e200000bd
:101934002575000020250000752000002575000095
:10194400000d00000a0000000020000000740000e8
:101954006f6b0000732000006e7500006d3a00008c
:10196400202500006400000074750000726e000001
:10197400416c00006c4f00006e00000074750000a4
:10198400726e0000416c00006c4f0000666600003f
:1019940000730000657400004c6900006768000073
:1019a4007473000000410000313a0000202500005b
:1019b40075000000413200003a2000002575000047
:0419c400000000001f
:020000040000fa
:1019c8001800fa0000458000500798001045800074
:1019d8004007980020458000300798003045800077
:1019e8002007980040458000100798005045800067
:1019f800000f7800c144800050152000808f5000ef
:101a080034003e00d0448000300f98003e0890001b
:101a18000000e000040032003e089000e10f500092
:101a280004003200060037000000eb000045880083
:101a3800050037001000200000458800020037002c
:101a48002000200000458800e0448000200f980016
:101a58002e0890000000e000040032002e089000dc
:101a6800e10f500004003200060037000000eb00d0
:101a78001045880005003700100020001045880038
:101a8800020037002000200010458800f044800044
:101a9800100f98001e0890000000e00004003200bb
:101aa8001e089000e10f50000400320006003700c5
:101ab8000000eb00204588004c0037001000200093
:101ac8002045880049003700200020002045880074
:101ad80046003700c144800050152000808f500018
:101ae80038003600c1448000a02a2000808f5000b2
:101af80034003e00d0448000000f98000e0890008b
:101b08000000e000040032000e089000e10f5000d1
:101b180004003200060037000000eb000045880092
:101b2800050037000000eb00004588000200370080
:101b38001000200000458800e044800070079800ed
:101b48007e0090000000e000040032007e0090005b
:101b5800e10f500004003200060037000000eb00df
:101b680010458800050037000000eb00104588008c
:101b7800020037001000200010458800f044800063
:101b8800600798006e0090000000e000040032003a
:101b98006e009000e10f500004003200060037008c
:101ba8000000eb0020458800100037000000eb0023
:101bb800204588000d0037001000200020458800cf
:101bc8000a003700c1448000a02a2000808f5000fe
:101bd800060036000000eb00004588000000eb001e
:101be800104588000000eb00204588003045800043
:101bf800e300500000458000808f50000300310052
:101c08000000eb0000458800050037000145800012
:101c18003045800000804000630050000045880087
:101c280040458000e300500000458000808f500050
:101c3800030031000000eb00104588000500370064
:101c4800114580004045800000804000630050003e
:101c58001045880050458000e30050000045800092
:101c6800808f5000030031000000eb002045880001
:101c78000500370021458000504580000080400065
:101c88006300500020458800014580005e009000f8
:101c9800808f500013003a00114580004e009000dc
:101ca800808f50000f003a00214580003e009000d0
:101cb800808f50000b003a00314580002e009000c4
:101cc800808f500007003a00414580001e009000b8
:101cd800808f500003003a00504580009e0f50004e
:101ce8000400320022c0b30011c0b300c084200039
:101cf8002a08070080852000e90b07008040eb00d8
:101d080010c0b300200d07009d0d07002dff370000
:101d18002a00fa0001003700990d0700808520008d
:101d28000041eb008e007800d00a07000080fb001d
:101d38000000d100610060000004e000f6ff3a00f6
:101d4800010037008e0d0700808520008040eb00e1
:101d5800b90b07000080fb000000d10061006000a3
:101d68000004e000f7ff3a00db02070001458000ad
:101d7800803e20000088b900604588001145800039
:101d8800803e20000088b900704588002145800009
:101d9800803e20000088b90080458800804580008a
:101da80071458000624580008e81e800801f7800c0
:101db800811f7800821f7800a0c82800801f780043
:101dc80003007800d9fa0700e887570050458000db
:101dd8004145800032458000f6014700801f7800a9
:101de800811f7800821f780060c92800801f780052
:101df80003007800cdfa0700e8875700c202070001
:101e08000e80e800cc020700c502070076004700f4
:101e1800c90207008560a900590d0700bfff3700f8
:101e28000800fa0001003700550d07008041eb005b
:101e380042c0b30011c0b300c08420009807070057
:101e48000080fb000000d100610060000004e00099
:101e5800f5ff3a0012c0b30011c0b300c0842000df
:101e6800ce070700200020001007980030c0b300fc
:101e7800004f7800fd04070000458000804078008e
:101e880064004700014878001045800080407800d1
:101e98006400470011409800204580008040780089
:101ea8006400470021409800e40047001e41780084
:101eb8001e009000f104070080852000418b20005f
:101ec800990a07002e0d0700d8ff37003600f800e2
:101ed800809fbe00829fbe00849fbe00869fbe007a
:101ee8003400f80000002000a00188000c00fa006f
:101ef800d6040700c70407000004e0002e003200e3
:101f0800d6040700210507001007980026050700da
:101f1800004f780064004700290507008b0507007b
:101f28001e009000e10f500023003a0064004700b3
:101f3800204090000080fb00d044880064004700e7
:101f4800304090000080fb00e044880064004700b7
:101f5800404090000080fb00f04488006400470087
:101f6800504090000080fb00304588006400470026
:101f7800604090000080fb004045880064004700f6
:101f8800704090000080fb005045880064004700c6
:101f9800104090000080fb004800dd00c04488002d
:101fa80064004700104078008080fb00c044800037
:101fb80000804000c04488000080fa003400f90026
:101fc8004f03be004f02be004f01be004f00be00cf
:101fd8003600f900004006003600f800809fbe0079
:101fe800829fbe00849fbe00869fbe003400f8001a
:101ff80000002000a00188000200fa008520a90046
:10200800060037000efa0700004f78009045800060
:102018001e4878000000e8009045880011fa070083
:102028000004e000f7ff3a00d0c0b3009e4f100054
:1020380003003200a0c0b3009e4f10000f003a000a
:1020480031ca2800608b20004ffa07008000780012
:10205800608b2000808040000040eb0080487800c2
:10206800530007000201200061ca2800608b20008d
:1020780058fa0700608b2000904588000080fa001d
:102088003400f9004f03be004f02be004f01be00ee
:102098004f00be003600f900004006003600f80088
:1020a800809fbe00829fbe00849fbe00869fbe00a8
:1020b8003400f80000002000a00188000000fa00a9
:1020c8002d0c0700800c07000080fa003400f9008e
:1020d8004f03be004f02be004f01be004f00be00be
:1020e8003600f900004006000000fa00d70107009a
:1020f80052c0b30031c0b30000082700e60b070048
:10210800070c07000002eb008001eb0012c0b300cf
:1021180011c0b3000040eb009b0307001900070043
:102128007e0c0700a2c0b3000180200040ce200032
:10213800830b070021812000a2c0b30040f12000da
:102148007f0b070041822000a2c0b300c0e8200036
:102158007b0b0700808520008000eb00b209070098
:102168000041eb0001882000c0842000b60607006b
:10217800808520008040eb009d0a07006e0707005d
:10218800feff37000000fa000000eb006010880036
:10219800f0002000b6f90700f2002000f1772f00c8
:1021a80000fa2f00ddf907000080fa0000000600a1
:1021b8009600fa00780047006011b8000288be0057
:1021c800640040006011b8000288be00640040004e
:1021d8006011b8000288be00640040006011b800b9
:1021e8000288be00640040006011b8000288be008a
:1021f800640040006011b8000288be00640040001e
:102208006011b8000288be00640040008000eb0046
:102218000108780078004700618b200004fa070065
:1022280070ca2800300f98000000eb00200f9800bb
:10223800600320000e004000000178006000b80034
:102248000089be00640141006000b8000089be003a
:10225800640141000000eb000009780078004700a5
:10226800be089000faf90700100f98001000370018
:102278002e089000610320008e804000000040007e
:102288001e09900002b078002e0890000000e800b7
:10229800200f9800be0890000000eb00ecf9070042
:1022a800100f98002e089000e40f500003003c0027
:1022b8001e0890000000e000edff3a002e08900094
:1022c800e10f500004003a00610320008e804000b6
:1022d8000000eb00900098007f01070040052000f7
:1022e8000e004000000178006000b8000089be00c0
:1022f800640141006000b8000089be00640141002b
:102308006000b8000089be00640141006000b800a8
:102318000089be00640141006000b8000089be0069
:10232800010420008e8040002e089000801f780055
:1023380090ca2800801f7800010078007bf9070008
:10234800e48757000000eb00000f98000f003700eb
:102358000e089000610320008e80400000004000bd
:10236800e0807800400520000e004000d5f9070005
:10237800400520000e00400071ca2800d1f907006e
:102388000e0890000000e800000f9800ae089000ca
:102398000e089000808f5000edff3e005a010700a4
:1023a800000420000e004000630107005c010700e4
:1023b800400520000e0040005f0107000000eb0010
:1023c8007007980004003700b10b07007e009000ea
:1023d8000000e80070079800fe009000700c2000d4
:1023e800808f5000f8ff36008560a9003a01070089
:1023f800600320000e0040001000780061cb280028
:10240800bcf907000000e0005a003a002e089000ce
:10241800e10f500016003a00000120006007980004
:102428000040eb00204f980010c0b300304f9800d8
:102438008e0307002e4890000080fb008000780083
:102448003e4990006e0090008c0307002000200099
:1024580020458800204580001045880010458000f0
:10246800004588006e019000128f9800f400370034
:10247800600320000e0040001000780061cb2800a7
:102488009cf907000000e000e7003a006003200024
:102498000e004000100090000000e000e200320052
:1024a8001001200060079800600320000e00400023
:1024b8001000900097f90700400798004e00900020
:1024c8000000e000d80035004e009000e20f5000f8
:1024d800d5003c00600320000e0040001000900072
:1024e8007047980010c0b300304f98005f03070092
:1024f8007e4090000080fb00800078003e499000fc
:102508006e0090005d0307004e0090002045880093
:10251800204580001045880010458000004588004f
:102528004e00900063004000e50f500008003c009a
:102538004e009000630040005045880050458000e0
:102548004045880040458000304588000600370037
:1025580050002000504588005045800040458800c4
:1025680040458000304588006e009000108f98002c
:10257800b3003700600320000e0040001000780010
:1025880001cc28005bf907000000e0001c003a00bd
:1025980000022000600798000040eb0060479800a8
:1025a80010c0b300304f9800300307006e40900011
:1025b8000080fb00800078003e4990006e0090008b
:1025c8002e0307000000eb0020458800204580000e
:1025d8001045880010458000004588003000200024
:1025e800504588005045800040458800404580009f
:1025f800304588006e019000128f980090003700d7
:10260800600320000e00400010007800b1cc2800c4
:1026180038f907000000e00083003a00600320005a
:102628000e004000100090000000e0007e00320024
:10263800600320000e004000200090000000e00031
:1026480079003200600320000e0040001000900066
:1026580030f9070020079800600320000e004000b2
:10266800200090002bf90700100798008106200031
:102678008e8040002e009000801f780050cd2800ea
:10268800801f780001007800a8f80700e487570049
:10269800c10720008e8040001e019000821f780034
:1026a800c0cd2800801f7800010078009ff807003f
:1026b800e487570088000700930007008006200081
:1026c8000e0040009c00070095000700c00720008e
:1026d8000e004000980007008560a9000000eb008c
:1026e800000f780002003700e90a07001e0fe80013
:1026f800700c20009e0f1000fbff360076000700cc
:102708008560a9002e0090000000e000460032001d
:102718002e009000e30f500043003e001e00900082
:10272800e20f500040003e000003200060079800c0
:10273800600320000e0040001000900080407800e8
:10274800000920000e0040000148780060032000c6
:102758000e00400020009000804078000009200012
:102768000e0040001140980020c0b300304f980080
:10277800be020700010920008e8040003e499000fb
:102788006e009000bd0207002e009000208f980078
:102798002e899000e20f51000a0032002e88900026
:1027a800e30f50000a0032002e899000e10f51001b
:1027b80001003200080037001e0090000045880024
:1027c800050037001e0190001245880002003700fe
:1027d8001e009000204588002e009000e10f500058
:1027e80003003a001e019000024588000b003700e4
:1027f8002e009000e20f500003003a001e009000e7
:1028080010458800050037002e009000e30f5000a7
:1028180002003a001e019000224588006e009000d8
:10282800108f98000600370022c0b30011c0b30013
:10283800c0842000590507000001eb00128f9800a2
:102848001e8890000080fa00000006000000fa00d0
:10285800c6c2a900cde2a900d902a900900a0700c2
:1028680000c3b30006010700890a070000c3b300cc
:1028780003010700820a070000c3b3000001070034
:102888006500070000c2b300fd00070062000700f2
:1028980080c2b3007f0007005f00070080c0b3005c
:1028a8007c0007005c00070010c0b3007900070037
:1028b8005900070060c0b300760007005600070003
:1028c80055000700e0c0b30072000700520007007f
:1028d8000080fa00000006000000fa0010c0b300f3
:1028e8006c0007004c0007000080fa00000006009a
:1028f8000000fa0020c0b300660007004600070089
:102908000080fa00000006000000fa0000c8b300ca
:1029180060000700400007000080fa000000060081
:102928000000fa0000ccb3005a0007003a00070084
:102938000080fa00000006000200fa00000f78008c
:1029480005003700340007001e00780010407800aa
:10295800100107001e0fe8001e00780010407800e4
:102968000004e000f7ff3a000080fa0000000600cb
:102978000000fa0000c1b300460007002600070067
:102988000080fa00000006000000fa0040c1b30011
:1029980040000700200007000080fa000000060041
:1029a8000000fa0080c1b3003a0007001a000700cf
:1029b8000080fa00000006000000fa00e0c1b30041
:1029c80034000700140007000080fa000000060029
:1029d8000000fa00c0c0b3002e0007000e00070078
:1029e8000080fa00000006000000fa00e0c0b30012
:1029f80028000700080007000080fa000000060011
:102a08000000fa00f0c0b30022000700020007002f
:102a18000080fa00000006000200fa0010c0b300af
:102a2800004f7800d262a800d242a800d222a800a3
:102a3800d202a8000e0a0700d1e2a900dd02a80010
:102a48000b0a07000a0a07000d003700cac2a800cf
:102a5800070a0700060a0700d4c2bf000080fb006f
:102a68004300de0061406000004f7800000a070064
:102a7800ff090700cac2a900fd090700fc090700f1
:102a88001e04e000f1ff3a00dd02a9000080fa0010
:102a9800000006000200fa00004f7800d1e2a90009
:102aa800dd02a900d262a900d242a900d222a9005f
:102ab800d202a9009e00fb000008200000806000f0
:102ac8004780de0061406000614060004301dd0036
:102ad800612d20009140780070cfb30000c06000e5
:102ae80002407000d6e2b7009e00fb000004200000
:102af800008060004680de00614060006140600048
:102b08004201dd00612d200091407800b0cfb30074
:102b180000c0600002407000d6e2b7009e00fb00d3
:102b280000022000008060004580de0061406000f7
:102b38006140600000414000612d20009140780014
:102b4800d0cfb30000c0600002407000d6e2b700ea
:102b58001e00fb00700060004480de0061406000e1
:102b680061416000612d200091407800e0cfb30002
:102b780000c0600002407000d6e2b700bc09070040
:102b8800cac2a800ba090700cac2a900b809070042
:102b9800d1e2a900dd02a9001e00fb006800600068
:102ba8004380de0061406000614060004301dd0059
:102bb800612d20009140780070cfb30000c0600004
:102bc80002407000d6e2b7001e00fb0064006000ff
:102bd8004280de0061406000614060004201dd002b
:102be800612d200091407800b0cfb30000c0600094
:102bf80002407000d6e2b7001e00fb0062006000d1
:102c08000080d100614060006140600000414000e8
:102c1800612d200091407800d0cfb30000c0600043
:102c280002407000d6e2b7001e40780061406000a4
:102c3800614060006140600061416000612d2000da
:102c480091407800e0cfb30000c0600002407000ff
:102c5800d6e2b70086090700cac2a800840907009f
:102c6800cac2a90082090700d262a800d242a800fd
:102c7800d222a800d202a8000080fa0000000600b4
:102c88000200fa00004f7800d1e2a900dd02a90095
:102c9800d262a900d242a900d222a900d202a90078
:102ca8009e00fb0000082000008060004780de00d6
:102cb80061406000614060004301dd00612d20003b
:102cc8009140780070cfb30000c0600002407000ef
:102cd800d6e2b7009e00fb000004200000806000e0
:102ce8004680de0061406000614060004201dd0016
:102cf800612d200091407800b0cfb30000c0600083
:102d080002407000d6e2b7009e00fb0000022000df
:102d1800008060004580de00614060006140600026
:102d280000414000612d200091407800d0cfb300d1
:102d380000c0600002407000d6e2b7001e00fb0031
:102d4800700060004480de00614060006141600006
:102d5800612d200091407800e0cfb30000c06000f2
:102d680002407000d6e2b70041090700cac2a800b5
:102d78003f090700cac2a9003d090700d262a8009e
:102d8800d242a800d222a800d202a8000080fa00ed
:102d9800000006000200fa00004f7800d1e2a80007
:102da800dd02a900d262a900d242a900d222a9005c
:102db800d202a9009e00fb000008200000806000ed
:102dc8004780de0061406000614060004301dd0033
:102dd800612d20009140780070cfb30000c06000e2
:102de80002407000d6e2b7009e00fb0000042000fd
:102df800008060004680de00614060006140600045
:102e08004201dd00612d200091407800b0cfb30071
:102e180000c0600002407000d6e2b7009e00fb00d0
:102e280000022000008060004580de0061406000f4
:102e38006140600000414000612d20009140780011
:102e4800d0cfb30000c0600002407000d6e2b700e7
:102e58001e00fb00700060004480de0061406000de
:102e680061416000612d200091407800e0cfb300ff
:102e780000c0600002407000d6e2b700fc080700fe
:102e8800cac2a800fa080700cac2a900f8080700c1
:102e9800d1e2a800dd02a9001e00fb006800600066
:102ea8004380de0061406000614060004301dd0056
:102eb800612d20009140780070cfb30000c0600001
:102ec80002407000d6e2b7001e00fb0064006000fc
:102ed8004280de0061406000614060004201dd0028
:102ee800612d200091407800b0cfb30000c0600091
:102ef80002407000d6e2b7001e00fb0062006000ce
:102f08000080d100614060006140600000414000e5
:102f1800612d200091407800d0cfb30000c0600040
:102f280002407000d6e2b7001e40780061406000a1
:102f3800614060006140600061416000612d2000d7
:102f480091407800e0cfb30000c0600002407000fc
:102f5800d6e2b700c6080700cac2a800c40807001e
:102f6800cac2a900c2080700d262a800d242a800bb
:102f7800d222a800d202a800dd02a900d1e2a9004d
:102f88000080fa00000006000800fa00004f7800f0
:102f980011479800224798002307980034079800a3
:102fa800113920009140780080cfb30000c0600044
:102fb8000024a00091e3b700013920009140780077
:102fc80000ceb30080c0600000c8b30080cf5000be
:102fd800f9ff3a009163a800213920009140780058
:102fe80000ccb30000c0600092e3b70092c3bf00fa
:102ff800f043b20092e3b7004139200091407800d5
:1030080080cfb30000c0600094e3b70041392000ce
:103018009140780070ccb30000c060008041b300dc
:1030280094e3b700513920009140780080cfb30075
:1030380000c060000004a00095e3b7006e63a9001b
:103048008ee3a9008e43a9008e43a900be0090001c
:10305800f07f200080806000f07f2000008060000a
:103068004201dd008119800030002e0000806000e0
:103078000200700080198800be009000f07f2000d8
:1030880080806000f07f2000008060004201dd0049
:10309800c119800030002e0000806000020070001e
:1030a800c01988003003a8003803a8000003a9004d
:1030b8000803a9001003a9001803a9002003a90008
:1030c8002803a900ae009000f07f200080806000f7
:1030d800f07f2000008060004201dd0001188000c0
:1030e80030002e0000806000020070000018880088
:1030f800ae009000f07f200080806000f07f20000c
:10310800008060004201dd004118800030002e0080
:10311800008060000200700040188800811880005c
:1031280030002e0000806000c1ff20000100700008
:1031380080188800c118800030002e0000806000d0
:10314800c1ff200001007000c0188800011980002c
:1031580030002e0000806000c1ff200001007000d8
:10316800001988004119800030002e00008060009e
:10317800c1ff200001007000401988001e40900027
:103188000004e00003003a002e4090000004e00034
:103198000e0032008f60a8008760a9000000eb00d5
:1031a800c01c88001e4090000004e00002003200ad
:1031b8009803a8009603a9002e4090000004e000a0
:1031c800020032009843a8009643a9009e40780068
:1031d80067c06000674160001139200091407800a5
:1031e80080cfb30000c060000240700091e3b700d8
:1031f80090c3bf000080fb004500de008080fb001c
:103208001e80fb00808f5000f9ff3a000080fa0012
:10321800000006000000fa0096c3bf000080fb0013
:10322800610060000080fa00000006000000fa005b
:1032380096c3bf000080fb004200de000080fb0058
:10324800610060000080fa00000006000000fa003b
:103258008760a9000080fa00000006000000fa005c
:103268009603a9000080fa00000006000000fa009a
:103278009643a9000080fa00000006000800fa0042
:103288001007980021079800624798006003a9007a
:103298006023a9001e009000f043b200f043b20082
:1032a800f043b200c200dd0060c3bf0063406000ad
:1032b8000140700060e3b7009e009000007c200091
:1032c800008060004600de007f406000c300dd0033
:1032d80061c3bf00674060000140700061e3b70050
:1032e8006e4090006f4060006f4060004301dd0059
:1032f800413620009140780070c8b30000c06000db
:103308000240700064e3b7000040eb00004f780013
:103318000b0037001e80fb0080007800603620001c
:10332800008140001e80fb00800078002e00900085
:103338000080400010407800004978001e4fe800e7
:103348006e4090009e4f1000f2ff39006e63a80097
:103358000080fa00000006000200fa006ec3bf00f9
:10336800684060000004e00003003a0010002000fc
:10337800000f7800020037000000eb00000f780013
:103388001e0078000080fa00000006000000fa0025
:10339800001c80004200de00f17f20000100600078
:1033a8000080fa00000006000000fa0084c3bf0095
:1033b8006f4060000080fb000080fa0000000600fb
:1033c8000600fa001007980084c3bf006f40600031
:1033d800004f78000040eb00104798005600370077
:1033e8001e4090000080fb00200798002e009000ef
:1033f800e30f50002c0032002e009000e30f500025
:103408000a003c002e009000e10f50001900320025
:103418002e009000e10f50001e003c002e0090008e
:103428000000e0000e003200400037002e0090003f
:10343800e50f5000290032002e009000e50f5000e3
:10344800210035002e009000e60f50002b003200be
:103458002e009000e70f50002d0032003300370097
:10346800301c8000804078001e00900001487800e1
:103478002e0037001e0090000001e800311c80007b
:1034880000f02f00008060004800de00004978004e
:10349800260037001e0090008080e800401c800055
:1034a80080487800210037001e009000630140002a
:1034b800411c800000f02f00008060004800de0002
:1034c80000497800190037001e009000e400400011
:1034d800501c800080487800140037001e009000bf
:1034e80065014000511c800000f02f000080600042
:1034f8004800de00004978000c0037001e009000ec
:10350800e6004000601c8000804878000700370013
:103518001e00900067014000611c800000f02f0031
:10352800008060004800de00004978001e409000de
:103538000040e800104798001e4090009e4f500041
:10354800a7ff39000080fa00000006000000fa001a
:103558008ee3a9000080fa00000006000200fa00cd
:103568008ec3bf0001c8b300014060000004e00042
:103578000300320010002000000f7800020037001e
:103588000000eb00000f78001e0078000080fa00b1
:10359800000006000000fa00c602a900c622a90021
:1035a800c642a900d202a800d222a800d242a8008e
:1035b800d262a8000080fa00000006000200fa00ab
:1035c800d202a800d222a800d242a800d262a80043
:1035d800c602a900c622a800c642a800ca02a900bd
:1035e800ca22a800ca42a8001d070700d4c2bf000b
:1035f800614060000004e00003003a000000eb00b6
:10360800000f78005a003700d4c2bf006240600043
:103618000004e00003003a0030002000000f7800aa
:1036280053003700d4c2bf00644060000004e000cb
:1036380003003a0060002000000f78004c003700bb
:10364800d4c2bf00684060000004e00003003a00f4
:1036580090002000000f780045003700c602a8003f
:10366800c622a900c642a800ca02a800ca22a90008
:10367800ca42a800fa060700d4c2bf006140600031
:103688000004e00003003a0010002000000f78005a
:1036980037003700d4c2bf00624060000004e00079
:1036a80003003a0040002000000f78003000370087
:1036b800d4c2bf00644060000004e00003003a0088
:1036c80070002000000f780029003700d4c2bf0026
:1036d800684060000004e00003003a00a0002000f9
:1036e800000f780022003700c602a800c622a800f2
:1036f800c642a900ca02a800ca22a800ca42a90054
:10370800d7060700d4c2bf00614060000004e00093
:1037180003003a0020002000000f78001400370052
:10372800d4c2bf00624060000004e00003003a0019
:1037380050002000000f78000d003700d4c2bf00f1
:10374800644060000004e00003003a0080002000ac
:10375800000f780006003700d4c2bf006840600040
:103768000004e0009aff3a00b0002000000f780043
:103778001e0078000080fa00000006000200fa002f
:10378800d202a800d222a800d242a800d262a80081
:10379800c602a900c622a800c642a800ca02a900fb
:1037a800ca22a800ca42a800ad060700d4c2bf00ba
:1037b800614060000004e00003003a000000eb00f4
:1037c800000f780060003700d4c2bf00624060007c
:1037d8000004e00003003a0030002000000f7800e9
:1037e80059003700d4c2bf00644060000004e00004
:1037f80003003a0060002000000f780052003700f4
:10380800d4c2bf00684060000004e00003003a0032
:1038180090002000000f78004b003700c602a80077
:10382800c622a900c642a800ca02a800ca22a90046
:10383800ca42a8008a060700d4c2bf0061406000df
:103848000004e00003003a0010002000000f780098
:103858003d003700d4c2bf00624060000004e000b1
:1038680003003a0040002000000f780036003700bf
:10387800d4c2bf00644060000004e00003003a00c6
:1038880070002000000f78002f003700d4c2bf005e
:10389800684060000004e00003003a00a000200037
:1038a800000f780028003700c602a800c622a8002a
:1038b800c642a900ca02a800ca22a800ca42a90092
:1038c80067060700d4c2bf00614060000004e00042
:1038d80003003a0020002000000f78001a0037008b
:1038e800d4c2bf00624060000004e00003003a0058
:1038f80050002000000f780013003700d4c2bf002a
:10390800644060000004e00003003a0080002000ea
:10391800000f78000c003700d4c2bf006840600078
:103928000004e00003003a00b0002000000f780017
:1039380005003700c602a800c622a800c642a80093
:103948000080eb00000f78001e0078000080fa006d
:10395800000006000000fa00d802a900d822a90039
:10396800d842a900d862a900d882a900d8a2a90083
:103978000080fa00000006000400fa00004f7800fa
:103988001e80fb00100798001e009000e20f5000f8
:103998001e0032001e009000e20f500007003c009d
:1039a8001e0090000000e0000e0032001e00900093
:1039b800e10f500010003200280037001e00900070
:1039c800e40f50001b0032001e009000e40f50006e
:1039d800130035001e009000e50f50001a00320059
:1039e8001e003700dc02a800c8c8bf000004a00001
:1039f800c8e8b70019003700dc22a800c8c8bf0013
:103a08000014a000c8e8b70014003700dc42a80082
:103a1800c8c8bf000024a000c8e8b7000f003700de
:103a2800dc62a800c8c8bf000034a000c8e8b7001e
:103a38000a003700dc82a800c8c8bf000044a00004
:103a4800c8e8b70005003700dca2a800c8c8bf0056
:103a580001c2b30001407000c8e8b7000080fa0056
:103a6800000006000400fa00004f78001e80fb00ea
:103a7800100798001e009000e20f5000200032004e
:103a88001e009000e20f500007003c001e0090004e
:103a98000000e0000e0032001e009000e10f500010
:103aa800110032002d0037001e009000e40f500076
:103ab8001f0032001e009000e40f50001600350071
:103ac8001e009000e50f50001f0032002300370051
:103ad800dc02a900c8c8bf00e1cfb3000140600004
:103ae800c8e8b7001d003700dc22a900c8c8bf001d
:103af800d1cfb30001406000c8e8b7001700370015
:103b0800dc42a900c8c8bf00b1cfb30001406000c3
:103b1800c8e8b70011003700dc62a900c8c8bf00b8
:103b280071cfb30001406000c8e8b7000b00370050
:103b3800dc82a900c8c8bf00f1ceb3000140600014
:103b4800c8e8b70005003700dca2a900c8c8bf0054
:103b5800f1cdb30001406000c8e8b7000080fa006a
:103b6800000006000400fa00204798002e4090004c
:103b7800e54f500016003e002e4090008080fb006c
:103b8800100020000100dd00004f7800c8c8bf0009
:103b98001e4060000004e000080032002e40900043
:103ba800b0ff07001e40780080c0ea00c8c8bf0008
:103bb80000c06000c8e8b700050037002e4090003c
:103bc8006dff0700c8c8bf001e407000c8e8b700f6
:103bd8000080fa00000006000400fa002047980060
:103be80010c0b3001047980010c0b30010479800e9
:103bf8000040eb00004f78000e0037002e40900088
:103c08009e409000014060000004e0000300320084
:103c18001e40780058ff0700020037001e40780059
:103c280090ff07001e409000004040001047980099
:103c38001e4fe80050c0b3009e4f1000efff360043
:103c48000080fa00000006000600fa00000f780065
:103c58001107980042479800d30507009e00780096
:103c68000000eb00800878001e0078009e0090009d
:103c7800110098009e00780020c0b300c040980052
:103c88001e00780010009000ce4090000148780097
:103c9800c90507000000eb000080fa0000000600dc
:103ca8000a00fa0010079800414798005247980008
:103cb80063479800bc0507000040eb0010479800d8
:103cc8001e009000100090000000e0002900320063
:103cd8001e00900010009000104f78005e40900089
:103ce8000080fb00400798004e009000e20f500053
:103cf800170032004e009000e40f50000c00320014
:103d08004e009000e10f500001003200190037000a
:103d18004e4090001e4060000004e0001500320094
:103d28001e4090000040e80010479800110037003e
:103d38004e4090001e4068000004e0000d003a006c
:103d48001e4090000040e800104798000900370026
:103d58004e4090001e4f60004e4090001e4068008c
:103d68000004e00003003a001e4090000040e80014
:103d7800104798009e4090006e4190001e009000f1
:103d880028030700104798008b0507001e40900085
:103d98000080fb000080fa00000006000800fa001e
:103da8002007980061479800724798007e05070031
:103db800ae009000c0842000808f500004003900bd
:103dc800618720002e009000810f5000030036000c
:103dd80020c0b30020479800520037002e00900002
:103de80040409000e24f50000300320060c0b30032
:103df800204798004b0037002e009000900090005c
:103e0800010f78001e00e00003003a0050c0b30024
:103e180020479800430037007e4090000080fb0058
:103e28000000d100610060000004e00006003200dc
:103e38001e007800904078006e40900000c070002e
:103e480020479800080037001e007800904178004d
:103e58006e419000024078000080ea008180ea000c
:103e680000c06100204798002e4090009e00780016
:103e780091407800814f500003003a0040c0b300e1
:103e88002047980027003700ae4090001e007800b9
:103e9800014878007e4090000080fb000000d100bf
:103ea800610060000004e0001c0032002e00900059
:103eb800100078001007980015003700f0438000c4
:103ec8000000e00003003a001e009000f043880064
:103ed80003003700e14380001e009000b000980006
:103ee8001e009000e04388001e009000b000900083
:103ef8002e009000010878009e0090000000eb0062
:103f0800b00098002e00900010007800100798006c
:103f18001e0090000000e000e8ff3a000040eb00bf
:103f280020479800240507002e4090000080fb00e1
:103f38000080fa00000006000000fa001a050700d9
:103f48002105070012003700f04380005042880026
:103f58005042800030009000f043880051428000b9
:103f68000000eb00b00098005042800081842000df
:103f78009c000700f04380000000e00002003a00c7
:103f88000000eb00e04388000b050700060507006a
:103f9800f04380000000e000ebff3a006d003700be
:103fa80092c8bf000040e90092e8b7006044800072
:103fb80050428800504280000000e0005e0032005d
:103fc80050428000805090008140e90001509800e4
:103fd800590037005042800070009000604488000b
:103fe8005242800070448000814480000051980053
:103ff8005042800090007800000720008080600018
:1040080000022000808f50000a003a0050428000d1
:10401800900078000140a0000150a1000160a000bc
:104028000108780050428000818420006d0007005c
:104038003d003700504280009000780000072000c3
:104048008080600000072000808f50001b003a002d
:10405800d9040700504280002000900000000100b1
:10406800d104070050428000100078006f00600003
:104078000000e00004003a0051428000110078007e
:104088000070a100800878005042800090007800fd
:1040980000082000008060000000e00022003200dc
:1040a8005142800050428000204890008050980083
:1040b80050428000850007001b00370050428000f6
:1040c800500090000000e0001700320050428000cd
:1040d8005000900080007800504280002e030700b6
:1040e80050428000e18720002b03070050428000e7
:1040f8008184200028030700514280000000eb0063
:10410800d000980051428000110078000040a100c2
:104118000050a0000060a000800878005042800095
:10412800818420002f0007006044800050428800ee
:10413800a10407009c040700504280000000e00032
:104148000400320050428000005090000004e0005b
:10415800a0ff320092c8bf000004e00090ff3a00c0
:104168004042800050428800504280000000e00039
:104178001600320040428000300090004042880023
:1041880052428000504280001000be00300198006a
:1041980041019800880407007204070082040700a0
:1041a8005042800090007800000720008080600066
:1041b80000052000808f500007003a005042800020
:1041c8008184200007000700030037007a040700f5
:1041d8008104070074040700770407000080fa00d0
:1041e800000006000c00fa0030079800410798000c
:1041f8004e00900090007800210798002e00900053
:104208000000e00009003a004e009000be00900057
:1042180001087800be0090000000eb00b000980094
:104228000000eb0050079800250037000000eb0065
:10423800100798003e009000100078006f40600062
:10424800004f780005003700ae0090001107980075
:104258002e009000b0009000210798002e009000da
:104268000000e000070032009e80fb002e00900056
:10427800100078006f4060000080fb00808f5000c5
:10428800f1ff3d001e0090000000e00004003a002d
:104298004e009000be00900001087800030037002f
:1042a8001e009000be009000310098003e00900073
:1042b800ae009000310098000000eb005007980015
:1042c8005e0090000080fa00000006000a00fa0074
:1042d8003007980060448000200798002e00900066
:1042e8000000e00008003a00be0090006144880029
:1042f800be0090000000eb00f00098000000eb000a
:10430800400798003d0037000000eb0010079800b8
:104318002e00900080509000014f78000b0037006d
:104328002e009000100798002e009000f0009000da
:10433800210798002e0090000000e00003003200e2
:104348002e009000005090001e4f40002e0090005c
:104358000000e000040032003e0090000050900091
:104368009e4f5000eeff31002e0090000000e0004c
:10437800040032002e009000805090001e4078000b
:10438800014f50003e009000005090009e405000a9
:104398003e009000015098002e0090000000e000c0
:1043a800080032003e00900080509000014f7800d5
:1043b8002e009000005090009e4050002e0090006b
:1043c800015098001e0090000000e00003003a0031
:1043d8003e00900060448800030037001e009000f3
:1043e800be009000710098003e009000ae00900062
:1043f800710098000000eb00400798004e00900004
:104408000080fa00000006000200fa00004f780061
:10441800114798001e407800c6e8b7001e40780093
:104428006e00070010c0b3009e4f10002e003a0027
:104438000000eb00800888000000eb00900888006e
:10444800a0c2bf007f406000a0e2b7000000eb0000
:104458003008880000842300600888001061a800e4
:10446800011120009140780000c3b30000c0700023
:1044780010e1b7000000eb00500888000000eb00d6
:10448800700888001e409000674060006740600028
:104498004401dd007109200091407800f0c8b300a4
:1044a80000c060000240700097e0b70084e0a900f7
:1044b8008ce0a8001e4090006740600067406000e4
:1044c8004401dd009109200091407800f0c8b30054
:1044d80000c060000240700099e0b7008560a90044
:1044e8008d60a800060037008d60a9008560a900ce
:1044f80099c0bf00f1c8b3000140600099e0b7005f
:104508000080fa00000006000200fa00004f780060
:1045180010c0b3009e4f100004003a00a1e2a800aa
:10452800a042a80011e1a80001003700a1e2a800fc
:104538000080fa00000006000000fa00c6c8bf00ac
:10454800e14f500005003a0011e1a90010c1bf0079
:1045580001c3b3000140700010e1b700a1e2a90057
:104568000080fa00000006000000fa00a022a8005f
:104578000080fa00000006000000fa00a0c2bf0098
:10458800614060000080fb000080fa000000060027
:104598000000fa00001480000080fa000000060005
:1045a8000000fa008560a9000080fa0000000600fb
:1045b8003400f800881f780008002000a80188004f
:1045c8004f0478000000fa00a022a90084e0a900a6
:1045d8000080fa003400f900004006000200fa00ea
:1045e800004f7800c6e2a800f0f72f0040158800b9
:1045f8000000eb0000158800000e20000015880060
:104608000000eb00101588007010200020158800ad
:104618000008200050158800700020003015880020
:084628000080fa00000006000a
:020000040000fa
:10463000000800009800000000000000c60800000c
:10464000020000000200000000000000c808000096
:1046500002000000020000000000000098080000b6
:104660001e0000000200000000000000000000002a
:104670000000000000000000000003000003000034
:1046800003000000000000000000b6000801000068
:10469000b60800001000000000000000c009000083
:1046a0000200000000000000ca080000a000000096
:1046b00002000000010000000000000000000a00ed
:1046c0000000000000000000006400000000000086
:1046d00000000000e80300000000000000001000df
:1046e000270000000000000000a08600010000007c
:1046f0000000000040420f000000000000008000a9
:1047000096980000000000000000e100f5050000a0
:104710000000000000ca9a003b00000000000000fa
:10472000e40b5400020000000000e8007648170087
:10473000000000000010a500d4e800000000000008
:10474000a0724e0018090000000040007a10f3002b
:104750005a0000000080c600a47e8d000300000007
:1047600000c16f00f2862300000000008a5d78001f
:104770004563010000006400a7b3b600e00d00002f
:1047800000e889000423c7008a0000006a090000cd
:104790002a00000002000000286e75006c6c2900e1
:1047a00000303100323334003536370038394100bb
:1047b0004243440045460000303132003334350076
:1047c00036373800396162006364650066000000b6
:1047d0009409000026000000020000009609bc00b9
:1047e00009000000bc090900000000000200ba0036
:1047f00009000000ba0906000201000000000000e4
:10480000000000000000060002020000000000009e
:10481000ba0900000600000000000000c209000004
:104820000200000002000000010000000000000083
:020000040000fa
:104830000400fa00000f780011079800dc0207005e
:104840009e0078000000eb00800878001e007800d1
:104850009e009000110098009e00780030c0b300c8
:10486000c0409800d60207000000eb000080fa006c
:10487000000006000800fa001007980021079800c1
:1048800062479800ca0207000040eb00004f780022
:104890001e009000100090000000e00003003200b5
:1048a0001e4078000040e800004f78009e407800ed
:1048b0006e4190001e0090005c000700004f7800e1
:1048c0001e4078000080fb004300de0061006000b5
:1048d0000004e000080032001e00900090009000ec
:1048e0002e009000010878009e0090000000eb0070
:1048f00090009800090037001e4078000080fb00ff
:104900004200de00610060000004e00003003200ad
:10491000ae0090000000eb0080087800a8020700bd
:104920001e4078000080fb000080fa0000000600b6
:104930000600fa0010079800210798009c02070063
:104940009e009000c0842000808f50000400390039
:10495000618720001e009000810f50000300360088
:1049600020c0b300004f78002b0037001e009000dd
:1049700040409000e34f50000300320060c0b3009d
:10498000004f7800240037001e00900010009000b7
:104990000000e0000300320040c0b300004f780088
:1049a0001d0037001e009000ae009000110098001e
:1049b0001e00900010007800000f78001e007800a4
:1049c0000000e00012003200f04380000000e00030
:1049d00003003a001e007800f0438800030037000f
:1049e000e14380001e007800b00098001e007800af
:1049f000e04388001e007800b00090001e00900088
:104a0000010878009e0078000000eb00b0009800dc
:104a10000040eb00004f7800690207001e4078005c
:104a20000080fb000080fa00000006000800fa0089
:104a30001007980041479800524798005042800064
:104a400090007800000720008080600000062000b1
:104a5000808f50000d003a00514280001100780014
:104a60000040a0000050a1000060a0008008780075
:104a700051428000110078000070a1008008780089
:104a80005000200030079800580037005042800046
:104a9000b00090000140a0000150a1000160a00002
:104aa000310098004e4090000004e00027003200e2
:104ab00050428000900078000008200000806000d4
:104ac0000000e0001a00320051428000110078001e
:104ad0000070a100800878005042800050009000d3
:104ae0000000e00005003200504280008000eb0032
:104af0005100980050428000e100070080c0b300e0
:104b0000004f780051428000110078000040a00062
:104b10000050a1000060a000800878001e407800ce
:104b20000004a0000080fb00300798002f00370031
:104b300051428000110078000070a00080087800c9
:104b40002100200031079800280037005e409000c7
:104b50000004e00007003a00514280001100780094
:104b60000040a1000050a1000060a0008008780073
:104b700015003700504280009000780000072000a8
:104b80008080600000052000808f50000e003a00f9
:104b900051428000110078000040a1000050a100a7
:104ba0000060a0008008780050428000de40900045
:104bb00001509800504280009e00900051009800e3
:104bc00050428000c3fd0700514280001100780070
:104bd0000070a000800878009e0090005042800085
:104be00082fd070020002000300798003e00900062
:104bf0000080fa00000006000400fa00000f7800b0
:104c000021479800ea0107009e0078000000eb00b1
:104c1000800878002e409000e14060001e0078007f
:104c2000214098009e00780010c0b300c04098005a
:104c3000e30107000000eb000080fa00000006001e
:104c40000600fa001007980041479800d8010700b5
:104c50001e00900020409000004f78009e40780099
:104c60004e4190001e00900070ff0700004f78003a
:104c70001e4078000080fb004300de006100600001
:104c80000004e000030032009e0090000040eb00b2
:104c9000a0409800ca0107001e4078000080fb0079
:104ca0000080fa00000006000400fa0010079800d7
:104cb000bf0107009e009000c0842000808f50003c
:104cc00004003900618720001e009000810f500011
:104cd0000300360020c0b300004f78002b003700df
:104ce0001e00900040409000e14f50000300320051
:104cf00060c0b300004f7800240037001e00900011
:104d0000204090000004e0000300320040c0b300e7
:104d1000004f78001d0037009e00900010c0b300c7
:104d2000a04098001e00900010007800000f78004e
:104d30001e0078000000e00012003200f043800006
:104d40000000e00003003a001e007800f0438800f5
:104d500003003700e14380001e007800b000980097
:104d60001e007800e04388001e007800b00090002c
:104d70001e009000010878009e0078000000eb0003
:104d8000b00098000040eb00004f78008c01070055
:104d90001e4078000080fb000080fa000000060042
:104da0000c00fa0030079800410798004e00900070
:104db00090007800110798000000eb002007980091
:104dc0003e009000b0009000010f780024003700f2
:104dd0009e0090003e009000808f50001b003a0023
:104de0002e0090000000e00003003a004e0090000a
:104df0001e087800030037002e0090009e00780007
:104e000031009800ce009000c0882000808f5000b4
:104e10000b003a001e00e000090032003e00900046
:104e200000509000404798001e007800805090008d
:104e30004e40900080c040001e0078000150980055
:104e40000000eb00500798000a0037009e00900019
:104e5000210798001e009000b000900011079800f4
:104e60001e0090000000e000d9ff3a001000200072
:104e7000500798005e0090000080fa0000000600d5
:104e80000a00fa003007980060448000100798007c
:104e90000000eb00200798003e009000f00090001a
:104ea000010f7800200037009e0090003e00900027
:104eb000808f500017003a002e0090000000e000a4
:104ec00003003a001e0078006044880003003700a9
:104ed0002e0090009e007800710098001e00e000f7
:104ee000090032003e0090000050900040479800ba
:104ef0001e007800805090004e40900080c040001e
:104f00001e007800015098000000eb004007980058
:104f10000a0037009e009000210798001e009000b4
:104f2000f0009000110798001e0090000000e000c3
:104f3000ddff3a0010002000400798004e0090006e
:104f40000080fa00000006000800fa00000f780058
:104f500011079800424798009e00900000802000b2
:104f6000808f500004003900618320001e009000f3
:104f7000810f500003003600200020003007980009
:104f80002a0037000a0107009e0090000000eb0095
:104f9000900098004e409000804078000174a1007d
:104fa0001e009000240007009e0090001100780071
:104fb0000040a0000050a1000060a100800878001f
:104fc0009e009000110078000070a1008008780019
:104fd0001e0090009e007800210098007044800020
:104fe00081448000804078001e00900001509800ad
:104ff0004e4090000004e000090035009e00900043
:10500000110078000040a0000050a1000060a00046
:1050100080087800818420001e00900073fc070047
:10502000e70007000000eb00300798003e0090000a
:105030000080fa00000006000600fa001007980041
:10504000414798004e409000ef4f50000500360059
:10505000f0c0b3004047980010c0b300004f780084
:10506000020037000040eb00004f78004e409000f7
:10507000ef4060009e019000130078008180fb00eb
:105080006f81600001ff2f000100600002007000ce
:10509000800978001e80fb000080fa0000000600f6
:1050a0000400fa00000f780021479800324798006a
:1050b0000000eb00200888000000eb0000088800da
:1050c0001e007800100888002e40900063406000a9
:1050d000634060004401dd004110200091407800f1
:1050e000f0ccb30000c060000240700004e1b700e3
:1050f0008c60a8008460a9003e409000674060007a
:10510000674060004401dd005109200091407800b3
:10511000f0c8b30000c060000240700095e0b70026
:105120000080fa00000006000000fa0005e1a80077
:105130000080fa00000006000000fa0005e1a90066
:105140000000eb00000888000080fa000000060064
:105150000400fa00000f78002147980032479800b9
:10516000f5ff07003e419000ae4090001e00780021
:10517000cbff0700ecff07000080fa0000000600ec
:105180000000fa008460a9000080fa000000060018
:105190000400fa0020479800314798008400070077
:1051a0002e4090000004e00008003a0051428000c8
:1051b000110078000040a0000050a1000060a10094
:1051c000800878007e000700240037003e409000f1
:1051d0000004e00003003a002e409000004f7800e9
:1051e00010003700ae409000014f78005042800020
:1051f000005090001e4f40007044800081448000a9
:10520000804078001e407800014f500002003700b7
:105210002e4090001e4f40002e4090009e4f1000e8
:10522000fbff3e001e04e0000b00320051428000f4
:10523000110078000040a1000050a0000060a10013
:1052400080087800504280009e407800015098000d
:10525000504280001ffc0700590007000080fa0040
:105260000000060000000600310620008100e90071
:10527000feff3a0000000600610c20008100e900fa
:10528000feff3a0000000600215c20008100e900da
:10529000feff3a000000060001002c008100e9003a
:1052a000feff3a000000060001002c008100e9002a
:1052b000feff3a0001002c008100e900feff3a00e9
:1052c00001002c008100e900feff3a00000006000a
:1052d0000200fa00704480008144800061004000b8
:1052e000e0804800704488008144880092c8bf0074
:1052f000e14f40000600320092c8bf000040e800c5
:1053000092e8b7000000eb00000f780002003700c1
:1053100010002000000f78001e0078000080fa00c6
:10532000000006000000fa000000eb004042880088
:105330000000eb00504288000000eb006044880051
:105340000040eb0092e8b7006000b80070448800ad
:10535000814488000000eb00e04388000000eb007f
:10536000f04388000080fa00000006000000fa0008
:10537000af44880050428000900090008187470031
:10538000a00090000140010050428000efb897005b
:1053900021009800a1448000e480400081805700f3
:1053a00011009800ae4480000080fa000000060062
:1053b0000000fa00ff3ffc000080fa000000060039
:1053c0000000fa000000fc000080fa000000060067
:1053d0000000fa000060fe000080fa0000000600f5
:0c53e0000000fa000080fa000000060047
:00000001FF
