:020000040000fa
:080000000001040000000000f3
:020000040000fa
:10020000afa820000eff20000e01880000000000b3
:100210000c000700a0d721000100200011000700fa
:10022000000020000000e000020032000000020098
:100230000000000018200200000000000040da006a
:100240000000fe004440a900400220000000e00041
:100250000300320000002000a00188004440a800f4
:100260000000060091018800800078000000eb008b
:1002700015003700e280400032a0b4009101ba00be
:10028000e280400032a0b4009102ba00e280400057
:1002900032a0b4000002eb00472bde00f507b200ed
:1002a000602ce10004003a000059eb008301e900f2
:1002b000fdff3e00040037006128e100010032002c
:1002c0000082eb00040007001101ba000200e00008
:1002d000e8ff3a00000006003159ba008301e90046
:1002e0000c0032002159ba008301e90008003200f5
:1002f0000400e00003003a00e280400032a0b400b5
:10030000f5ff370011d9ba008301e900faff3a007e
:100310008100e800e180400032a0b4000000060047
:100320000040da000000fe000a00fa0080017800b8
:10033000e20f500028003e0040548000e10f5000c2
:1003400008003200e02120000000e000050032003b
:100350006421200085212000a62120008001780052
:1003600004003700c4202000e520200006212000e2
:1003700043212000144090000004e00004003500f8
:100380008009eb00144090000074a0001042980017
:10039000154090000028a30003003a00154090008b
:1003a0000024a000904298008001eb000700370075
:1003b000154090000008a300fdff320063c07800e4
:1003c0000000fb00000b78008301e800828f5100e1
:1003d000f7ff3a000800370030002000b0bf9f0050
:1003e000c3bf9f00d1bf9f00e2bf9f006a8057003c
:1003f00000c0da006fb99700020078000080fa00b0
:1004000000000600889fbe008a9fbe00010578009c
:100410000100e0000400350008003c000000e0009e
:10042000200032000500370060001000e080180056
:1004300002003b0001f02c001a0037000004be004f
:100440006011b8006b0920000982cf00020039005a
:100450000882cf000441b000694252000e00320011
:1004600008003b0082817100610164008904d100b1
:100470000884d3008b05e8000442e800f9ff3a0045
:10048000050037000804440089844c008b05e9000e
:100490000442e900fbff3a00970007000af0a700ba
:1004a00001f0a0004f05be004f04be000000060092
:1004b00003f0a200889fbe008a9fbe008c1f7800b8
:1004c000b3000700ba0033006450e1004f0032006f
:1004d0006420e1005200320003826c0007003b0000
:1004e0000905d0000306d000820f54000c065d0001
:1004f000020039000200320089017800030678000a
:100500008582550004003d000003fd008103fd00cd
:100510008502ea008b854200840f720002003b00d6
:1005200060001000e08018006011b8000005eb00ca
:100530007a28e1000a00390006007800c75ddd0076
:10054000f707b200878075002d00370082817100a7
:100550000a017800610560008180d1000080d3002d
:100560008502e900f9ff3b0006044000878448004b
:1005700002003b0060041400e0841c000988a30012
:10058000070032008a81710082817100610164007c
:100590008904d1000884d3008b05e80017003700d8
:1005a0000978a30013003a000b00e00013003400a8
:1005b0008b05e9000804440089844c000a44740057
:1005c0000978a3000d003a000b00e000070034009a
:1005d0008b05e9000804440089844c0001003a00be
:1005e0000b0020000978a300f7ff32000001eb00a8
:1005f00002003700828171000a0178003e00070086
:100600000cf0a70001f0a000720037006420e100a8
:1006100002003a00838f6c00720033000801be00b4
:100620000200be006b003700889fbe008a9fbe009c
:100630008c1f7800560007005d00330003866c00b5
:100640006450e100240032006420e1002700320001
:100650006150e100220032006120e10021003200ff
:100660008b854200eb07b1000134b800003ab800b6
:100670000804420089844a00013ab8000030b800fa
:100680008880400009014a00040033000000400057
:1006900081804800020149008b05e900c909dd009d
:1006a000830170000100320013002000c814de0036
:1006b0004814dd004709de001200b200c808de0061
:1006c000088470000c00070001f0a1000cf0a700e6
:1006d00001f0a0003f0037006120e100410032003e
:1006e0000801be000200be00f7ff37006150e100c4
:1006f000fcff3a003b00370081002000618055007c
:100700000b003d000b00200061fe2f000100e10006
:100710001d00340082817100610164008904d100f0
:100720000884d3000000e800faff3a0071002000be
:1007300061006400030070000200600009003200e4
:1007400061044400e0844c000988a50005003200e3
:100750008b05e8006808e10002003a008904d10036
:100760000884d300f20f20000258e10005003d008c
:10077000c75ddd00f907b2008980750008007800c8
:10078000000006000bf827008b0078000000050031
:100790000004be00160007000003be000405be00f2
:1007a0000200be0012000700844f75000000060022
:1007b0000200be006450e100050036006420e10044
:1007c000020036000968a30001003a000800be00dc
:1007d0000160a0004f0678004f05be004f04be0028
:1007e00000000600f0ff2f00f1ff2700f9ff37009f
:1007f000c70ade00f107b200f50fb20008003200b0
:10080000e1cf4200020032000170a0002400050088
:10081000810f70000100320004080500440005004b
:10082000810f700002003a00140005008502e90003
:100830000000400081c04800fcff3b000170a000a8
:10084000240005002800fa00889fbe008a9fbe0091
:100850008c9fbe0003866b00170307000028a300cf
:1008600064003a000128a30067003a000008a300d2
:1008700062003a000108a30065003a001e009000e3
:10088000be08900081064000ed3fb100f4805700a3
:10089000ee019000111ab8008e099000311bb800cb
:1008a0009e099000311cb800511db800f485570016
:1008b00046000700fe0190003a0007008b85e80023
:1008c0003e0007008e09900040000700ee019000f6
:1008d000340007008b85e800380007008e0990007f
:1008e000400007009e0990001b18b80089044000d2
:1008f0000a854800fe019000340007008b85e8005f
:1009000038000700ee019000300007008e099000cb
:100910001b18b800890440000a8548000a98a30003
:1009200008003a000402420085824a0006034b0098
:1009300087834b0008044c0089844c000a054d0055
:100940008d06e90084827200850273004c3add0056
:10095000850272000100320015002000443ade00da
:100960001400b2004538de00cb45dd000b007000fe
:10097000c540de00cb4ddd008b8070004549de00b8
:10098000cb55dd000b017100c551de000d03780071
:10099000e202070003f0a1000cf0a70003f0a000a2
:1009a000d90237001b18b8008502400006834800b2
:1009b000e0834b0060044c00070037001b18b800b0
:1009c0000603400087834800faff37001b18b80071
:1009d0008703400008844800e0844c0060054d0017
:1009e000000006001b18b800080440008984480075
:1009f000faff37000108a300c0023a005800be0009
:100a00005801be00e3ff37000008a300bb023a0014
:100a100009047800f9ff37008103780074ff0700ac
:100a20000001be006000b8000478a30013003a0083
:100a30006220e10015003e000d0039008301d10065
:100a40000281d3008180d3008301d1000281d300d1
:100a50008180d3008301d1000281d3008180d30043
:100a60000538b000c42add00f300b20083817200b3
:100a700007f0a70003f0a00000000600f3ff270026
:100a8000f2ff2f006110b900fbff370003ff2700c2
:100a9000f7ff37008f1fd100cc0207008f87e900d6
:100aa0000000e00000000600801feb00c702070006
:100ab0008f87e9000000e000000006001400fa0043
:100ac000889fbe008a9fbe008c9fbe000005be00ae
:100ad0000206be00680047000c90be000a90be00ef
:100ae000e30207006400e1001a00320016003e0035
:100af0006100e1001a0032006e049000fe049000d4
:100b00000e0b90009e0b90006011b8009e059000a7
:100b10000b38b100d50120008281710061016400b1
:100b20008703d1000683d3008984d3000884d300cf
:100b30008502e900f8ff3a00effe07000df0a7007c
:100b400001f0a00070023700f1ff2700f0ff2f0036
:100b50006d02370001f8270000002000f7ff370082
:100b60006000b800f5ff3700e802070005097800cb
:100b700000000600809feb00940207008f87e900c9
:100b80000000e000000006002800fa00889fbe0078
:100b90008a9fbe008c9fbe0007067800878669008a
:100ba0000c003b00030478008704780008f0a100e3
:100bb00009f0a100840f5000858f5800860f59005e
:100bc000890f5c00030033000cf0a20001003a0022
:100bd0000cf0a100380207006400e1005f00320061
:100be000780147006408e100610032006c014700b1
:100bf000748557003200be001201be003a04be00e8
:100c00001a05be001e039000be0a90008503530023
:100c100006003d000004fd008104fd000205fd000a
:100c20008305fd008703ea00050378000df8a300a3
:100c30000400320060041400e0841c0060051d0004
:100c4000e0851d006022b8007d0320000d38e10022
:100c50008006eb000b0039004433dd00f300b200e6
:100c60008301730039003700848272000d0278001e
:100c7000e10664008b85d1000a85d3008984d30006
:100c80000884d3008703e900f7ff3b000800400019
:100c9000898048000a0149008b81490004003b001b
:100ca00060001000e080180060011900e081190068
:100cb0000358a300090032008d8272008482720002
:100cc000610260008301d1000281d3008180d300e2
:100cd0000080d3000603e8001b0037000348a30090
:100ce00017003a000600e000170034000603e90090
:100cf0000d00a30000004800818048000201490067
:100d0000838149000348a3000f003a000600e00079
:100d1000090034000603e90000004000818048001b
:100d2000020149008381490001003a000003eb0001
:100d30000348a300f5ff32006022b800020037002c
:100d40008482720061826600f401070003f0a10052
:100d50000cf0a70003f0a000eb013700640147008e
:100d60006408e10002003a000df8a300e3013a0034
:100d70003200be001201be00e30137001400fa0089
:100d8000889fbe008a9fbe008c9fbe000004be00ec
:100d90000205be00680047000a90be000890be0031
:100da000330207000070a7000bf0a1000bf8a300ae
:100db00020003a009e0990000e099000fe0090006d
:100dc0006e0090009e029000344320008482520006
:100dd000cd0132000a003c00b4fc2f000428e100e1
:100de000140034008301d1000281d3008180d3003c
:100df0000080d3008502e800faff3a00c201370004
:100e0000b40020000428e10007003c00000040007e
:100e10008180480002014900838149008502e90080
:100e2000faff3a00b8013700030028000200200052
:100e3000010037006011b8006000b800b20137004f
:100e40002800fa00889fbe008a9fbe008c9fbe00cb
:100e500003866b00980107006400e1004400320043
:100e60006408e1004a0032006100e10046003200ff
:100e70006108e10049003200ec0647006000b8005c
:100e80003d02be003d03be00f48657006011b8006d
:100e90003d04be003d05be007d0320000b00370071
:100ea0000000a0008d06e900130032000402420099
:100eb00085824a0006034b0087834b0000004000f8
:100ec00081804800020149008381490008025200e4
:100ed00089825a000a035b008b835b00f0ff3b00b2
:100ee0000802420089824a000a034b008b834b00b0
:100ef0008d06e900edff3a0084827200868272005e
:100f0000f707b2008782720001003200150020004e
:100f10001e0490003e0b900006035400e63fb00014
:100f20000368a300070032000000a7000500a0002e
:100f30008301d1000281d3008180d3000080d300df
:100f40000603e8008301d1000281d3008180d30031
:100f50000080d3000002eb000482d2006f01070082
:100f600003f0a1000cf0a70003f0a0006601370019
:100f7000640247006408e100600132003400be00f2
:100f80003401be00f6ff37006108e1005b0132006a
:100f90006011b8006000b800f1ff370003ff2700c0
:100fa00002002000fbff3700889fbe00830478000a
:100fb0000300e0002c00350003003c0000827000bc
:100fc000040271002600320036432000c5002000d4
:100fd0008383cf000a0039000541b1008283cf002e
:100fe000070039000541b1008183cf0004003900ba
:100ff0000541b1008083cf00010039000541b100f7
:1010000085c353006022b800120032000a003b0082
:1010100084827200610260008301d1000281d300ea
:101020008180d3000080d3000603e8008743e800f6
:10103000f7ff3a00070037000000400081804800b9
:1010400002014900838149000603e9008743e90062
:10105000f9ff3a003101070009f0a70003f0a000f2
:101060004f04be000000060060001000e080180081
:1010700060011900e0811900d3ff3b00033e2c0002
:10108000f7ff370007f0a200bffe3700881f780087
:10109000000478005001be004000be000400400083
:1010a000858048000601490087814900009cbe00f8
:1010b0000294be000400e1000588e1000690e10012
:1010c0000798e10002003100680044001008e800c1
:1010d0004f04780000000600f4874700889fbe0098
:1010e0008a9fbe008c9fbe008e1f78000205be0046
:1010f0000004be00d4b79f00e5b79f00f6b79f007d
:1011000087bf9f000000eb00c0b79f00b0b79f00f3
:10111000a0b79f0090b79f0080b79f000d042000ec
:10112000bfb097004fb09700000140000000e00002
:101130000f003d004f08de0000007100c0b79f00a7
:101140009e00070001003d0012002000a1000700e2
:1011500001003d0012002000a6000700b1000700ba
:10116000b60007000f004000c8ff0700220037004c
:101170004f08de0000067100ccb79f008f0007000b
:1011800001003d00120020009200070001003d0018
:101190001200200097000700a20007000fb297007e
:1011a0009fb297002fb39700bfb39700a900070025
:1011b0000000520081805a0002015b0083815b00c5
:1011c00080b79f0091b79f00a2b79f00b3b79f0061
:1011d0000007eb009f0007000020e10001a8e100ec
:1011e00002b0e10003b8e100010031001e00200060
:1011f0000e005600c0b79f004fb297000400e000f9
:101200000700350010002000010020006011b80028
:1012100008047000898470000a0571008b857100d4
:101220008d06e900beff3a000400e00003003d0027
:10123000820007000f00400094ff07004fa89700ae
:101240000000e00004003a000fb497009fb497003c
:101250002fb59700bfb59700940007004f0778009f
:101260004f06be004f05be004f04be004f01b10047
:1012700000000600881f780018002000881f7800f2
:1012800095ff07008f87e9004f04780000000600f3
:10129000801feb0090ff07008f87e9000000060029
:1012a000889fbe008a9fbe008c1f78006e000700da
:1012b00007003d0073000700e00f5b00e08f5b005c
:1012c00007003d00320007000006eb000400370075
:1012d0003400070002003d002a0007001c00200027
:1012e00072000700e3ff07000203be000002be0019
:1012f0000c00e00001003200220007000400be00e4
:101300000601be004f0678004f05be004f04be0028
:1013100000000600889fbe008a9fbe008c1f7800d8
:101320005100070005003d0056000700e00f5b007c
:10133000e08f5b0006003d00040037001900070045
:1013400003003d006000b8006011b8001000070005
:1013500056000700ceff07000203be000002be00d9
:101360000c00e00001003200060007000400be008f
:101370000601be004f0678004f05be004f04be00b8
:10138000000006006000b8006011b80000003700df
:1013900004025000858258000603590087835900d3
:1013a000000006000006eb00e00f5200e08f5a003c
:1013b000e00f5b00e08f5b00000006000180400052
:1013c00090b79f000001eb008fb097000100e00094
:1013d000000006000200700090b79f0001804000ee
:1013e00080b79f000001eb00ffa897000100e0001c
:1013f000000006000200700080b79f0001804000de
:101400006faa9700cf20de0001007000f0af9f00b0
:1014100004024200250007004f18de00000272009f
:1014200000000600e4af9f000804440089844c00db
:101430000a054d008b854d00000006003fb2970065
:10144000cfb297005fb39700efb3970000fe2f0075
:10145000000006003fb09700cfb097005fb1970043
:10146000efb19700000006000205be000004be00b8
:10147000e00f5000e08f5800e00f5900e08f590056
:10148000000006006000b8006011b80008045000b9
:10149000898458000a0559008b8559001c002000da
:1014a000e00f5200e08f5a00000006000800be0066
:1014b0000a01be0000000600680447000294be0056
:1014c0000094be00fc0447008694be008494be00d5
:1014d0000900780066000700080078006400070033
:1014e00099007800814f70000b003b000800be009f
:1014f000930007004f00b10003003700f3ff2700ff
:10150000f2ff2f006110b9004f06be004f05be006c
:101510004f04be000080fa00000006001800200002
:1015200057002000080453000d003d000600200075
:1015300097fc2f000740e1001e00340084827200f7
:10154000610260008301d1000281d3008180d30059
:101550000080d3000804e800f8ff3a0047002000ac
:101560006104600005047400040464000d0032008e
:1015700061004000e080480060014900e0814900ce
:1015800003b8a500070032000603e8006538e10053
:1015900004003a008301d1000281d3008180d3008e
:1015a0000080d300f87f20000830e1000300350000
:1015b000080378006000b8006011b8004433dd0013
:1015c000f300b2008301730000000600889fbe0094
:1015d0008a9fbe008c9fbe000404be000605be00ac
:1015e000809fbe00829fbe00630007000406780053
:1015f0000800be000a01be005f00070084067800f4
:101600004f03be004f02be008d4f76007fb09700a3
:1016100013003300f0ff2f008b8f6b0006003b00a0
:101620000d0666000c00a7000a00370007f0a600b0
:10163000100020000a003700880f5200898f5a00de
:101640008a0f5b008b8f5b000300390010002000c5
:1016500001003e000000200007f0a7000000ea00a3
:101660004f06be004f05be004f04be00000006003e
:10167000800078005002be005003be004439de00f6
:10168000f700b200f37f200003016100090032007f
:101690000218e10016003a00850172008301730010
:1016a000838173000008200015003a0040002000ec
:1016b000130037008501720083017300838173007a
:1016c00005003a0004a8be0006a8be0010002000d5
:1016d0000b0037000201e9000402420085824a0043
:1016e00006034b0087834b000748a300f9ff320035
:1016f0000740a00004a8be0006a8be0020002000ed
:101700008000980092009800000006000003be00d0
:1017100037fc07006220e100020032000600be0034
:1017200005000500e507b100f107b20004f0230051
:101730008480700007f0a70001f0a00024000500dd
:10174000e48240001078a3000700320064024000e9
:101750001178a3003400be001401be000400320062
:101760000330a700000006003500be001501be00d2
:101770000330a0000000060005ff2700058261007d
:10178000070032000428e1000100320024000500b7
:101790000600070001003a004400050004080500a7
:1017a00002000700f9ff3a00140005006f82610093
:1017b000810270008502710085027200000006003f
:1017c0000c00fa00889fbe0000047800cfb097009c
:1017d000f0ff2700d0bf9f008004eb0099bf9f005f
:1017e00088bf9f00a8bf9f00200c2000b0bf9f00b3
:1017f00078815700708057005f0007000fb897008e
:10180000094878000fb897000804500008007800d5
:101810004f04be000080fa0000000600889fbe0052
:101820008a1f7800804078000004e00021003d001d
:101830008040ea00d0c6b30080cf500009003400d9
:101840008104fb0042062000110009008204d80038
:1018500000017800010078004311dd002a83200098
:101860001f0037000100fb002383200039003700f0
:10187000a2002000110009000200d8000001780039
:10188000010078004311dd00030141004300dd0049
:10189000030040003002be002003be004220900042
:1018a000d2209000f221900062219000e5fb070019
:1018b0002e003700d0c6b30080cf50002300340084
:1018c0008104fb0042062000110009008204d800b8
:1018d00000017800010078004311dd002a8e20000d
:1018e0000a014100a8002000110009000800d800ea
:1018f0004300dd000a00400040229000d02290000a
:1019000060239000f023900002889000928890005d
:10191000b289900022899000cafb0700801f7800de
:1019200001027800110009008804d8000102fd00be
:101930004f0078000402fb004322dd000a0242004f
:101940005403be004402be00d8ff37000100fb0074
:10195000238e2000eacf5000c5ff3c004300dd008d
:10196000030040005001be004000be004f0578005b
:101970004f04be00000006008f03b000889fbe0029
:101980008a9fbe008c9fbe008e1f7800e0b79f002c
:10199000f1b79f0082bf9f000000eb00a0b79f003f
:1019a000e60437008001eb0050c2b30080cf500046
:1019b000090032000100fb00efb09700ec040700c3
:1019c000e10f4000dd043200afb097008100e80075
:1019d000a1b79f00d90437007fb1970092407800eb
:1019e000d0c2b30080cf50000c00320007003c0092
:1019f0006d40500080cf50000d0032006b40400021
:101a000080cf500019003a000e00370000c3b30029
:101a100080cf500015003a000f0037000330a000bf
:101a20007fb297000402e800f4b79f00eaff370096
:101a30000300a000ffb297008502e800f5b79f0001
:101a4000e5ff37000310a0007fb697000c06e80002
:101a5000fcb79f00e0ff37000320a0007fb0970095
:101a60000000e800f0b79f00dbff37000318a30079
:101a7000010032000300a1000338a300010032007e
:101a80000320a1000100fb0002fd2f000200400026
:101a9000e90f500010003e008000eb00c1b79f002e
:101aa000020278004fb197006a10b900ffb29700a8
:101ab0001501fb000001410004014100c2b79f0075
:101ac0005500fb00f5b79f0004004000e90f5000ef
:101ad0000d003e00f3ff37000006eb00ccb79f007f
:101ae000a0c2b30080cf500007003a000fb89700a3
:101af000c000780080bf9f00c1b79f007fb19700f2
:101b00000201e800f2b79f00e0c2b3007fb2970085
:101b1000944f100021003a00830678000de0a000e9
:101b20008400e80064405000914f1000040032002f
:101b3000f1b79f008002eb00b5b79f00100037009f
:101b40000fbe97004c0078008cbf9f00b0b79f007d
:101b5000ffb097008180e800f1b79f0013003700c5
:101b60003fb297006a20b900000041000300400026
:101b7000b0b79f00ffb297008502e800f5b79f005d
:101b80007fb697001c01fb0003fd2f0003004100fe
:101b9000e90f5000f2ff360004003700830678009a
:101ba0000dc0a0000000eb00b0b79f007fb1970010
:101bb000b2407800f2b79f00c17f9f00c0c6b3005b
:101bc00080cf50002700320014003c0068405000d5
:101bd00080cf50009d00320009003c006c40500056
:101be00080cf5000290032006b40400080cf500071
:101bf000720032000104e000560432008e0037000b
:101c000060c6b30080cf50001c003200634040002b
:101c100080cf500088003a008c00370030c7b300f6
:101c200080cf50001c00320007003c006440500090
:101c300080cf5000130032000040e80080cf5000f9
:101c40007d003a001100370050c7b30080cf50002c
:101c50007d0032006340400080cf500076003a00a3
:101c60000b003700000028000d48a30001003a00d7
:101c70000001200080867600ccff37000da0a00078
:101c8000720037000d60a000700037000d50a000fa
:101c90000d70a0006d0037008fb9970043007800e9
:101ca00083bf9f00000478000000e00001003a00bc
:101cb00028a320008004eb00010037008104e80025
:101cc00089007800088044001004e000fbff3a001f
:101cd0003fb297000400e00003003200890f520079
:101ce00001003100840478000007eb00cfb29700b8
:101cf000898f520001003600098752004368de00d8
:101d0000e106600019003a000d067800090037006e
:101d1000efb097000002200015040700e10f40001b
:101d2000030032002fb097000000e800a0b79f002a
:101d30000c06e8008e0f5600f5ff3a000087eb0016
:101d40000a003700880078003100fb0001047800a9
:101d5000efb0970006040700e10f400003003200d7
:101d6000afb097008100e800a1b79f000900e9002b
:101d700080047800e10f4000f2ff3a000006eb001b
:101d80000d00e0000a003a00ec033700efb09700c6
:101d900000022000f6030700e10f400003003200bc
:101da0002fb197000201e800a2b79f000c06e800df
:101db0008e0f5600f5ff3a00e00337008fb9970009
:101dc0004300780083bf9f00cf80de0001017800d0
:101dd000820178000205be000004be000203be00be
:101de0000002be004822de00482edd00040276001c
:101df000c47f9f000d48a3000a0032000404e000e5
:101e000008003200e14f420006003200d1fb2f00f3
:101e100001804700044878001840980029002000fd
:101e200002003700d07f9f0019002000d2fb2f0056
:101e300002844700a6ff3700c3fb2f00038447003e
:101e400019002000a2ff37000d0cb3000070200025
:101e500000826600270232000dc8a3000200320093
:101e600064002000b4b79f000d48a30005003200b5
:101e70000fba97004401be004400be0084bf9f001b
:101e8000040037008fba97004500be0085bf9f0051
:101e9000e1fa0700e0af9f00f1af9f0082b79f001b
:101ea00093b79f006022b8006033b8006fa8970016
:101eb000ffa897000fb197009fb19700f5fa0700b0
:101ec0000000e0000a003d006fa89700ffa89700ff
:101ed0000fb197009fb1970003f0a200e0af9f0001
:101ee000f1af9f0082b79f0093b79f003d00b30002
:101ef0000000eb0080a79f006022b8006033b800ac
:101f00006fa89700ffa897000fb197009fb19700a7
:101f1000e5fa07000000e000340032006fa89700e7
:101f2000ffa897000fb197009fb19700e3fa070051
:101f300003fc2f00038147000bfb07000fa0970055
:101f40000000e9006300b900a200200011000900b0
:101f50000200d8008000fd0081a79f000100e00082
:101f600002003d000100e90080a79f000fa4970038
:101f70000840ea0029fe07006faa9700ffaa970011
:101f80000fb397009fb397002efa0700a0af9f00f2
:101f9000b1af9f00c2af9f00d3af9f006022b800d7
:101fa0000600200007ff2300bafa07000000e00047
:101fb00002003d000800e9000b0037006022b80075
:101fc00006002000470224002fa89700bfa8970012
:101fd0004fa99700dfa99700e6fa07000000e0008c
:101fe000020035000800e80080a79f003fb297007c
:101ff000f80f520057003c00d0c6b300804f52008b
:10200000290036000485fb0042062000110009006b
:102010000285d80000017800010478004311dd003a
:102020002b8320000b0141006022b8000600200035
:1020300007fe23000288900092889000b2899000e9
:1020400022899000fff90700a9002000809fbe00b0
:10205000110009000984d800000478004f00be0078
:102060004344dd000b04440048229000d822900035
:1020700068239000f8239000f2f90700801f780091
:1020800001027800110009000985d8000102fd0055
:102090004f0078004322dd000b0242005403be00d3
:1020a0004402be001f0037000480fb00298320008b
:1020b000ea4f520014003600a2002000110009006f
:1020c0000280d80000017800010478004311dd008f
:1020d000090141006022b8000600200007fe23002d
:1020e00042209000d2209000f221900062219000c6
:1020f000d4f907004344dd00090444003802be005f
:102100002803be00070037004300dd00090040003f
:102110006022b8000600200007fe23005001be0028
:102120004000be00c7f907000002be000203be0067
:102130006fa89700ffa897000fb197009fb1970075
:1021400091fa0700e0af9f00f1af9f0082b79f00b8
:1021500093b79f000fa49700e90f540015003c00af
:102160006022b8006033b8006fa89700ffa89700fe
:102170000fb197009fb197004bfa07000000e000f5
:10218000320032006fa89700ffa897000fb19700a8
:102190009fb19700f9fa0700e00f5000e08f580058
:1021a000e00f5900e08f590028003a00e10f540079
:1021b000260034000400200005002e00b6e02200b6
:1021c000170124002fa89700bfa897004fa99700d8
:1021d000dfa997002ffa07000000e00002003d0091
:1021e00073005400010037007200540080a79f0064
:1021f0000fc0970089fd0700a0af9f00b1af9f00ff
:10220000c2af9f00d3af9f000002be000203be001a
:102210006fa89700ffa897000fb197009fb1970094
:1022200007fb0700d5fa07000205be000004be0048
:102230006000b8006011b800a0a79f00b1a79f0080
:10224000c2a79f00d3a79f002e0037006fa897005a
:10225000ffa897000fb197009fb19700c7fa07003a
:102260000205be000004be00e00f5000e08f5800e1
:10227000e00f5900e08f5900020035004afb0700cb
:102280001300370010002000010020006011b8008a
:1022900008006000898060000a0161008b81610094
:1022a0008b03d1000a83d3008982d3000882d30034
:1022b000000072008180720002017300838173004c
:1022c00039fb07000002be000203be002efa070021
:1022d0000002be000203be006fa89700ffa897008f
:1022e0000fb197009fb1970066fb0700a0a79f0062
:1022f000b1a79f00c2a79f00d3a79f000000eb00db
:1023000080a79f0014c0b300259920000b00370060
:102310000400fb004300dd00050040005001be004a
:102320004000be000040e10001c8e10002d0e10031
:1023300003d8e100030039000442e800f44f5200e2
:10234000f3ff3a00c47f9f000400fb00bfb097007a
:10235000008040008fa09700010040004fb197001f
:1023600000075100bfb197000300e00001003200f8
:102370000e07e90063806600010032000e07e900e5
:102380000d28a30026003200e18066000d18a3008e
:102390000c003200d00220000100e00001003a00f1
:1023a0000080e900efb0970071020700e10f4000e4
:1023b000180032002fb297000402e800a4b79f0073
:1023c000140037000100e00012003200efb0970067
:1023d0000002200066020700e10f40000d003200fd
:1023e000afb297008502e800a5b79f00090037004b
:1023f000efb09700000320005d020700e10f4000ee
:10240000030032002fb697000c06e800acb79f001f
:102410000e07e9000e00e000f5ff3c003d0037002c
:102420000d38a3000a0032000b003700efb0970010
:10243000000220004e020700e10f400003003200be
:102440002fb097000000e800a0b79f000e07e9003a
:102450000e00e000f5ff3c00e18066000d18a300cf
:102460000c003200d00220000100e00001003a0020
:102470000080e900efb097003d020700e10f400047
:1024800024003200afb097008100e800a1b79f00a0
:10249000200037000100e0001e003200efb097007e
:1024a0000002200032020700e10f40001900320054
:1024b0002fb197000201e800a2b79f001500370076
:1024c0000000fb004300dd002199200001004000d6
:1024d0003002be002003be000800be000a01be009c
:1024e00064fb0700a4002000050020006033b80052
:1024f00067fb07000003b000efb097001c02070065
:10250000e10f400003003200afb197008301e80003
:10251000a3b79f004f7a97000440e900c07f9f0057
:10252000e14f4000e6ff3a000b003700efb09700a4
:10253000000320000e020700e10f400003003200fc
:10254000afb297008502e800a5b79f000fa09700e3
:102550000000e90080a79f000fa097000000e000a6
:10256000f2ff3c003fb6970020c1b300f20f5600c7
:1025700001003c006fe09700c07f9f00cf7897007c
:102580000100fb003fb1970000005100e0a79f0051
:102590000104e00008003200efb09700e0022000e4
:1025a000f3010700e10f400003003200afb19700d4
:1025b0008301e800a3b79f004f78970097fc0700be
:1025c0000002be000203be002fa09700bfa097002c
:1025d0004fa19700dfa197009af80700e7f90700dd
:1025e0001e0037000000fb004300dd002c99200096
:1025f0000c0040003002be002003be000800be00f8
:102600000a01be001bfb0700a400200005002000fb
:102610006033b8001efb07000003b000efb0970066
:10262000d3010700e10f4000030032002fb29700f2
:102630000402e800a4b79f00cf7a97000500fb00d2
:102640004300dd000c0040003002be002003be004d
:102650000800be000a01be000dfb07000205be0017
:102660000004be004f7e97000c40e900c07f9f0031
:10267000e14f4000dbff3a000006eb0009003700a5
:10268000efb0970000032000b9010700e10f400000
:10269000030032002fb097000000e800a0b79f00b1
:1026a0000c06e800efa09700810f5600f4ff3a00f7
:1026b0000d38a300a10132000e00e0009f0134009c
:1026c0000006eb00efb0970000022000a801070011
:1026d000e10f4000030032002fb197000201e80033
:1026e000a2b79f000c06e8008e0f5600930132003f
:1026f000f4ff37000d007800000cb20028003a000b
:102700000d00e00005003d008fb997004305be00b5
:102710004304be0083bf9f00140037000d48a30090
:102720000b0032000fba97004400be0084bf9f0028
:102730004f89de00cf91de000002be000203780068
:10274000820378000605be000404be0007003700bf
:102750008fba97004500780085bf9f00000478007d
:10276000cfc4de00090578008a057800e00f540028
:10277000e08f5c00e00f5d00e08f5d0020003d0019
:102780003d00b3006000b8006011b80008045000bc
:10279000898458000a0559008b85590018003700b4
:1027a0000d00e00005003d000fbe97004c05be0087
:1027b0004c04be008cbf9f00110037000d48a300e1
:1027c000080032008fba97004500be0085bf9f0009
:1027d00004017800840178000205be000004be00f8
:1027e000070037000fbe97004c0078008cbf9f0099
:1027f00000047800090020000a0020000b002000df
:102800003fb097000000e00007003a00e00f5400de
:10281000e08f5c00e00f5d00e08f5d0002003a0099
:1028200011002000b1b79f000d0778000e0cb20018
:1028300000042000800f57002f00320003003c00ee
:102840000e00e000070032003f00370000082000c3
:10285000800f570014003200000c2000800f57003a
:1028600039003a0014c0b300259920000b0037004e
:102870000400fb004300dd00050040005001be00e5
:102880004000be000040e10001c8e10002d0e100cc
:1028900003d8e1002b0039000442e800f44f520055
:1028a000f3ff3a002700370000012000010020005c
:1028b0006011b80014c0b3000040e10001c8e1009d
:1028c00002d0e10003d8e1001e00390045002000dd
:1028d0000000d0008180d2000281d2008381d2002a
:1028e0008502e900faff3a000442e800f04f520086
:1028f000f1ff3a00130037008000200001002000a3
:102900006011b80014c0b3000040e10001c8e1004c
:1029100002d0e10003d8e1000a0039003c002000a9
:102920000000d0008180d2000281d2008381d200d9
:102930000c06e900faff3a000442e800f54f5200a5
:10294000f1ff3a00c47f9f00cf7897000100fb00a1
:102950003fb19700820f500002003d00c27f9f00f0
:1029600004003700bfb19700808f510001003d0087
:10297000b0b79f004fb297000400e000040032009f
:1029800063806600020032000402e900c4b79f00c1
:102990000de8a3000b003200cfb297003fb69700be
:1029a0008c8f520003003c000000eb00c0b79f007a
:1029b00004003700cfb097003fb1970082805000ed
:1029c000c1b79f00cf7997000300fb000002eb0026
:1029d00094a79f00cfb29700808f5200020034006e
:1029e0000080520090a79f000d28a30037003200fe
:1029f000e18066000d18a3000c003200d002200018
:102a00000100e00001003a000080e900efb097000b
:102a1000d7000700e10f40000e0032002fb69700ec
:102a20000c06e800acb79f000a0037000100e00088
:102a300008003200efb0970000022000cc00070031
:102a4000e10f4000030032002fb097000000e800c3
:102a5000a0b79f009fa097000100e0000f00320088
:102a60000006eb00efb0970000032000c000070055
:102a7000e10f4000030032002fb197000201e8008f
:102a8000a2b79f000c06e8009fa19700830f560095
:102a9000f4ff3a000002eb0094a79f00bfb297003a
:102aa000c328dd00a09820008080400091af9f00e7
:102ab0004228dd006400500080af9f006328b90009
:102ac000f0a79f0063065000820037001fa6970002
:102ad0000c00e00011003200688066000f003a0030
:102ae00000067800efb0970000022000a000070069
:102af000e10f4000030032002fb097000000e80013
:102b0000a0b79f000c06e8009fa09700810f560019
:102b1000f4ff3a000001eb0092a79f00e1806600fd
:102b20000d18a3000c003200d00220000100e000cc
:102b300001003a000080e900efb097008c00070028
:102b4000e10f4000d5ff3200afb197008301e800ec
:102b5000a3b79f00d1ff37000100e000cfff320094
:102b6000efb097000002200081000700e10f400055
:102b7000caff32002fb297000402e800a4b79f00fa
:102b8000c6ff370000042000800f570030003200dd
:102b900003003c000e00e000070032003d0037005b
:102ba00000082000800f570011003200000c2000a8
:102bb000800f570037003a001fa897003002be0070
:102bc0002003be000800be000a01be00a9f90700ec
:102bd000a4002000050020006033b800acf9070015
:102be00004c3b30004424000c47f9f0029003700a3
:102bf00095a32000d5b79f000d58a30002003a000e
:102c0000a0a42000d0b79f001400200005002000e1
:102c10006033b8008fa897008100e90005003300f9
:102c20000402d0008582d2000683d2008783d200be
:102c3000f9ff37000800be000a01be008df9070049
:102c40006f0060005fb197006240780010003700ad
:102c500014002000050020006033b8008c017800cb
:102c60008301e900050033000402d0008582d20010
:102c70000683d2008783d200f9ff37000800be0028
:102c80000a01be007bf90700674060000043b00006
:102c9000c07f9f004f7a97000400fb00efb09700c1
:102ca00033000700e10f400003003200afb297008d
:102cb0008502e800a5b79f001fa897006800500094
:102cc00090af9f008fa89700e480500081af9f00d5
:102cd00063065600d0ff2f003fb197000090b90067
:102ce000ffa197000080410063005000800f560054
:102cf000a4ff3a000d38a300100032001fa2970075
:102d00000400e0000d0034000006eb00efb0970077
:102d10000002200016000700e10f4000030032000f
:102d2000afb297008502e800a5b79f000c06e80047
:102d30001fa09700800f5600f4ff3a007fb1970064
:102d4000b2407800f2b79f00c17f9f000104e0000d
:102d500014fb3a002fb097004f0778004f06be00d3
:102d60004f05be004f04be008f03b10000000600f7
:102d7000889fbe000001780001047800b100900037
:102d80000118a3003d0032000198a30003003a009f
:102d9000180090000000e00038003a000190a00008
:102da0003104980082047800f90fb20018009000f6
:102db0000000e00002003a0028009000000c7800bb
:102dc000ea8f540006003a00380090000078a30013
:102dd00003003a0088007800d0002000e4ff0700dc
:102de0009800900058009000808f50000b00320037
:102df0000100e800100498001800780009587800d5
:102e0000000c780011c0b30060a8200001487800d1
:102e1000ea8f54000600320019003700880078005d
:102e2000094078001900070080047800140037007a
:102e3000380090000088a3001100320018019000b3
:102e4000a80090004800900037f507009800900017
:102e5000810f500004003200380090000003b300de
:102e6000300498008084eb000000eb001004980010
:102e700028009000000c7800010037008084eb00ef
:102e8000090078004f04be00000006000200fa00ae
:102e9000889fbe00a0ff9f0001047800b100900051
:102ea000810478000904b200020032000000fb0037
:102eb000360037000118a30005003a000103b300f3
:102ec00031049800190498000080eb002f003700af
:102ed000580090000000e00006003a004800900012
:102ee00012002000e68057000ff507001904980033
:102ef00024003700280090000000e00008003a009d
:102f000020a8200020049800000c78002000200059
:102f100050049800100498000130a000310498007b
:102f200018019000a800900048009000fef40700ef
:102f300028009000000c78000080eb00100498003e
:102f400018007800aff8970001587800000c78005e
:102f50002ff89700ea4f50000a003a00380090001e
:102f60000088a3000700320018019000a80090001c
:102f700048009000ecf4070019049800a8009000a5
:102f8000010c7800aff897000100fb004f04be0071
:082f90000080fa0000000600b9
:020000040000fa
:1000080090010000900100009001000090010000a4
:100018009001000090010000900100009001000094
:10002800900100009001000090010000581f00009e
:100038009001000090010000900100009001000074
:10004800900100009001000090010000bc1f00001a
:100058009001000090010000900100009001000054
:100068009001000090010000900100009001000044
:100078009001000090010000900100009001000034
:100088009001000090010000900100009001000024
:100098009001000090010000900100009001000014
:1000a8009001000090010000900100009001000004
:1000b80090010000900100009001000090010000f4
:1000c80090010000900100009001000090010000e4
:1000d80090010000900100009001000090010000d4
:1000e80090010000900100009001000090010000c4
:0800f8009001000090010000de
:020000040000fa
:1001080090010000900100009001000090010000a3
:100118009001000090010000900100009001000093
:10012800900100009001000090010000581f00009d
:100138009001000090010000900100009001000073
:10014800900100009001000090010000bc1f000019
:100158009001000090010000900100009001000053
:100168009001000090010000900100009001000043
:100178009001000090010000900100009001000033
:100188009001000090010000900100009001000023
:100198009001000090010000900100009001000013
:1001a8009001000090010000900100009001000003
:1001b80090010000900100009001000090010000f3
:1001c80090010000900100009001000090010000e3
:1001d80090010000900100009001000090010000d3
:1001e80090010000900100009001000090010000c3
:0801f8009001000090010000dd
:020000040000fa
:102f9800507200006f6400002e25000069200000b8
:102fa8002d200000252e000032660000204500007c
:102fb8002f4b000067000000252e0000326600003d
:102fc800204b000067200000252e0000326600001c
:082fd80020450000000000008c
:020000040000fa
:102fe0000000fa00c6c2a900cde2a900d902a900da
:102ff0006305070000c3b3000b0107005c05070071
:1030000000c3b300080107005505070000c3b30063
:10301000050107006500070080c3b3000201070037
:103020006200070080c3b300830007005f00070051
:1030300080c0b300800007005c00070010c0b30030
:103040007d0007005900070060c0b3007a00070048
:103050005600070055000700c0c0b3007600070007
:10306000520007000080fa00000006000000fa008d
:1030700010c0b300700007004c0007000080fa0089
:10308000000006000000fa0020c0b3006a0007003c
:10309000460007000080fa00000006000000fa0069
:1030a00000c8b30064000700400007000080fa0079
:1030b000000006000000fa0000ccb3005e0007002c
:1030c0003a0007000080fa00000006000200fa0043
:1030d000000f780005003700340007001e0078005c
:1030e00010407800150107001e0fe8001e00780050
:1030f000104078000004e000f7ff3a000080fa007a
:10310000000006000000fa0000c1b3004a000700fa
:10311000260007000080fa00000006000000fa0008
:1031200040c1b30044000700200007000080fa00ff
:10313000000006000000fa0080c1b3003e00070056
:103140001a0007000080fa00000006000000fa00e4
:10315000e0c1b30038000700140007000080fa0047
:10316000000006000000fa00c0c0b30032000700f3
:103170000e0007000080fa00000006000000fa00c0
:10318000e0c0b3002c000700080007000080fa0030
:10319000000006000000fa00f0c0b300260007009f
:1031a000020007000080fa00000006000200fa009a
:1031b00010c0b300004f7800d262a800d242a8002d
:1031c000d222a800d202a800dea2a800de82a800b7
:1031d000de22a800de02a800dd040700d1e2a9007b
:1031e000dd02a800da040700d90407000d0037004b
:1031f000cac2a800d6040700d5040700d4c2bf0085
:103200000080fb004300de0061406000004f78005a
:10321000cf040700ce040700cac2a900cc040700ef
:10322000cb0407001e04e000f1ff3a00dd02a90014
:103230000080fa00000006000200fa00004f78004b
:10324000d1e2a900dd02a900d262a900d242a90000
:10325000d222a900d202a900dea2a900de82a90022
:10326000de22a900de02a9009e00fb00000820006b
:10327000008060004780de006140600061406000c7
:103280004301dd00612d20009140780070cfb30034
:1032900000c0600002407000d6e2b7009e00fb0054
:1032a00000042000008060004680de006140600075
:1032b000614060004201dd00612d200091407800f6
:1032c000b0cfb30000c0600002407000d6e2b7008b
:1032d0009e00fb0000022000008060004580de00b0
:1032e000614060006140600000414000612d2000ad
:1032f00091407800d0cfb30000c060000240700061
:10330000d6e2b7001e00fb00700060004480de00c3
:103310006140600061416000612d200091407800b3
:10332000e0cfb30000c0600002407000d6e2b700fa
:103330001e00fb00680060004380de00614060000a
:10334000614060004501dd00212e200091407800a1
:10335000f0cdb30000c0600002407000e2e2b700b0
:103360001e00fb00640060004280de0061406000df
:10337000614060004401dd00212e20009140780072
:10338000f0ceb30000c0600002407000e2e2b7007f
:103390001e00fb00620060000080d1006140600000
:1033a0006140600000414000212e200091407800e3
:1033b000d0cfb30000c0600002407000e2e2b7006e
:1033c0001e40780061406000614060006140600024
:1033d00061416000212e200091407800e0cfb300d1
:1033e00000c0600002407000e2e2b700580407002d
:1033f000cac2a80056040700cac2a90054040700a4
:10340000d262a800d242a800d222a800d202a8000c
:10341000dea2a800de82a800de22a800de02a8004c
:103420000080fa00000006000200fa00004f780059
:10343000d1e2a900dd02a900d262a900d242a9000e
:10344000d222a900d202a9009e00fb0000082000a1
:10345000008060004780de006140600061406000e5
:103460004301dd00612d20009140780070cfb30052
:1034700000c0600002407000d6e2b7009e00fb0072
:1034800000042000008060004680de006140600093
:10349000614060004201dd00612d20009140780014
:1034a000b0cfb30000c0600002407000d6e2b700a9
:1034b0009e00fb0000022000008060004580de00ce
:1034c000614060006140600000414000612d2000cb
:1034d00091407800d0cfb30000c06000024070007f
:1034e000d6e2b7001e00fb00700060004480de00e2
:1034f0006140600061416000612d200091407800d2
:10350000e0cfb30000c0600002407000d6e2b70018
:103510000f040700cac2a8000d040700cac2a90010
:103520000b040700d262a800d242a800d222a80051
:10353000d202a8000080fa00000006000200fa0093
:10354000004f7800d1e2a800dd02a900d262a900f4
:10355000d242a900d222a900d202a900dea2a9006b
:10356000de82a900de22a900de02a9009e00fb0087
:1035700000082000008060004780de00614060009d
:10358000614060004301dd00612d20009140780022
:1035900070cfb30000c0600002407000d6e2b700f8
:1035a0009e00fb0000042000008060004680de00da
:1035b00061406000614060004201dd00612d20003b
:1035c00091407800b0cfb30000c0600002407000ae
:1035d000d6e2b7009e00fb000002200000806000e1
:1035e0004580de00614060006140600000414000b5
:1035f000612d200091407800d0cfb30000c0600062
:1036000002407000d6e2b7001e00fb0070006000b0
:103610004480de006140600061416000612d200057
:1036200091407800e0cfb30000c06000024070001d
:10363000d6e2b7001e00fb00680060004380de0099
:1036400061406000614060004501dd00212e2000e6
:1036500091407800f0cdb30000c0600002407000df
:10366000e2e2b7001e00fb00640060004280de0062
:1036700061406000614060004401dd00212e2000b7
:1036800091407800f0ceb30000c0600002407000ae
:10369000e2e2b7001e00fb00620060000080d10083
:1036a000614060006140600000414000212e200028
:1036b00091407800d0cfb30000c06000024070009d
:1036c000e2e2b7001e4078006140600061406000a7
:1036d0006140600061416000212e2000914078002f
:1036e000e0cfb30000c0600002407000e2e2b7002b
:1036f00097030700cac2a80095030700cac2a90021
:1037000093030700d262a800d242a800d222a800e8
:10371000d202a800dea2a800de82a800de22a80055
:10372000de02a800dd02a900d1e2a9000080fa00b3
:10373000000006000000fa00c602a900c622a90087
:10374000c642a900d202a800d222a800d242a800f4
:10375000d262a8000080fa00000006000200fa0011
:10376000d202a800d222a800d242a800d262a800a9
:10377000c602a900c622a800c642a800ca02a90023
:10378000ca22a800ca42a8006d030700d4c2bf0025
:10379000614060000004e00003003a000000eb001c
:1037a000000f78005a003700d4c2bf0062406000aa
:1037b0000004e00003003a0030002000000f780011
:1037c00053003700d4c2bf00644060000004e00032
:1037d00003003a0060002000000f78004c00370022
:1037e000d4c2bf00684060000004e00003003a005b
:1037f00090002000000f780045003700c602a800a6
:10380000c622a900c642a800ca02a800ca22a9006e
:10381000ca42a8004a030700d4c2bf00614060004a
:103820000004e00003003a0010002000000f7800c0
:1038300037003700d4c2bf00624060000004e000df
:1038400003003a0040002000000f780030003700ed
:10385000d4c2bf00644060000004e00003003a00ee
:1038600070002000000f780029003700d4c2bf008c
:10387000684060000004e00003003a00a00020005f
:10388000000f780022003700c602a800c622a80058
:10389000c642a900ca02a800ca22a800ca42a900ba
:1038a00027030700d4c2bf00614060000004e000ad
:1038b00003003a0020002000000f780014003700b9
:1038c000d4c2bf00624060000004e00003003a0080
:1038d00050002000000f78000d003700d4c2bf0058
:1038e000644060000004e00003003a008000200013
:1038f000000f780006003700d4c2bf0068406000a7
:103900000004e0009aff3a00b0002000000f7800a9
:103910001e0078000080fa00000006000200fa0095
:10392000d202a800d222a800d242a800d262a800e7
:10393000c602a900c622a800c642a800ca02a90061
:10394000ca22a800ca42a800fd020700d4c2bf00d4
:10395000614060000004e00003003a000000eb005a
:10396000000f780060003700d4c2bf0062406000e2
:103970000004e00003003a0030002000000f78004f
:1039800059003700d4c2bf00644060000004e0006a
:1039900003003a0060002000000f7800520037005a
:1039a000d4c2bf00684060000004e00003003a0099
:1039b00090002000000f78004b003700c602a800de
:1039c000c622a900c642a800ca02a800ca22a900ad
:1039d000ca42a800da020700d4c2bf0061406000fa
:1039e0000004e00003003a0010002000000f7800ff
:1039f0003d003700d4c2bf00624060000004e00018
:103a000003003a0040002000000f78003600370025
:103a1000d4c2bf00644060000004e00003003a002c
:103a200070002000000f78002f003700d4c2bf00c4
:103a3000684060000004e00003003a00a00020009d
:103a4000000f780028003700c602a800c622a80090
:103a5000c642a900ca02a800ca22a800ca42a900f8
:103a6000b7020700d4c2bf00614060000004e0005c
:103a700003003a0020002000000f78001a003700f1
:103a8000d4c2bf00624060000004e00003003a00be
:103a900050002000000f780013003700d4c2bf0090
:103aa000644060000004e00003003a008000200051
:103ab000000f78000c003700d4c2bf0068406000df
:103ac0000004e00003003a00b0002000000f78007e
:103ad00005003700c602a800c622a800c642a800fa
:103ae0000080eb00000f78001e0078000080fa00d4
:043af00000000600cc
:020000040000fa
:103af4000008000032000000020000000000000086
:103b040000003f00000080003f0000000040000073
:103b140000000000000000000000000000000000a1
:103b24000000000000000000000000000000000091
:103b34000000000000000000000000000000000081
:103b440092090000a0000000020000000100000033
:103b54000000000000000a00000000000000000057
:103b6400006400000000000000000000e803000002
:103b7400000000000000100027000000000000000a
:103b840000a08600010000000000000040420f0079
:103b94000000000000008000969800000000000073
:103ba4000000e100f50500000000000000ca9a00d2
:103bb4003b00000000000000e40b54000200000081
:103bc4000000e80076481700000000000010a5007f
:103bd400d4e8000000000000a0724e0018090000a4
:103be400000040007a10f3005a0000000080c60074
:103bf400a47e8d000300000000c16f00f286230044
:103c0400000000008a5d7800456301000000640044
:103c1400a7b3b600e00d000000e889000423c70044
:103c24008a000000320a00002a000000020000009e
:103c3400286e75006c6c290000303100323334007a
:103c440035363700383941004243440045460000c8
:103c54003031320033343500363738003961620090
:103c64006364650066000000320800006001000023
:103c7400020000000000000000000000f03f00000f
:103c84000000a0009999b9003f0000000040e10045
:103c94007a843f0000000000e04d6200503f0000c5
:103ca4000000e000e2361a003f0000000080b5008a
:103cb400f8e43e0000000000a0f7c600b03e00009b
:103cc4000000a000f2d77a003e00000000e08e0061
:103cd40079453e0000000000e00b2e00113e00007c
:103ce4000000e000df7cdb003d0000000000a100dc
:103cf4009cc73b0000000000004c4800b4390000a1
:103d040000000000206ca10037000000000000004b
:103d1400000000000000000000000000000000009f
:103d2400000000000000000000000000000000008f
:103d3400000000000000000000000000000000007f
:103d4400000000000000000000000000000000006f
:103d5400000000000000000000000000000000005f
:103d6400000000000000f0003f0000000000000020
:103d74000024400000000000000000005940000042
:103d84000000000000408f00400000000000000020
:103d940088c340000000000000006a00f8400000f2
:103da4000000000080842e00410000000000d000cc
:103db40012634100000000000084d7009741000016
:103dc4000000000065cdcd004100000000205f0030
:103dd400a002420000000000801daf001544000056
:103de40000004000593e2900460000000000000089
:103df40000f07f000000000000000000f07f0000e1
:103e0400000000000000f0007f000000000000003f
:103e140000f07f000000000000000000f07f0000c0
:103e2400000000000000f0007f000000000000001f
:103e340000f07f000000000000000000f07f0000a0
:103e4400000000000000f0007f0000005c0a000099
:103e540026000000020000005e0a84000a00000040
:103e6400840a090000000000020082000a00000029
:103e7400820a0600020100000000000000000000a9
:103e8400000006000202000000000000820a000098
:103e94000600000000000000880a00000200000084
:0c3ea4000200000001000000000000000f
:020000040000fa
:103eb0003600f800809fbe00829fbe00849fbe0037
:103ec000869fbe00881f78003400f80000002000a4
:103ed000a00188005800fa00ed0007000004e0008f
:103ee0001b003200f0000700000478006140b900b8
:103ef00044f10700202f9800312f98000800e000bf
:103f000007003d0002002000037824002e289000c6
:103f1000be28900067f10700202f9800312f9800ed
:103f20009280220003ba23002e289000be28900021
:103f3000bdf10700008fbe00d1000700c1022000c4
:103f40008e804000640047001e01be00660007002e
:103f50008460a9000080fa003400f9004f04780062
:103f60004f03be004f02be004f01be004f00be0017
:103f70003600f900004006003600f800809fbe00c1
:103f8000829fbe00849fbe00869fbe00881f78006f
:103f90003400f80000002000a00188005800fa005a
:103fa000c1000700000478006140b90015f1070066
:103fb000202f9800312f98000800e00007003d00f6
:103fc00002002000037824002e289000be289000d4
:103fd00038f10700202f9800312f9800928022009e
:103fe00003ba23002e289000be2890008ef107000f
:103ff000008fbe00c10220008e8040006400470098
:104000001e01be00380007008560a9000080fa008c
:104010003400f9004f0478004f03be004f02be0089
:104020004f01be004f00be003600f9000040060000
:104030000400fa00bffd0700b5000700e8fb070019
:1040400010c0b3005900070010c0b3007f00070084
:1040500031c0b30000102e00060107000000370039
:10406000befd070000e8b70000c8bf000080fb00ed
:10407000100798001e009000ea0f50001100320057
:104080001e009000eb0f500001003200f4ff3700db
:10409000770007000040eb00440007000040eb0001
:1040a0006a0007007600070031c0b30000102e0040
:1040b000180107000d010700100020009d000700f7
:1040c000e7ff37000d0107006900070010c0b300cb
:1040d0003600070010c0b3005c000700100020008d
:1040e000bc000700deff37000800fa00000f780070
:1040f00011079800220798003307980000c8bf00f6
:104100000080fb00c200dd00208020000080400015
:104110001001be0000c8bf000080fb000000e800e6
:10412000829fbe00801f7800c07c2900801f78001d
:104130001e007800a2f50700e887570000c8bf00fe
:104140000080fb00c200dd002080200000804000d5
:104150001000be002e019000be01900032f1070059
:10416000809fbe002e009000be009000809fbe0089
:10417000007e2900801f78001e00900090f5070047
:10418000ea875700c5fb07001e007800cffb070039
:10419000c8fb07001e009000ccfb07008560a9004b
:1041a0000000eb000080fa00000006000200fa00a8
:1041b000004f78001e4078003f00070010c0b30099
:1041c0009e4f100019003a00a042a800212a2000aa
:1041d00091407800c0c3b30000c07000a2e2b700f5
:1041e000412a20009140780000ccb30000c060005c
:1041f000f041b300a4e2b700a5c2bf00f041b30094
:10420000a5e2b7008d60a8008560a9009109200093
:1042100091407800f0c8b30000c0600001c4b30052
:104220000140700099e0b700060037008d60a800db
:104230008560a90099c0bf00f1c8b30001406000cb
:1042400099e0b7000080fa00000006000200fa00c2
:10425000004f7800a1e2a80010c0b3009e4f1000ec
:1042600001003a00a022a8000080fa000000060029
:104270000000fa00a1e2a9000080fa000000060098
:104280000000fa00a022a8000080fa00000006004a
:104290000000fa00a0c2bf00614060000080fb0087
:1042a0000080fa00000006000000fa000014800000
:1042b0000080fa00000006000200fa00004f7800bb
:1042c000c6e2a8000000eb0000158800012a2000cb
:1042d0009140780000ceb30000c07000a0e2b700ab
:1042e0000000eb0010158800200020002015880039
:1042f0007000200030158800f0f72f00401588006e
:104300000000eb00501588000080fa000000060055
:104310000000fa00d802a900d822a900d842a900ba
:10432000d862a900d882a900d8a2a9000080fa000a
:10433000000006000400fa00004f78001e80fb0019
:10434000100798001e009000e20f50001800320085
:104350001e009000e20f500007003c001e0090007d
:104360000000e0000e0032001e009000e10f50003f
:104370000d003200150037001e009000e40f5000c1
:104380000f0032001e009000e40f50000a003500bc
:104390001e009000e50f50000b0032000b003700ac
:1043a000dc02a80009003700dc22a8000700370063
:1043b000dc42a80005003700dc62a80003003700db
:1043c000dc82a80001003700dca2a8000080fa000f
:1043d000000006000400fa00004f78001e80fb0079
:1043e000100798001e009000e20f500018003200e5
:1043f0001e009000e20f500007003c001e009000dd
:104400000000e0000e0032001e009000e10f50009e
:104410000d003200150037001e009000e40f500020
:104420000f0032001e009000e40f50000a0035001b
:104430001e009000e50f50000b0032000b0037000b
:10444000dc02a90009003700dc22a90007003700c0
:10445000dc42a90005003700dc62a9000300370038
:10446000dc82a90001003700dca2a9000080fa006c
:10447000000006000400fa00000f780021479800b1
:104480000000eb00200888000000eb000008880016
:104490001e007800100888002e40900063406000e5
:1044a000634060004401dd0041102000914078002d
:1044b000f0ccb30000c060000240700004e1b7001f
:1044c0008c60a8008460a900510920009140780008
:1044d000f0c8b30000c0600001c4b3000140700028
:1044e00095e0b7000080fa00000006000000fa0026
:1044f00005e1a8000080fa00000006000000fa00b4
:1045000005e1a9000000eb00000888000080fa0027
:10451000000006000400fa00000f78002147980010
:10452000f6ff0700ae4090001e007800d1ff0700a4
:10453000eeff07000080fa00000006000000060001
:10454000310620008100e900feff3a00000006006d
:10455000610c20008100e900feff3a000000060027
:10456000215c20008100e900feff3a000000060007
:1045700001002c008100e900feff3a000000060067
:1045800001002c008100e900feff3a0001002c0030
:104590008100e900feff3a0001002c008100e900e3
:0845a000feff3a0000000600d6
:00000001FF
