:020000040000fa
:080000000001040000000000f3
:020000040000fa
:100200000f8a20000eff20000e0188000000000071
:100210000c000700e06c2100010020001100070025
:10022000000020000000e000020032000000020098
:10023000000000003c0e0200000000000040da0058
:100240000000fe004440a900000020000000e00083
:100250000300320000002000a00188004440a800f4
:100260000000060091018800800078000000eb008b
:1002700015003700e280400032a0b4009101ba00be
:10028000e280400032a0b4009102ba00e280400057
:1002900032a0b4000002eb00472bde00f507b200ed
:1002a000602ce10004003a000059eb008301e900f2
:1002b000fdff3e00040037006128e100010032002c
:1002c0000082eb00040007001101ba000200e00008
:1002d000e8ff3a00000006003159ba008301e90046
:1002e0000c0032002159ba008301e90008003200f5
:1002f0000400e00003003a00e280400032a0b400b5
:10030000f5ff370011d9ba008301e900faff3a007e
:100310008100e800e180400032a0b4000000060047
:1003200000000000000000000000000000000000cd
:1003300000000000000000000000000000000000bd
:080340000040da000000fe009d
:020000040000fa
:0200000401f009
:04000000ffbf00003e
:020000040000fa
:0200000401f009
:04000400ff7f00007a
:020000040000fa
:0200000401f009
:040008007cff000079
:020000040000fa
:0200000401f009
:04001400ffff0000ea
:020000040000fa
:10000800a0010000a0010000a0010000a001000064
:10001800a0010000a0010000a0010000a001000054
:10002800a0010000a0010000a0010000a001000044
:10003800a0010000a0010000a0010000a001000034
:10004800a0010000a0010000a0010000a001000024
:10005800a0010000a0010000a0010000a001000014
:10006800a0010000a0010000a0010000a001000004
:10007800a0010000a0010000a0010000a0010000f4
:10008800a0010000a0010000a0010000a0010000e4
:10009800a0010000a0010000a0010000a0010000d4
:1000a800a0010000a0010000a0010000a0010000c4
:1000b800a0010000a0010000a0010000a0010000b4
:1000c800a0010000a0010000a0010000a0010000a4
:1000d800a0010000a0010000a0010000a001000094
:1000e800a0010000a0010000a0010000a001000084
:0800f800a0010000a0010000be
:020000040000fa
:10010800a0010000a0010000a0010000a001000063
:10011800a0010000a0010000a0010000a001000053
:10012800a0010000a0010000a0010000a001000043
:10013800a0010000a0010000a0010000a001000033
:10014800a0010000a0010000a0010000a001000023
:10015800a0010000a0010000a0010000a001000013
:10016800a0010000a0010000a0010000a001000003
:10017800a0010000a0010000a0010000a0010000f3
:10018800a0010000a0010000a0010000a0010000e3
:10019800a0010000a0010000a0010000a0010000d3
:1001a800a0010000a0010000a0010000a0010000c3
:1001b800a0010000a0010000a0010000a0010000b3
:1001c800a0010000a0010000a0010000a0010000a3
:1001d800a0010000a0010000a0010000a001000093
:1001e800a0010000a0010000a0010000a001000083
:0801f800a0010000a0010000bd
:020000040000fa
:100348000000fa00c6c2a900cde2a900d902a9009e
:10035800630a070000c3b300060107005c0a070030
:1003680000c3b30003010700550a070000c3b30028
:10037800000107006500070000c2b300fd00070088
:100388006200070080c2b3007f0007005f0007001b
:1003980080c0b3007c0007005c00070010c0b300f9
:1003a800790007005900070060c0b3007600070015
:1003b8005600070055000700e0c0b30072000700b0
:1003c800520007000080fa00000006000000fa0052
:1003d80010c0b3006c0007004c0007000080fa0052
:1003e800000006000000fa0020c0b3006600070005
:1003f800460007000080fa00000006000000fa002e
:1004080000c8b30060000700400007000080fa0041
:10041800000006000000fa0000ccb3005a000700f4
:100428003a0007000080fa00000006000200fa0007
:10043800000f780005003700340007001e00780020
:1004480010407800100107001e0fe8001e00780019
:10045800104078000004e000f7ff3a000080fa003e
:10046800000006000000fa0000c1b30046000700c3
:10047800260007000080fa00000006000000fa00cd
:1004880040c1b30040000700200007000080fa00c8
:10049800000006000000fa0080c1b3003a0007001f
:1004a8001a0007000080fa00000006000000fa00a9
:1004b800e0c1b30034000700140007000080fa0010
:1004c800000006000000fa00c0c0b3002e000700bc
:1004d8000e0007000080fa00000006000000fa0085
:1004e800e0c0b30028000700080007000080fa00f9
:1004f800000006000000fa00f0c0b3002200070068
:10050800020007000080fa00000006000200fa005e
:1005180010c0b300004f7800d262a800d242a800f1
:10052800d222a800d202a800e1090700d1e2a9005e
:10053800dd02a800de090700dd0907000d0037000d
:10054800cac2a800da090700d9090700d4c2bf0047
:100558000080fb004300de0061406000004f78002f
:10056800d3090700d2090700cac2a900d0090700a9
:10057800cf0907001e04e000f1ff3a00dd02a900e0
:100588000080fa00000006000200fa00004f780020
:10059800d1e2a900dd02a900d262a900d242a900d5
:1005a800d222a900d202a9009e00fb000008200068
:1005b800008060004780de006140600061406000ac
:1005c8004301dd00612d20009140780070cfb30019
:1005d80000c0600002407000d6e2b7009e00fb0039
:1005e80000042000008060004680de00614060005a
:1005f800614060004201dd00612d200091407800db
:10060800b0cfb30000c0600002407000d6e2b7006f
:100618009e00fb0000022000008060004580de0094
:10062800614060006140600000414000612d200091
:1006380091407800d0cfb30000c060000240700045
:10064800d6e2b7001e00fb00700060004480de00a8
:100658006140600061416000612d20009140780098
:10066800e0cfb30000c0600002407000d6e2b700df
:100678008f090700cac2a8008d090700cac2a900cd
:100688008b090700d1e2a900dd02a9001e00fb00ca
:10069800680060004380de006140600061406000e7
:1006a8004301dd00612d20009140780070cfb30038
:1006b80000c0600002407000d6e2b7001e00fb00d8
:1006c800640060004280de006140600061406000bc
:1006d8004201dd00612d200091407800b0cfb300c9
:1006e80000c0600002407000d6e2b7001e00fb00a8
:1006f800620060000080d1006140600061406000dd
:1007080000414000612d200091407800d0cfb30017
:1007180000c0600002407000d6e2b7001e407800ba
:1007280061406000614060006140600061416000bc
:10073800612d200091407800e0cfb30000c0600038
:1007480002407000d6e2b70059090700cac2a800e3
:1007580057090700cac2a90055090700d262a800b4
:10076800d242a800d222a800d202a8000080fa0033
:10077800000006000200fa00004f7800d1e2a9004c
:10078800dd02a900d262a900d242a900d222a900a2
:10079800d202a9009e00fb00000820000080600033
:1007a8004780de0061406000614060004301dd0079
:1007b800612d20009140780070cfb30000c0600028
:1007c80002407000d6e2b7009e00fb000004200043
:1007d800008060004680de0061406000614060008b
:1007e8004201dd00612d200091407800b0cfb300b8
:1007f80000c0600002407000d6e2b7009e00fb0017
:1008080000022000008060004580de00614060003a
:100818006140600000414000612d20009140780057
:10082800d0cfb30000c0600002407000d6e2b7002d
:100838001e00fb00700060004480de006140600024
:1008480061416000612d200091407800e0cfb30045
:1008580000c0600002407000d6e2b700140907002b
:10086800cac2a80012090700cac2a90010090700d5
:10087800d262a800d242a800d222a800d202a800c0
:100888000080fa00000006000200fa00004f78001d
:10089800d1e2a800dd02a900d262a900d242a900d3
:1008a800d222a900d202a9009e00fb000008200065
:1008b800008060004780de006140600061406000a9
:1008c8004301dd00612d20009140780070cfb30016
:1008d80000c0600002407000d6e2b7009e00fb0036
:1008e80000042000008060004680de006140600057
:1008f800614060004201dd00612d200091407800d8
:10090800b0cfb30000c0600002407000d6e2b7006c
:100918009e00fb0000022000008060004580de0091
:10092800614060006140600000414000612d20008e
:1009380091407800d0cfb30000c060000240700042
:10094800d6e2b7001e00fb00700060004480de00a5
:100958006140600061416000612d20009140780095
:10096800e0cfb30000c0600002407000d6e2b700dc
:10097800cf080700cac2a800cd080700cac2a9004c
:10098800cb080700d1e2a800dd02a9001e00fb0089
:10099800680060004380de006140600061406000e4
:1009a8004301dd00612d20009140780070cfb30035
:1009b80000c0600002407000d6e2b7001e00fb00d5
:1009c800640060004280de006140600061406000b9
:1009d8004201dd00612d200091407800b0cfb300c6
:1009e80000c0600002407000d6e2b7001e00fb00a5
:1009f800620060000080d1006140600061406000da
:100a080000414000612d200091407800d0cfb30014
:100a180000c0600002407000d6e2b7001e407800b7
:100a280061406000614060006140600061416000b9
:100a3800612d200091407800e0cfb30000c0600035
:100a480002407000d6e2b70099080700cac2a800a1
:100a580097080700cac2a90095080700d262a80033
:100a6800d242a800d222a800d202a800dd02a90022
:100a7800d1e2a9000080fa00000006000800fa0090
:100a8800004f7800114798002247980023079800e4
:100a980034079800113920009140780080cfb300c6
:100aa80000c060000024a00091e3b70001392000d5
:100ab8009140780000ceb30080c0600000c8b30049
:100ac80080cf5000f9ff3a009163a8002139200037
:100ad8009140780000ccb30000c0600092e3b700fa
:100ae80092c3bf00f043b20092e3b700413920003f
:100af8009140780080cfb30000c0600094e3b70055
:100b0800413920009140780070ccb30000c06000eb
:100b18008041b30094e3b700513920009140780038
:100b280080cfb30000c060000004a00095e3b700c8
:100b38006e63a9008ee3a9008e43a9008e43a90025
:100b4800be009000f07f200080806000f07f2000d1
:100b5800008060004201dd008119800030002e0015
:100b6800008060000200700080198800be009000bc
:100b7800f07f200080806000f07f2000008060000f
:100b88004201dd00c119800030002e0000806000a5
:100b980002007000c01988003003a8003803a800bc
:100ba8000003a9000803a9001003a9001803a9005d
:100bb8002003a9002803a900ae009000f07f2000c0
:100bc80080806000f07f2000008060004201dd002e
:100bd8000118800030002e000080600002007000c4
:100be80000188800ae009000f07f20008080600030
:100bf800f07f2000008060004201dd004118800085
:100c080030002e000080600002007000401888004c
:100c18008118800030002e0000806000c1ff200095
:100c28000100700080188800c118800030002e0074
:100c380000806000c1ff200001007000c01888001b
:100c48000119800030002e0000806000c1ff2000e4
:100c580001007000001988004119800030002e0042
:100c680000806000c1ff200001007000401988006a
:100c78001e4090000004e00003003a002e4090005f
:100c88000004e0000e0032008f60a8008760a90011
:100c98000000eb00c01c88001e4090000004e0002b
:100ca800020032009803a8009603a9002e40900085
:100cb8000004e000020032009843a8009643a9000f
:100cc8009e40780067c060006741600011392000cd
:100cd8009140780080cfb30000c0600002407000ef
:100ce80091e3b70090c3bf000080fb004500de0021
:100cf8008080fb001e80fb00808f5000f9ff3a00c7
:100d08000080fa00000006000000fa0096c3bf0049
:100d18000080fb00610060000080fa00000006000f
:100d28000000fa0096c3bf000080fb004200de000e
:100d38000080fb00610060000080fa0000000600ef
:100d48000000fa008760a9000080fa000000060091
:100d58000000fa009603a9000080fa0000000600cf
:100d68000000fa009643a9000080fa00000006007f
:100d78000800fa00100798002107980062479800b9
:100d88006003a9006023a9001e009000f043b20090
:100d9800f043b200f043b200c200dd0060c3bf0000
:100da800634060000140700060e3b7009e0090005f
:100db800007c2000008060004600de007f4060006c
:100dc800c300dd0061c3bf006740600001407000e0
:100dd80061e3b7006e4090006f4060006f406000b4
:100de8004301dd00413620009140780070c8b3000f
:100df80000c060000240700064e3b7000040eb00f0
:100e0800004f78000b0037001e80fb008000780040
:100e180060362000008140001e80fb0080007800c2
:100e28002e009000008040001040780000497800b3
:100e38001e4fe8006e4090009e4f1000f2ff3900f0
:100e48006e63a8000080fa00000006000200fa00a5
:100e58006ec3bf00684060000004e00003003a0071
:100e680010002000000f7800020037000000eb009f
:100e7800000f78001e0078000080fa0000000600cd
:100e88000000fa00001c80004200de00f17f200014
:100e9800010060000080fa00000006000000fa006f
:100ea80084c3bf006f4060000080fb000080fa0030
:100eb800000006000600fa001007980084c3bf006f
:100ec8006f406000004f78000040eb00104798002a
:100ed800560037001e4090000080fb002007980055
:100ee8002e009000e30f50002c0032002e009000de
:100ef800e30f50000a003c002e009000e10f500064
:100f0800190032002e009000e10f50001e003c0036
:100f18002e0090000000e0000e0032004000370074
:100f28002e009000e50f5000290032002e0090009e
:100f3800e50f5000210035002e009000e60f50000c
:100f48002b0032002e009000e70f50002d003200d9
:100f580033003700301c8000804078001e0090006d
:100f6800014878002e0037001e0090000001e800bc
:100f7800311c800000f02f00008060004800de0077
:100f880000497800260037001e0090008080e800a5
:100f9800401c800080487800210037001e00900027
:100fa80063014000411c800000f02f0000806000b9
:100fb8004800de0000497800190037001e00900044
:100fc800e4004000501c800080487800140037007e
:100fd8001e00900065014000511c800000f02f00a9
:100fe800008060004800de00004978000c003700ef
:100ff8001e009000e6004000601c800080487800d9
:10100800070037001e00900067014000611c800047
:1010180000f02f00008060004800de0000497800e2
:101028001e4090000040e800104798001e409000c5
:101038009e4f5000a7ff39000080fa00000006000c
:101048000000fa008ee3a9000080fa000000060004
:101058000200fa008ec3bf0001c8b300014060005f
:101068000004e0000300320010002000000f7800a8
:10107800020037000000eb00000f78001e00780027
:101088000080fa00000006000000fa00c602a9006d
:10109800c622a900c642a900d202a800d222a800ee
:1010a800d242a800d262a8000080fa000000060020
:1010b8000200fa00d202a800d222a800d242a80058
:1010c800d262a800c602a900c622a800c642a8008b
:1010d800ca02a900ca22a800ca42a800f00607004e
:1010e800d4c2bf00614060000004e00003003a0081
:1010f8000000eb00000f78005a003700d4c2bf0090
:10110800624060000004e00003003a003000200064
:10111800000f780053003700d4c2bf00644060005d
:101128000004e00003003a0060002000000f78008f
:101138004c003700d4c2bf00684060000004e000e3
:1011480003003a0090002000000f780045003700a7
:10115800c602a800c622a900c642a800ca02a80062
:10116800ca22a900ca42a800cd060700d4c2bf00ff
:10117800614060000004e00003003a001000200015
:10118800000f780037003700d4c2bf00624060000b
:101198000004e00003003a0040002000000f78003f
:1011a80030003700d4c2bf00644060000004e00093
:1011b80003003a0070002000000f78002900370073
:1011c800d4c2bf00684060000004e00003003a0099
:1011d800a0002000000f780022003700c602a800f7
:1011e800c622a800c642a900ca02a800ca22a800ae
:1011f800ca42a900aa060700d4c2bf006140600025
:101208000004e00003003a0020002000000f7800ee
:1012180014003700d4c2bf00624060000004e00040
:1012280003003a0050002000000f78000d0037003e
:10123800d4c2bf00644060000004e00003003a002c
:1012480080002000000f780006003700d4c2bf00dd
:10125800684060000004e0009aff3a00b0002000f7
:10126800000f78001e0078000080fa0000000600d9
:101278000200fa00d202a800d222a800d242a80096
:10128800d262a800c602a900c622a800c642a800c9
:10129800ca02a900ca22a800ca42a80080060700fc
:1012a800d4c2bf00614060000004e00003003a00bf
:1012b8000000eb00000f780060003700d4c2bf00c8
:1012c800624060000004e00003003a0030002000a3
:1012d800000f780059003700d4c2bf006440600096
:1012e8000004e00003003a0060002000000f7800ce
:1012f80052003700d4c2bf00684060000004e0001c
:1013080003003a0090002000000f78004b003700df
:10131800c602a800c622a900c642a800ca02a800a0
:10132800ca22a900ca42a8005d060700d4c2bf00ad
:10133800614060000004e00003003a001000200053
:10134800000f78003d003700d4c2bf006240600043
:101358000004e00003003a0040002000000f78007d
:1013680036003700d4c2bf00644060000004e000cb
:1013780003003a0070002000000f78002f003700ab
:10138800d4c2bf00684060000004e00003003a00d7
:10139800a0002000000f780028003700c602a8002f
:1013a800c622a800c642a900ca02a800ca22a800ec
:1013b800ca42a9003a060700d4c2bf0061406000d3
:1013c8000004e00003003a0020002000000f78002d
:1013d8001a003700d4c2bf00624060000004e00079
:1013e80003003a0050002000000f78001300370077
:1013f800d4c2bf00644060000004e00003003a006b
:1014080080002000000f78000c003700d4c2bf0015
:10141800684060000004e00003003a00b0002000cb
:10142800000f780005003700c602a800c622a800f1
:10143800c642a8000080eb00000f78001e0078006c
:101448000080fa00000006000000fa00d802a90097
:10145800d822a900d842a900d862a900d882a90038
:10146800d8a2a9000080fa00000006000400fa00d3
:10147800004f78001e80fb00100798001e009000a7
:10148800e20f50001e0032001e009000e20f5000d4
:1014980007003c001e0090000000e0000e00320033
:1014a8001e009000e10f50001000320028003700a5
:1014b8001e009000e40f50001b0032001e00900038
:1014c800e40f5000130035001e009000e50f500097
:1014d8001a0032001e003700dc02a8009cc8bf00ba
:1014e8000004a0009ce8b70019003700dc22a8001f
:1014f8009cc8bf000014a0009ce8b7001400370087
:10150800dc42a8009cc8bf000024a0009ce8b700eb
:101518000f003700dc62a8009cc8bf000034a000a0
:101528009ce8b7000a003700dc82a8009cc8bf000e
:101538000044a0009ce8b70005003700dca2a80022
:101548009cc8bf0001c2b300014070009ce8b7000e
:101558000080fa00000006000400fa00004f78003e
:101568001e80fb00100798001e009000e20f50003c
:10157800200032001e009000e20f500007003c00df
:101588001e0090000000e0000e0032001e009000d7
:10159800e10f5000110032002d0037001e009000ae
:1015a800e40f50001f0032001e009000e40f5000ae
:1015b800160035001e009000e50f50001f00320095
:1015c80023003700dc02a9009cc8bf00e1cfb300ac
:1015d800014060009ce8b7001d003700dc22a9002c
:1015e8009cc8bf00d1cfb300014060009ce8b700a1
:1015f80017003700dc42a9009cc8bf00b1cfb30078
:10160800014060009ce8b70011003700dc62a900c7
:101618009cc8bf0071cfb300014060009ce8b700d0
:101628000b003700dc82a9009cc8bf00f1ceb300d4
:10163800014060009ce8b70005003700dca2a90063
:101648009cc8bf00f1cdb300014060009ce8b70022
:101658000080fa00000006000400fa002047980005
:101668002e409000e54f500016003e002e4090009e
:101678008080fb00100020000100dd00004f780092
:101688009cc8bf001e4060000004e0000800320053
:101698002e409000b0ff07001e40780080c0ea008e
:1016a8009cc8bf0000c060009ce8b7000500370078
:1016b8002e4090006dff07009cc8bf001e407000c0
:1016c8009ce8b7000080fa00000006000400fa0059
:1016d8002047980010c0b3001047980010c0b3000e
:1016e800104798000040eb00004f78000e003700cc
:1016f8002e4090009e409000014060000004e000f1
:10170800030032001e40780058ff0700020037002f
:101718001e40780090ff07001e40900000404000e7
:10172800104798001e4fe80050c0b3009e4f1000ad
:10173800efff36000080fa00000006000600fa00fd
:10174800000f78001107980042479800ab05070082
:101758009e0078000000eb00800878001e007800ea
:101768009e009000110098009e00780020c0b300f1
:10177800c04098001e00780010009000ce409000f5
:1017880001487800a10507000000eb000080fa007e
:10179800000006000a00fa00100798004147980068
:1017a8005247980063479800940507000040eb00f3
:1017b800104798001e009000100090000000e00004
:1017c800290032001e00900010009000104f780091
:1017d8005e4090000080fb00400798004e0090009b
:1017e800e20f5000170032004e009000e40f500046
:1017f8000c0032004e009000e10f50000100320052
:10180800190037004e4090001e4060000004e000c0
:10181800150032001e4090000040e8001047980074
:10182800110037004e4090001e4068000004e000a0
:101838000d003a001e4090000040e8001047980054
:10184800090037004e4090001e4f60004e40900047
:101858001e4068000004e00003003a001e409000ab
:101868000040e800104798009e4090006e419000ac
:101878001e009000d002070010479800630507007b
:101888001e4090000080fb000080fa000000060067
:101898000800fa00200798006147980072479800ee
:1018a80056050700ae009000c0842000808f5000cd
:1018b80004003900618720002e009000810f50003d
:1018c8000300360020c0b3002047980052003700bc
:1018d8002e00900040409000e24f5000030032007c
:1018e80060c0b300204798004b0037002e009000de
:1018f80090009000010f78001e00e00003003a00fd
:1019080050c0b30020479800430037007e40900045
:101918000080fb000000d100610060000004e000ce
:10192800060032001e007800904078006e4090005b
:1019380000c0700020479800080037001e0078009b
:10194800904178006e419000024078000080ea00e3
:101958008180ea0000c06100204798002e40900076
:101968009e00780091407800814f500003003a00b3
:1019780040c0b3002047980027003700ae409000d1
:101988001e007800014878007e4090000080fb002f
:101998000000d100610060000004e0001c0032007b
:1019a8002e009000100078001007980015003700ee
:1019b800f04380000000e00003003a001e009000a1
:1019c800f043880003003700e14380001e009000c8
:1019d800b00098001e009000e04388001e009000b0
:1019e800b00090002e009000010878009e00900042
:1019f8000000eb00b00098002e0090001000780066
:101a0800100798001e0090000000e000e8ff3a0070
:101a18000040eb0020479800fc0407002e4090008f
:101a28000080fb000080fa00000006000400fa00b5
:101a3800000037000040eb00004f7800020037003c
:101a4800a70407001e4fe80090c0b3009e4f100087
:101a5800fbff360098c8bf000040e80098e8b700d0
:101a680098c8bf0091892000914078000080fb0051
:101a78000181fb00110009000280d8008000fd00f0
:101a88000080fb00100798001e009000e10f500036
:101a98000b0032001e009000e20f50000d003200d3
:101aa8001e0090000000e00001003200e1ff370056
:101ab800c0842000df020700ac040700ddff370008
:101ac80020852000a1892000fc010700a704070049
:101ad800d8ff37008085200022c0b300e1c0b300e2
:101ae8006bff0700a1040700d2ff37000200fa00cd
:101af8000040eb00004f7800020037007804070030
:101b08001e4fe80090c0b3009e4f1000fbff360048
:101b180001003700950407008040eb00c0842000d6
:101b2800aa0207000080fb000000d10061006000ed
:101b38000004e000f7ff3a000040eb00c6fe070093
:101b4800ebff37000600fa000040eb002047980042
:101b580004003700620407002e4090000040e800af
:101b6800204798002e409000e94f5000f9ff3600ba
:101b7800010037007d04070020852000e4004700ad
:101b88000041eb009e0107000080fb000000d1002f
:101b9800610060000004e000f6ff3a002e009000ab
:101ba800000f78001e00780010407800aafe070099
:101bb8001e00780010409000a7fe0700e2ff3700e3
:101bc8000200fa0020c0b3009ee8b700000037000a
:101bd8000040eb001047980004003700400407005d
:101be8001e4090000040e800104798001e409000fa
:101bf800e94f5000f9ff3600010037005b04070089
:101c0800808520008041eb0042c0b300e1c0b300f2
:101c1800e0fe07000080fb000000d10061006000ca
:101c28000004e000f5ff3a00808520006904070001
:101c3800004f78008085200012c0b300f1c0b300c7
:101c480013ff070040c0b30083fe0700e0c0b300e5
:101c58009e4f100003003a0050c0b30003fe070077
:101c6800dbff370050c0b3003bfe0700d8ff37004a
:101c78000000fa00f4fd070023040700a2c0b30027
:101c880001802000a0d120007203070021812000dc
:101c9800a2c0b300a0d720006e0307004182200035
:101ca800a2c0b30060da20006a0307006183200045
:101cb800a2c0b30040de2000660307008040eb00ae
:101cc800c08420002f020700208520008000eb0040
:101cd8003a010700808520000041eb0001882000c0
:101ce80096fe070001000700feff37000000fa001b
:101cf800420407004904070012003700f04380003f
:101d0800504288005042800030009000f043880024
:101d1800514280000000eb00b00098005042800063
:101d2800818420009c000700f04380000000e00050
:101d380002003a000000eb00e0438800330407008b
:101d48002e040700f04380000000e000ebff3a009b
:101d58006d00370092c8bf000040e90092e8b70064
:101d68006044800050428800504280000000e0003b
:101d78005e00320050428000805090008140e900af
:101d880001509800590037005042800070009000c0
:101d98006044880052428000704480008144800082
:101da8000051980050428000900078000007200001
:101db8008080600000022000808f50000a003a00f6
:101dc80050428000900078000140a0000150a1001e
:101dd8000160a00001087800504280008184200042
:101de8006d0007003d0037005042800090007800e9
:101df800000720008080600000072000808f5000ce
:101e08001b003a00010407005042800020009000a7
:101e180000000100f903070050428000100078001c
:101e28006f0060000000e00004003a0051428000aa
:101e3800110078000070a1008008780050428000ee
:101e48009000780000082000008060000000e0009a
:101e58002200320051428000504280002048900009
:101e68008050980050428000850007001b00370012
:101e780050428000500090000000e000170032003f
:101e8800504280005000900080007800504280004e
:101e98002602070050428000e18720002302070045
:101ea80050428000818420002002070051428000b7
:101eb8000000eb00d000980051428000110078002b
:101ec8000040a1000050a0000060a0008008780039
:101ed80050428000818420002f0007006044800069
:101ee80050428800c9030700c4030700504280001d
:101ef8000000e000040032005042800000509000d2
:101f08000004e000a0ff320092c8bf000004e00017
:101f180090ff3a00404280005042880050428000c2
:101f28000000e000160032004042800030009000bf
:101f38004042880052428000504280001000be009b
:101f48003001980041019800b003070080030700a2
:101f5800aa03070050428000900078000007200084
:101f68008080600000052000808f500007003a0044
:101f780050428000818420000700070003003700da
:101f8800a2030700a90307009c0307009f0307009b
:101f98000080fa00000006000c00fa0030079800e4
:101fa800410798004e0090009000780021079800a3
:101fb8002e0090000000e00009003a004e0090005a
:101fc800be00900001087800be0090000000eb0001
:101fd800b00098000000eb0050079800250037007b
:101fe8000000eb00100798003e00900010007800f9
:101ff8006f406000004f780005003700ae00900089
:10200800110798002e009000b0009000210798005a
:102018002e0090000000e000070032009e80fb00c8
:102028002e009000100078006f4060000080fb00d8
:10203800808f5000f1ff3d001e0090000000e0007e
:1020480004003a004e009000be009000010878009d
:10205800030037001e009000be0090003100980079
:102068003e009000ae009000310098000000eb00a8
:10207800500798005e0090000080fa0000000600fb
:102088000a00fa0030079800604480002007980092
:102098002e0090000000e00008003a00be0090000a
:1020a80061448800be0090000000eb00f00098003a
:1020b8000000eb00400798003d0037000000eb00ef
:1020c800100798002e00900080509000014f780073
:1020d8000b0037002e009000100798002e0090008b
:1020e800f0009000210798002e0090000000e0000a
:1020f800030032002e009000005090001e4f400058
:102108002e0090000000e000040032003e00900025
:10211800005090009e4f5000eeff31002e009000be
:102128000000e000040032002e0090008050900073
:102138001e407800014f50003e0090000050900073
:102148009e4050003e009000015098002e009000e4
:102158000000e000080032003e009000805090002f
:10216800014f78002e009000005090009e405000d3
:102178002e009000015098001e0090000000e00022
:1021880003003a003e0090006044880003003700d6
:102198001e009000be009000710098003e00900064
:1021a800ae009000710098000000eb004007980016
:1021b8004e0090000080fa00000006000400fa00bb
:1021c800000f7800110798000c0307009e007800a4
:1021d8000000eb00800878001e0078009e00900048
:1021e800110098009e00780030c0b300c0409800ed
:1021f800060307000000eb000080fa00000006005c
:102208000800fa0010079800210798006247980014
:10221800fa0207000040eb00004f78001e00900013
:10222800100090000000e000030032001e4078001b
:102238000040e800004f78009e4078006e41900012
:102248001e0090005c000700004f78001e407800d8
:102258000080fb004300de00610060000004e00035
:10226800080032001e009000900090002e009000a0
:10227800010878009e0090000000eb009000980094
:10228800090037001e4078000080fb004200de0095
:10229800610060000004e00003003200ae0090001e
:1022a8000000eb0080087800d80207001e40780084
:1022b8000080fb000080fa00000006000600fa001b
:1022c8001007980021079800cc0207009e00900094
:1022d800c0842000808f50000400390061872000ee
:1022e8001e009000810f50000300360020c0b3008c
:1022f800004f78002b0037001e00900040409000ef
:10230800e34f50000300320060c0b300004f780074
:10231800240037001e009000100090000000e0002c
:102328000300320040c0b300004f78001d003700a2
:102338001e009000ae009000110098001e00900052
:1023480010007800000f78001e0078000000e00000
:1023580012003200f04380000000e00003003a0061
:102368001e007800f043880003003700e143800036
:102378001e007800b00098001e007800e043880036
:102388001e007800b00090001e0090000108780040
:102398009e0078000000eb00b00098000040eb00c1
:1023a800004f7800990207001e4078000080fb006b
:1023b8000080fa00000006000800fa0010079800e4
:1023c800414798005247980050428000900078009a
:1023d800000720008080600000062000808f5000e9
:1023e8000d003a0051428000110078000040a00022
:1023f8000050a1000060a0008008780051428000d1
:10240800110078000070a1008008780050002000ba
:10241800300798005800370050428000b000900004
:102428000140a0000150a1000160a0003100980007
:102438004e4090000004e000270032005042800027
:102448009000780000082000008060000000e00094
:102458001a00320051428000110078000070a1007b
:102468008008780050428000500090000000e00092
:1024780005003200504280008000eb0051009800b7
:1024880050428000e100070080c0b300004f780090
:1024980051428000110078000040a0000050a100c7
:1024a8000060a000800878001e4078000004a000aa
:1024b8000080fb00300798002f0037005142800051
:1024c800110078000070a00080087800210020002a
:1024d80031079800280037005e4090000004e000b3
:1024e80007003a0051428000110078000040a10026
:1024f8000050a1000060a000800878001500370097
:102508005042800090007800000720008080600022
:1025180000052000808f50000e003a0051428000d4
:10252800110078000040a1000050a1000060a00048
:102538008008780050428000de40900001509800ea
:10254800504280009e009000510098005042800048
:10255800cbfe070051428000110078000070a000f7
:10256800800878009e009000504280008afe070094
:1025780020002000300798003e0090000080fa00fc
:10258800000006000400fa00000f780021479800b8
:102598001a0207009e0078000000eb00800878000f
:1025a8002e409000e14060001e0078002140980015
:1025b8009e00780010c0b300c040980013020700c6
:1025c8000000eb000080fa00000006000600fa0098
:1025d8001007980041479800080207001e00900065
:1025e80020409000004f78009e4078004e419000b7
:1025f8001e00900070ff0700004f78001e40780012
:102608000080fb004300de00610060000004e00081
:10261800030032009e0090000040eb00a0409800ac
:10262800fa0107001e4078000080fb000080fa00d5
:10263800000006000400fa0010079800ef010700e8
:102648009e009000c0842000808f50000400390054
:10265800618720001e009000810f500003003600a3
:1026680020c0b300004f78002b0037001e009000f8
:1026780040409000e14f50000300320060c0b300ba
:10268800004f7800240037001e0090002040900082
:102698000004e0000300320040c0b300004f78009f
:1026a8001d0037009e00900010c0b300a0409800a5
:1026b8001e00900010007800000f78001e007800bf
:1026c8000000e00012003200f04380000000e0004b
:1026d80003003a001e007800f0438800030037002a
:1026e800e14380001e007800b00098001e007800ca
:1026f800e04388001e007800b00090001e009000a3
:10270800010878009e0078000000eb00b0009800f7
:102718000040eb00004f7800bc0107001e40780025
:102728000080fb000080fa00000006000c00fa00a0
:1027380030079800410798004e00900090007800fc
:10274800110798000000eb00200798003e00900059
:10275800b0009000010f7800240037009e00900020
:102768003e009000808f50001b003a002e00900021
:102778000000e00003003a004e0090001e087800b8
:10278800030037002e0090009e007800310098006a
:10279800ce009000c0882000808f50000b003a00c7
:1027a8001e00e000090032003e009000005090003a
:1027b800404798001e007800805090004e409000de
:1027c80080c040001e007800015098000000eb0017
:1027d800500798000a0037009e00900021079800d3
:1027e8001e009000b0009000110798001e00900095
:1027f8000000e000d9ff3a001000200050079800c0
:102808005e0090000080fa00000006000a00fa004e
:102818003007980060448000100798000000eb0023
:10282800200798003e009000f0009000010f78000b
:10283800200037009e0090003e009000808f5000de
:1028480017003a002e0090000000e00003003a0054
:102858001e00780060448800030037002e009000b6
:102868009e007800710098001e00e0000900320008
:102878003e00900000509000404798001e007800ed
:10288800805090004e40900080c040001e007800ac
:10289800015098000000eb00400798000a0037003c
:1028a8009e009000210798001e009000f000900004
:1028b800110798001e0090000000e000ddff3a00bc
:1028c80010002000400798004e0090000080fa0099
:1028d800000006000200fa00004f78001147980037
:1028e8001e4078004100070010c0b3009e4f100042
:1028f8001b003a00a042a800212a2000914078003d
:10290800c0c3b30000c07000a2e2b700412a200093
:1029180091407800f0c3b30000c07000a4e2b70093
:10292800a5c2bf00f041b300a5e2b7008d60a800c2
:102938008560a9001e409000674060006740600005
:102948004401dd009109200091407800f0c8b300ef
:1029580000c060000240700099e0b7000600370030
:102968008d60a9008560a90099c0bf00f1c8b300b7
:102978000140600099e0b7000080fa0000000600fe
:102988000200fa00004f7800a1e2a80010c0b300ce
:102998009e4f100001003a00a022a8000080fa0013
:1029a800000006000000fa00a1e2a9000080fa0079
:1029b800000006000000fa00a022a8000080fa002b
:1029c800000006000000fa00a0c2bf0061406000dd
:1029d8000080fb000080fa00000006000000fa00fa
:1029e800001480000080fa00000006000200fa00cf
:1029f800004f7800c6e2a8000000eb000015880030
:102a0800012a20009140780000ceb30000c0700079
:102a1800a0e2b7000000eb0010158800200020009d
:102a2800201588007000200030158800f0f72f006e
:102a3800401588000000eb00501588000080fa005f
:102a4800000006000000fa008560a9000080fa0076
:102a5800000006000800fa00000f7800110798002f
:102a6800424798009e00900000802000808f500010
:102a780004003900618320001e009000810f50007f
:102a88000300360020002000300798002a00370095
:102a9800da0007009e0090000000eb00900098000c
:102aa8004e409000804078000174a1001e00900004
:102ab800240007009e009000110078000040a0004c
:102ac8000050a1000060a100800878009e009000de
:102ad800110078000070a100800878001e009000a6
:102ae8009e00780021009800704480008144800096
:102af800804078001e009000015098004e409000e1
:102b08000004e000090035009e00900011007800e4
:102b18000040a0000050a1000060a00080087800dc
:102b2800818420001e0090001bfd0700b7000700ed
:102b38000000eb00300798003e0090000080fa008b
:102b4800000006000600fa001007980041479800a8
:102b58004e409000ef4f500005003600f0c0b30023
:102b68004047980010c0b300004f780002003700bb
:102b78000040eb00004f78004e409000ef406000ae
:102b88009e019000130078008180fb006f81600037
:102b980001ff2f000100600002007000800978002a
:102ba8001e80fb000080fa00000006000400fa0006
:102bb800000f780021479800324798000000eb008a
:102bc800200888000000eb00000888001e0078003c
:102bd800100888002e409000634060006340600049
:102be8004401dd004110200091407800f0ccb30092
:102bf80000c060000240700004e1b7008c60a800cb
:102c08008460a9003e409000674060006740600013
:102c18004401dd005109200091407800f0c8b3005c
:102c280000c060000240700095e0b7000080fa0024
:102c3800000006000000fa0005e1a8000080fa0084
:102c4800000006000000fa0005e1a9000000eb0002
:102c5800000888000080fa00000006000400fa005e
:102c6800000f78002147980032479800f5ff0700c9
:102c78003e419000ae4090001e007800cbff070058
:102c8800ecff07000080fa00000006000000fa00d0
:102c98008460a9000080fa00000006000000060019
:102ca800310620008100e900feff3a00000006001e
:102cb800610c20008100e900feff3a0000000600d8
:102cc800215c20008100e900feff3a0000000600b8
:102cd80001002c008100e900feff3a000000060018
:102ce80001002c008100e900feff3a0001002c00e1
:102cf8008100e900feff3a0001002c008100e90094
:102d0800feff3a00000006000000fa000000eb0099
:102d1800404288000000eb00504288000000eb00b1
:102d2800604488000040eb0092e8b7006000b800fb
:102d380070448800814488000000eb00e04388006c
:102d48000000eb00f04388000080fa000000060055
:102d58000000fa00af4488005042800090009000c4
:102d680081874700a0009000014001005042800088
:102d7800efb8970021009800a1448000e48040004b
:102d88008180570011009800ae4480000080fa004e
:042d98000000060031
:020000040000fa
:102d9c009c0800000200000002000000000000007f
:102dac0000080000980000000000000098080000d7
:102dbc0004000000020000000003020003000000f9
:102dcc009e0800000200000000000000000000004f
:020000040000fa
:102ddc000400fa0010079800070007001e0090007e
:102dec0010009000104f7800070007001e80fb00b9
:102dfc000080fa00000006000000fa00ff3ffc0013
:102e0c000080fa00000006000000fa000000fc0040
:102e1c000080fa00000006000000fa000060fe00ce
:102e2c000080fa00000006000000fa000080fa00a2
:042e3c00000006008c
:00000001FF
