:020000040000fa
:080000000001040000000000f3
:020000040000fa
:10020000ef8f20000eff20000e018800000000008c
:100210000c000700200f2100010020001100070042
:10022000000020000000e000020032000000020098
:1002300000000000fa110200000000000040da0097
:100240000000fe004440a900600020000000e00023
:100250000300320000002000a00188004440a800f4
:100260000000060091018800800078000000eb008b
:1002700015003700e280400032a0b4009101ba00be
:10028000e280400032a0b4009102ba00e280400057
:1002900032a0b4000002eb00472bde00f507b200ed
:1002a000602ce10004003a000059eb008301e900f2
:1002b000fdff3e00040037006128e100010032002c
:1002c0000082eb00040007001101ba000200e00008
:1002d000e8ff3a00000006003159ba008301e90046
:1002e0000c0032002159ba008301e90008003200f5
:1002f0000400e00003003a00e280400032a0b400b5
:10030000f5ff370011d9ba008301e900faff3a007e
:100310008100e800e180400032a0b4000000060047
:100320000040da000000fe000a00fa0080017800b8
:10033000e20f500028003e00e0478000e10f50002f
:1003400008003200e02120000000e000050032003b
:100350006421200085212000a62120008001780052
:1003600004003700c4202000e520200006212000e2
:1003700043212000144090000004e00004003500f8
:100380008009eb00144090000074a0001042980017
:10039000154090000028a30003003a00154090008b
:1003a0000024a000904298008001eb000700370075
:1003b000154090000008a300fdff320063c07800e4
:1003c0000000fb00000b78008301e800828f5100e1
:1003d000f7ff3a000800370030002000b0bf9f0050
:1003e000c3bf9f00d1bf9f00e2bf9f006a8057003c
:1003f00000c0da006fb99700020078000080fa00b0
:1004000000000600881f7800000478005001be003c
:100410004000be00040040008580480006014900fd
:1004200087814900009cbe000294be000400e100e8
:100430000588e1000690e1000798e1000200310024
:10044000680044001008e8004f047800000006002f
:10045000f4874700889fbe008a9fbe008c9fbe0025
:100460008e1f78000205be000004be00d4b79f00b6
:10047000e5b79f00f6b79f0087bf9f000000eb0025
:10048000c0b79f00b0b79f00a0b79f0090b79f0074
:1004900080b79f000d042000bfb097004fb09700b9
:1004a000000140000000e0000f003d004f08de00aa
:1004b00000007100c0b79f009e00070001003d00d2
:1004c00012002000a100070001003d0012002000e2
:1004d000a6000700b1000700b60007000f004000ab
:1004e000c8ff0700220037004f08de000006710039
:1004f000ccb79f008f00070001003d0012002000d4
:100500009200070001003d00120020009700070044
:10051000a20007000fb297009fb297002fb3970079
:10052000bfb39700a90007000000520081805a0065
:1005300002015b0083815b0080b79f0091b79f0041
:10054000a2b79f00b3b79f000007eb009f00070012
:100550000020e10001a8e10002b0e10003b8e100e1
:10056000010031001e0020000e005600c0b79f00a1
:100570004fb297000400e000070035001000200093
:10058000010020006011b800080470008984700028
:100590000a0571008b8571008d06e900beff3a00e7
:1005a0000400e00003003d00820007000f0040004f
:1005b00094ff07004fa897000000e00004003a00f5
:1005c0000fb497009fb497002fb59700bfb5970061
:1005d000940007004f0778004f06be004f05be008d
:1005e0004f04be004f01b10000000600881f7800d4
:1005f00018002000881f780095ff07008f87e9000a
:100600004f04780000000600801feb0090ff0700f9
:100610008f87e90000000600889fbe008a9fbe0009
:100620008c1f78006e00070007003d007300070074
:10063000e00f5b00e08f5b0007003d003200070029
:100640000006eb00040037003400070002003d0004
:100650002a0007001c00200072000700e3ff0700cb
:100660000203be000002be000c00e00001003200e8
:10067000220007000400be000601be004f067800fd
:100680004f05be004f04be0000000600889fbe005c
:100690008a9fbe008c1f78005100070005003d00b6
:1006a00056000700e00f5b00e08f5b0006003d0096
:1006b000040037001900070003003d006000b80087
:1006c0006011b8001000070056000700ceff0700b9
:1006d0000203be000002be000c00e0000100320078
:1006e000060007000400be000601be004f067800a9
:1006f0004f05be004f04be00000006006000b800b9
:100700006011b800000037000402500085825800d4
:100710000603590087835900000006000006eb001d
:10072000e00f5200e08f5a00e00f5b00e08f5b00ab
:10073000000006000180400090b79f000001eb0020
:100740008fb097000100e00000000600020070007a
:1007500090b79f000180400080b79f000001eb0030
:10076000ffa897000100e0000000060002007000f2
:1007700080b79f00018040006faa9700cf20de0065
:1007800001007000f0af9f00040242002500070046
:100790004f18de000002720000000600e4af9f0068
:1007a0000804440089844c000a054d008b854d00e7
:1007b000000006003fb29700cfb297005fb39700ea
:1007c000efb3970000fe2f00000006003fb0970037
:1007d000cfb097005fb19700efb19700000006001f
:1007e0000205be000004be00e00f5000e08f58007c
:1007f000e00f5900e08f5900000006006000b800cb
:100800006011b80008045000898458000a05590096
:100810008b8559001c002000e00f5200e08f5a0029
:10082000000006000800be000a01be00000006002d
:100830000c00fa00889fbe0000047800cfb097003b
:10084000f0ff2700d0bf9f008004eb0099bf9f00fe
:1008500088bf9f00a8bf9f00200c2000b0bf9f0052
:100860007881570070805700080007000fb8970084
:10087000094878000fb89700080450000800780075
:100880004f04be000080fa0000000600fe8747000b
:10089000889fbe008a9fbe008c9fbe008e1f78007e
:1008a000f0b79f000107780082bf9f000000eb00b7
:1008b000a0b79f009f0237008006eb0050c2b30034
:1008c00080cf5000090032000100fb00ffb097000c
:1008d000a3020700e10f400096023200afb097007c
:1008e0008100e800a1b79f00920237009e40780087
:1008f000d0c2b30080cf50000c00320007003c0093
:100900006d40500080cf50000a0032006b40400024
:1009100080cf50000e003a000800370000c3b3003b
:1009200080cf50000a003a00060037000d30a000ca
:10093000050037000d00a000030037000d10a000d7
:10094000010037000d20a0000e07e800e7ff370088
:100950000d18a300010032000d00a1000d38a30006
:10096000010032000d20a1000100fb0002fd2f005c
:1009700002004000e90f50000e003e000002eb00b4
:10098000c4b79f0082017800cfb297006a28b900ef
:100990001e01fb000001410003014100c2b79f009e
:1009a0005e00fb0003004000e90f50000b003e001a
:1009b000f5ff37000006eb00ccb79f00a0c2b300e4
:1009c00080cf500005003a000fb89700c0007800b3
:1009d00080bf9f00c1b79f000e07e8000001eb0039
:1009e000b2b79f00e0c2b3009e4f100018003a005b
:1009f0000de0a0008e00e80064405000914f100010
:100a000002003200010778000c0037000fba97008f
:100a1000c402780084bf9f00b5b79f000e87e8002e
:100a20000b0037003fb697006a60b9000000410034
:100a300003004000b0b79f000e07e8001e01fb0056
:100a400003fd2f0003004100e90f5000f5ff3600c1
:100a5000be407800e1d79f00c0c6b30080cf5000f1
:100a6000220032000f003c006940500080cf50004f
:100a70007700320004003c000104e0003102320043
:100a80006b4050000f00370040c6b30080cf5000cd
:100a9000930032006540400080cf50008b003a0048
:100aa0008f00370030c7b30080cf50001a003200eb
:100ab00007003c006440500080cf5000110032001d
:100ac0000040e80080cf500080003a000f0037005f
:100ad00050c7b30080cf5000800032006340400018
:100ae00080cf500079003a0009003700000028004c
:100af0000d48a30001003a00000120008086760026
:100b0000d3ff37000d60a000750037000d50a00026
:100b10000d70a000720037008fb897004100780078
:100b200081bf9f00000478000000e00001003a004f
:100b3000688a20008004eb00010037008104e8008f
:100b400089007800088044001004e000fbff3a00b0
:100b50003fb197000200e00003003200890f51000e
:100b600001003100820478000002eb00e4af9f0036
:100b7000cfb29700898f52000200360009805200e0
:100b8000e0af9f004368de00e10660001b003a0012
:100b90000d06780009003700ffb097000002200022
:100ba000ef010700e10f4000030032002fb0970073
:100bb0000000e800a0b79f000c06e800efa897002f
:100bc000810f5600f4ff3a000081eb00e2af9f0076
:100bd0000a003700880078003100fb00010478002b
:100be000ffb09700de010700e10f40000300320074
:100bf0002fb297000402e800a4b79f000900e900a3
:100c000080047800e10f4000f2ff3a000006eb009c
:100c10000d00e0000a003a00c6013700ffb097005f
:100c200000022000ce010700e10f40000300320067
:100c3000afb297008502e800a5b79f000c06e80058
:100c40006fa89700800f5600f4ff3a00b9013700f3
:100c50008fb897004100780081bf9f00cf80de00f1
:100c600001017800820178000205be000004be0088
:100c70000203be000002be004822de00482edd0056
:100c800004027600e4d79f000d48a3000a0032005a
:100c90000404e00008003200e14f42000600320088
:100ca00071fd2f000180470004487800184098002b
:100cb0002900200002003700f0d79f001900200013
:100cc00072fd2f0002844700a1ff370064fd2f0052
:100cd00004844700190020009dff37000d0cb3006d
:100ce0000d007800000cb20028003a000d00e00072
:100cf00005003d008fba97004505be004504be00c3
:100d000085bf9f00140037000d48a3000b00320080
:100d10000fbe97004c00be008cbf9f004f89de00c5
:100d2000cf91de000002be0002037800820378004b
:100d30000605be000404be00070037008fb8970008
:100d40004100780081bf9f0000047800cfc4de001e
:100d5000090578008a057800e00f5400e08f5c00f8
:100d6000e00f5d00e08f5d001f003d003d00b3001f
:100d70006000b8006011b800080450008984580071
:100d80000a0559008b855900170037000d00e00057
:100d900005003d000fb997004205be004204be00a9
:100da00082bf9f00100037000d48a30007003200eb
:100db0000fba97004400be0084bf9f006011b800c6
:100dc0000205be000004be00070037008fba97007e
:100dd0004500780085bf9f000004780009002000ce
:100de0000a0020000b0020003fb697000c00e00036
:100df00007003a00e00f5400e08f5c00e00f5d0058
:100e0000e08f5d0002003a0010002000b0b79f00a4
:100e10008d007800010cb200e1b79f0000042000b3
:100e2000808f50003000320003003c000100e000e1
:100e30000800320040003700000820006fb1970022
:100e4000800f510014003200000c2000800f510070
:100e500039003a0014c0b300658020000b00370051
:100e60000400fb004300dd00050040005001be000f
:100e70004000be000040e10001c8e10002d0e100f6
:100e800003d8e1002b0039000442e800f44f52007f
:100e9000f3ff3a0027003700000120000100200086
:100ea0006011b80014c0b3000040e10001c8e100c7
:100eb00002d0e10003d8e1001e0039004500200007
:100ec0000000d0008180d2000281d2008381d20054
:100ed0008502e900faff3a000442e800f04f5200b0
:100ee000f1ff3a00130037008000200001002000cd
:100ef0006011b80014c0b3000040e10001c8e10077
:100f000002d0e10003d8e1000a0039003c002000d3
:100f10000000d0008180d2000281d2008381d20003
:100f20000c06e900faff3a000442e800f54f5200cf
:100f3000f1ff3a00e4d79f00efd097000100fb00db
:100f40003fb19700820f500002003d00e2d79f00a2
:100f5000040037003fb29700800f520001003d00af
:100f6000b0b79f00cfb297000500e0000400320048
:100f700063806600020032008502e900c5b79f0069
:100f80000de8a3000b0032004fb697003fb097006a
:100f9000800f560003003c008000eb00c1b79f00ab
:100fa000040037004fb197003fb297000401510091
:100fb000c2b79f00efd297000500fb000006eb00d0
:100fc000dcaf9f00cfb09700808f5000020034004c
:100fd00000805000d0af9f000d28a30037003200e2
:100fe000e18066000d18a3000c003200d002200042
:100ff0000100e00001003a000080e900ffb0970026
:10100000d7000700e10f40000e0032002fb197001b
:101010000201e800a2b79f000a0037000100e000cb
:1010200008003200ffb0970000022000cc0007004b
:10103000e10f4000030032002fb297000402e800e5
:10104000a4b79f00dfaa97000500e0000f00320060
:101050000006eb00ffb0970000032000c00007006f
:10106000e10f4000030032002fb097000000e800bd
:10107000a0b79f000c06e800dfa89700810f56007c
:10108000f4ff3a000001eb00d2af9f003fb297009f
:10109000c320dd00e07f20008080400091b79f00ea
:1010a0004220dd006400500080b79f006320b9003b
:1010b000f0af9f006306500084003700dfaa97005e
:1010c0000500e00011003200688066000f003a0061
:1010d00000067800ffb0970000022000a000070083
:1010e000e10f4000030032002fb097000000e8003d
:1010f000a0b79f000c06e800dfa89700810f5600fc
:10110000f4ff3a000001eb00d2af9f00e1806600df
:101110000d18a3000c003200d00220000100e000f6
:1011200001003a000080e900ffb097008c00070042
:10113000e10f4000d5ff32002fb297000402e80013
:10114000a4b79f00d1ff37000100e000cfff3200bd
:10115000ffb097000002200081000700e10f40006f
:10116000caff3200afb297008502e800a5b79f0022
:10117000c6ff370000042000efb09700808f5000ba
:101180003100320003003c000100e00008003200a2
:101190003e003700000820006fb19700800f51001b
:1011a00011003200000c2000800f510037003a007f
:1011b0001fb097003002be002003be000800be0032
:1011c0000a01be0009fd0700a40020000500200060
:1011d0006033b8000cfd070004c3b30004424000b4
:1011e000e4d79f0029003700d58a2000d5b79f009b
:1011f0000d58a30002003a00e08b2000d0b79f00fa
:1012000014002000050020006033b8008fb0970064
:101210008100e900050033000402d0008582d2007d
:101220000683d2008783d200f9ff37000800be0092
:101230000a01be00edfc07006f0060005fb197007f
:1012400062407800100037001400200005002000e4
:101250006033b8000c0078000000e900050033009e
:101260000402d0008582d2000683d2008783d20098
:10127000f9ff37000800be000a01be00dbfc0700d2
:10128000674060000043b000e0d79f00efd09700b8
:101290000100fb00ffb0970031000700e10f4000a4
:1012a000030032002fb197000201e800a2b79f00af
:1012b0001fb297006802520094b79f008fb2970048
:1012c000e482520085b79f0063065600d0ff2f00ce
:1012d0003fb197000090b9007faa9700000042003c
:1012e00063005000800f5600a2ff3a000d38a300a3
:1012f00010003200dfaa97000500e0000d00340066
:101300000006eb00ffb09700000220001400070069
:10131000e10f4000030032002fb097000000e8000a
:10132000a0b79f000c06e800dfa89700810f5600c9
:10133000f4ff3a00be407800e1d79f000104e000ce
:101340005dfd3a002fb097004f0778004f06be00b2
:101350004f05be004f04be00ef01b10000000600c3
:10136000889fbe000001780001047800b100900061
:101370000118a3003d0032000198a30003003a00c9
:10138000180090000000e00038003a000190a00032
:101390003104980082047800f90fb2001800900020
:1013a0000000e00002003a0028009000000c7800e5
:1013b000ea8f540006003a00380090000078a3003d
:1013c00003003a0088007800d0002000e4ff070006
:1013d0009800900058009000808f50000b00320061
:1013e0000100e800100498001800780009587800ff
:1013f000000c780011c0b300a08f200001487800d5
:10140000ea8f540006003200190037008800780087
:1014100009407800190007008004780014003700a4
:10142000380090000088a3001100320018019000dd
:10143000a800900048009000bbfb070098009000b7
:10144000810f500004003200380090000003b30008
:10145000300498008084eb000000eb00100498003a
:1014600028009000000c7800010037008084eb0019
:10147000090078004f04be00000006000200fa00d8
:10148000889fbe00a0ff9f0001047800b10090007b
:10149000810478000904b200020032000000fb0061
:1014a000360037000118a30005003a000103b3001d
:1014b00031049800190498000080eb002f003700d9
:1014c000580090000000e00006003a00480090003c
:1014d00012002000e680570093fb070019049800d3
:1014e00024003700280090000000e00008003a00c7
:1014f000608f200020049800000c7800200020005d
:1015000050049800100498000130a00031049800a5
:1015100018019000a80090004800900082fb07008e
:1015200028009000000c78000080eb001004980068
:1015300018007800aff8970001587800000c780088
:101540002ff89700ea4f50000a003a003800900048
:101550000088a3000700320018019000a800900046
:101560004800900070fb070019049800a800900044
:10157000010c7800aff897000100fb004f04be009b
:081580000080fa0000000600e3
:020000040000fa
:1000080090010000900100009001000090010000a4
:100018009001000090010000900100009001000094
:100028009001000090010000900100009001000084
:10003800900100009001000090010000b61000003f
:10004800900100009001000090010000ce11000016
:100058009001000090010000900100009001000054
:100068009001000090010000900100009001000044
:100078009001000090010000900100009001000034
:100088009001000090010000900100009001000024
:100098009001000090010000900100009001000014
:1000a8009001000090010000900100009001000004
:1000b80090010000900100009001000090010000f4
:1000c80090010000900100009001000090010000e4
:1000d80090010000900100009001000090010000d4
:1000e80090010000900100009001000090010000c4
:0800f8009001000090010000de
:020000040000fa
:1001080090010000900100009001000090010000a3
:100118009001000090010000900100009001000093
:100128009001000090010000900100009001000083
:10013800900100009001000090010000b61000003e
:10014800900100009001000090010000ce11000015
:100158009001000090010000900100009001000053
:100168009001000090010000900100009001000043
:100178009001000090010000900100009001000033
:100188009001000090010000900100009001000023
:100198009001000090010000900100009001000013
:1001a8009001000090010000900100009001000003
:1001b80090010000900100009001000090010000f3
:1001c80090010000900100009001000090010000e3
:1001d80090010000900100009001000090010000d3
:1001e80090010000900100009001000090010000c3
:0801f8009001000090010000dd
:020000040000fa
:0c1588002575000020200000200000005d
:020000040000fa
:101594000000fa00c6c2a900cde2a900d902a90040
:1015a400b703070000c3b30006010700b003070038
:1015b40000c3b30003010700a903070000c3b3007d
:1015c400000107006500070000c2b300fd0007002a
:1015d4006200070080c2b3007f0007005f000700bd
:1015e40080c0b3007c0007005c00070010c0b3009b
:1015f400790007005900070060c0b30076000700b7
:101604005600070055000700e0c0b3007200070051
:10161400520007000080fa00000006000000fa00f3
:1016240010c0b3006c0007004c0007000080fa00f3
:10163400000006000000fa0020c0b30066000700a6
:10164400460007000080fa00000006000000fa00cf
:1016540000c8b30060000700400007000080fa00e3
:10166400000006000000fa0000ccb3005a00070096
:101674003a0007000080fa00000006000200fa00a9
:10168400000f780005003700340007001e007800c2
:1016940010407800100107001e0fe8001e007800bb
:1016a400104078000004e000f7ff3a000080fa00e0
:1016b400000006000000fa0000c1b3004600070065
:1016c400260007000080fa00000006000000fa006f
:1016d40040c1b30040000700200007000080fa006a
:1016e400000006000000fa0080c1b3003a000700c1
:1016f4001a0007000080fa00000006000000fa004b
:10170400e0c1b30034000700140007000080fa00b1
:10171400000006000000fa00c0c0b3002e0007005d
:101724000e0007000080fa00000006000000fa0026
:10173400e0c0b30028000700080007000080fa009a
:10174400000006000000fa00f0c0b3002200070009
:10175400020007000080fa00000006000200fa0000
:1017640010c0b300004f7800d262a800d242a80093
:10177400d222a800d202a80035030700d1e2a900b2
:10178400dd02a80032030700310307000d00370013
:10179400cac2a8002e0307002d030700d4c2bf004d
:1017a4000080fb004300de0061406000004f7800d1
:1017b4002703070026030700cac2a9002403070061
:1017c400230307001e04e000f1ff3a00dd02a90034
:1017d4000080fa00000006000200fa00004f7800c2
:1017e400d1e2a900dd02a900d262a900d242a90077
:1017f400d222a900d202a9009e00fb00000820000a
:10180400008060004780de0061406000614060004d
:101814004301dd00612d20009140780070cfb300ba
:1018240000c0600002407000d6e2b7009e00fb00da
:1018340000042000008060004680de0061406000fb
:10184400614060004201dd00612d2000914078007c
:10185400b0cfb30000c0600002407000d6e2b70011
:101864009e00fb0000022000008060004580de0036
:10187400614060006140600000414000612d200033
:1018840091407800d0cfb30000c0600002407000e7
:10189400d6e2b7001e00fb00700060004480de004a
:1018a4006140600061416000612d2000914078003a
:1018b400e0cfb30000c0600002407000d6e2b70081
:1018c400e3020700cac2a800e1020700cac2a900d5
:1018d400df020700d1e2a900dd02a9001e00fb001f
:1018e400680060004380de00614060006140600089
:1018f4004301dd00612d20009140780070cfb300da
:1019040000c0600002407000d6e2b7001e00fb0079
:10191400640060004280de0061406000614060005d
:101924004201dd00612d200091407800b0cfb3006a
:1019340000c0600002407000d6e2b7001e00fb0049
:10194400620060000080d10061406000614060007e
:1019540000414000612d200091407800d0cfb300b9
:1019640000c0600002407000d6e2b7001e4078005c
:10197400614060006140600061406000614160005e
:10198400612d200091407800e0cfb30000c06000da
:1019940002407000d6e2b700ad020700cac2a80038
:1019a400ab020700cac2a900a9020700d262a800bc
:1019b400d242a800d222a800d202a8000080fa00d5
:1019c400000006000200fa00004f7800d1e2a900ee
:1019d400dd02a900d262a900d242a900d222a90044
:1019e400d202a9009e00fb000008200000806000d5
:1019f4004780de0061406000614060004301dd001b
:101a0400612d20009140780070cfb30000c06000c9
:101a140002407000d6e2b7009e00fb0000042000e4
:101a2400008060004680de0061406000614060002c
:101a34004201dd00612d200091407800b0cfb30059
:101a440000c0600002407000d6e2b7009e00fb00b8
:101a540000022000008060004580de0061406000dc
:101a64006140600000414000612d200091407800f9
:101a7400d0cfb30000c0600002407000d6e2b700cf
:101a84001e00fb00700060004480de0061406000c6
:101a940061416000612d200091407800e0cfb300e7
:101aa40000c0600002407000d6e2b7006802070080
:101ab400cac2a80066020700cac2a90064020700dd
:101ac400d262a800d242a800d222a800d202a80062
:101ad4000080fa00000006000200fa00004f7800bf
:101ae400d1e2a800dd02a900d262a900d242a90075
:101af400d222a900d202a9009e00fb000008200007
:101b0400008060004780de0061406000614060004a
:101b14004301dd00612d20009140780070cfb300b7
:101b240000c0600002407000d6e2b7009e00fb00d7
:101b340000042000008060004680de0061406000f8
:101b4400614060004201dd00612d20009140780079
:101b5400b0cfb30000c0600002407000d6e2b7000e
:101b64009e00fb0000022000008060004580de0033
:101b7400614060006140600000414000612d200030
:101b840091407800d0cfb30000c0600002407000e4
:101b9400d6e2b7001e00fb00700060004480de0047
:101ba4006140600061416000612d20009140780037
:101bb400e0cfb30000c0600002407000d6e2b7007e
:101bc40023020700cac2a80021020700cac2a90052
:101bd4001f020700d1e2a800dd02a9001e00fb00dd
:101be400680060004380de00614060006140600086
:101bf4004301dd00612d20009140780070cfb300d7
:101c040000c0600002407000d6e2b7001e00fb0076
:101c1400640060004280de0061406000614060005a
:101c24004201dd00612d200091407800b0cfb30067
:101c340000c0600002407000d6e2b7001e00fb0046
:101c4400620060000080d10061406000614060007b
:101c540000414000612d200091407800d0cfb300b6
:101c640000c0600002407000d6e2b7001e40780059
:101c7400614060006140600061406000614160005b
:101c8400612d200091407800e0cfb30000c06000d7
:101c940002407000d6e2b700ed010700cac2a800f6
:101ca400eb010700cac2a900e9010700d262a8003b
:101cb400d242a800d222a800d202a800dd02a900c4
:101cc400d1e2a9000080fa00000006000000fa003a
:101cd400d802a900d822a900d842a900d862a90034
:101ce400d882a900d8a2a9000080fa00000006004a
:101cf4000400fa00004f78001e80fb0010079800d3
:101d04001e009000e20f50001e0032001e009000e2
:101d1400e20f500007003c001e0090000000e000ad
:101d24000e0032001e009000e10f5000100032003f
:101d3400280037001e009000e40f50001b00320002
:101d44001e009000e40f5000130035001e009000a8
:101d5400e50f50001a0032001e003700dc02a80014
:101d640002c8bf000004a00002e8b7001900370051
:101d7400dc22a80002c8bf000014a00002e8b700db
:101d840014003700dc42a80002c8bf000024a000f1
:101d940002e8b7000f003700dc62a80002c8bf00e9
:101da4000034a00002e8b7000a003700dc82a80073
:101db40002c8bf000044a00002e8b70005003700d5
:101dc400dca2a80002c8bf0001c2b3000140700039
:101dd40002e8b7000080fa00000006000400fa00e0
:101de400004f78001e80fb00100798001e00900032
:101df400e20f5000200032001e009000e20f50005d
:101e040007003c001e0090000000e0000e003200bd
:101e14001e009000e10f5000110032002d00370029
:101e24001e009000e40f50001f0032001e009000be
:101e3400e40f5000160035001e009000e50f50001e
:101e44001f00320023003700dc02a90002c8bf00d3
:101e5400e1cfb3000140600002e8b7001d00370085
:101e6400dc22a90002c8bf00d1cfb300014060004a
:101e740002e8b70017003700dc42a90002c8bf001f
:101e8400b1cfb3000140600002e8b7001100370091
:101e9400dc62a90002c8bf0071cfb300014060003a
:101ea40002e8b7000b003700dc82a90002c8bf00bb
:101eb400f1ceb3000140600002e8b700050037002e
:101ec400dca2a90002c8bf00f1cdb300014060004c
:101ed40002e8b7000080fa00000006000400fa00df
:101ee400204798002e409000e54f500016003e0019
:101ef4002e4090008080fb00100020000100dd00d7
:101f0400004f780002c8bf001e4060000004e000db
:101f1400080032002e409000b0ff07001e407800f9
:101f240080c0ea0002c8bf0000c0600002e8b70039
:101f3400050037002e4090006dff070002c8bf0067
:101f44001e40700002e8b7000080fa00000006009e
:101f54000400fa002047980010c0b300104798000e
:101f640010c0b300104798000040eb00004f780009
:101f74000e0037002e4090009e409000014060000b
:101f84000004e000030032001e40780058ff070000
:101f9400020037001e40780090ff07001e409000aa
:101fa40000404000104798001e4fe80050c0b300a6
:101fb4009e4f1000efff36000080fa00000006007c
:101fc4000200fa00004f7800114798001e40780084
:101fd40000e8b7001e4078006e00070010c0b30090
:101fe4009e4f10002e003a000000eb00800888008d
:101ff4000000eb0090088800a0c2bf007f40600092
:10200400a0e2b7000000eb00300888000084230041
:10201400600888001061a800011120009140780038
:1020240000c3b30000c0700010e1b7000000eb0073
:10203400500888000000eb00700888001e409000e3
:1020440067406000674060004401dd0071092000c2
:1020540091407800f0c8b30000c0600002407000f6
:1020640097e0b70084e0a9008ce0a8001e4090002f
:1020740067406000674060004401dd009109200072
:1020840091407800f0c8b30000c0600002407000c6
:1020940099e0b7008560a9008d60a80006003700ac
:1020a4008d60a9008560a90099c0bf00f1c8b30084
:1020b4000140600099e0b7000080fa0000000600cb
:1020c4000200fa00004f780010c0b3009e4f1000c9
:1020d40004003a00a1e2a800a042a80011e1a8006f
:1020e40001003700a1e2a8000080fa000000060009
:1020f4000000fa0000c8bf00e14f500005003a009c
:1021040011e1a90010c1bf0001c3b3000140700078
:1021140010e1b700a1e2a9000080fa000000060067
:102124000000fa00a022a8000080fa0000000600c7
:102134000000fa00a0c2bf00614060000080fb0004
:102144000080fa00000006000000fa00001480007d
:102154000080fa00000006000000fa008560a90073
:102164000080fa00000006003400f800881f7800a0
:1021740008002000a80188004f0478000000fa003d
:10218400a022a90084e0a9000080fa003400f9002c
:10219400004006000200fa00004f7800c6e2a800e2
:1021a400f0f72f00401588000000eb0000158800b0
:1021b400000e2000001588000000eb0010158800b8
:1021c40020102000201588000008200050158800e9
:1021d40070002000301588000080fa00000006001e
:020000040000fa
:1021e40000080000020000000200000000000000df
:1021f40002080000020000000200000000000000cd
:1022040004080000020000000200000000000000ba
:1022140006080000a0000000020000000100000009
:102224000000000000000a000000000000000000a0
:10223400006400000000000000000000e80300004b
:102244000000000000001000270000000000000053
:1022540000a08600010000000000000040420f00c2
:1022640000000000000080009698000000000000bc
:102274000000e100f50500000000000000ca9a001b
:102284003b00000000000000e40b540002000000ca
:102294000000e80076481700000000000010a500c8
:1022a400d4e8000000000000a0724e0018090000ed
:1022b400000040007a10f3005a0000000080c600bd
:1022c400a47e8d000300000000c16f00f28623008d
:1022d400000000008a5d780045630100000064008e
:1022e400a7b3b600e00d000000e889000423c7008e
:1022f4008a000000a60800002a0000000200000076
:10230400286e75006c6c29000030310032333400c3
:102314003536370038394100424344004546000011
:1023240030313200333435003637380039616200d9
:102334006364650066000000d00800002600000009
:1023440002000000d208f80008000000f8080900a4
:10235400000000000200f60008000000f608060075
:102364000201000000000000000000000000060060
:102374000202000000000000f60800000600000051
:1023840000000000fc080000020000000200000041
:08239400010000000000000040
:020000040000fa
:10239c003600f800809fbe00829fbe00849fbe0066
:1023ac00869fbe003400f80000002000a0018800c9
:1023bc000000fa0062ff0700204088000040eb009c
:1023cc00c4fe070062ff07000080fa003400f90029
:1023dc004f03be004f02be004f01be004f00be00b7
:1023ec003600f900004006000800fa0035fe070030
:1023fc0065fc070051c0b30010c0b300eefe07002f
:10240c0010c0b3002cff070020408000801f780014
:10241c0040ac2800801f78000e00780001f90700fe
:10242c00e487570081fc07000e00780091fc070040
:10243c00f5ff370000000600310620008100e9009e
:10244c00feff3a0000000600610c20008100e9004c
:10245c00feff3a0000000600215c20008100e9002c
:10246c00feff3a000000060001002c008100e9008c
:10247c00feff3a000000060001002c008100e9007c
:10248c00feff3a0001002c008100e900feff3a003b
:10249c0001002c008100e900feff3a00000006005c
:00000001FF
